{
	"compilerInput": "{\"language\":\"Solidity\",\"sources\":{\"bbbbb.sol\":{\"content\":\"// SPDX-License-Identifier: MIT\\npragma solidity ^0.8.19;\\n\\ncontract SmartContractDetective {\\n    struct CaseResult {\\n        uint256 seed;\\n        uint8 result; // 1 = success, 2 = partial, 3 = fail\\n        uint256 timestamp;\\n        bool completed;\\n    }\\n\\n    mapping(address => mapping(uint8 => CaseResult)) public playerCases;\\n\\n    event CaseStarted(address indexed player, uint8 caseId, uint256 seed);\\n    event CaseCompleted(address indexed player, uint8 caseId, uint8 result, string message);\\n\\n    function startCase(uint8 caseId) external {\\n        require(playerCases[msg.sender][caseId].seed == 0, \\\"Already started this case\\\");\\n        uint256 seed = uint256(keccak256(abi.encodePacked(msg.sender, caseId, block.timestamp, block.prevrandao)));\\n        playerCases[msg.sender][caseId] = CaseResult(seed, 0, block.timestamp, false);\\n        emit CaseStarted(msg.sender, caseId, seed);\\n    }\\n\\n    function completeCase(uint8 caseId, uint8 result) external {\\n        CaseResult storage r = playerCases[msg.sender][caseId];\\n        require(r.seed != 0, \\\"Start case first\\\");\\n        require(!r.completed, \\\"Already completed\\\");\\n        r.result = result;\\n        r.timestamp = block.timestamp;\\n        r.completed = true;\\n        string memory message;\\n        if (result == 1) message = \\\"You solved the case and exposed the attacker.\\\";\\n        else if (result == 2) message = \\\"You found clues but failed to recover the funds.\\\";\\n        else if (result == 3) message = \\\"You accused the wrong wallet. Case unresolved.\\\";\\n        else message = \\\"Case closed with unknown outcome.\\\";\\n        emit CaseCompleted(msg.sender, caseId, result, message);\\n    }\\n}\\n\"}},\"settings\":{\"optimizer\":{\"enabled\":false,\"runs\":200},\"outputSelection\":{\"*\":{\"\":[\"ast\"],\"*\":[\"abi\",\"metadata\",\"devdoc\",\"userdoc\",\"storageLayout\",\"evm.legacyAssembly\",\"evm.bytecode\",\"evm.deployedBytecode\",\"evm.methodIdentifiers\",\"evm.gasEstimates\",\"evm.assembly\"]}},\"remappings\":[]}}",
	"name": "SmartContractDetective",
	"bytecode": {
		"linkReferences": {},
		"object": "6080604052348015600e575f5ffd5b50610a988061001c5f395ff3fe608060405234801561000f575f5ffd5b506004361061003f575f3560e01c80632d3c4ab314610043578063421f11c61461005f57806355139e3c14610092575b5f5ffd5b61005d60048036038101906100589190610540565b6100ae565b005b610079600480360381019061007491906105c5565b610294565b6040516100899493929190610644565b60405180910390f35b6100ac60048036038101906100a79190610687565b6102e2565b005b5f5f5f3373ffffffffffffffffffffffffffffffffffffffff1673ffffffffffffffffffffffffffffffffffffffff1681526020019081526020015f205f8360ff1660ff1681526020019081526020015f205f015414610143576040517f08c379a000000000000000000000000000000000000000000000000000000000815260040161013a9061071f565b60405180910390fd5b5f3382424460405160200161015b94939291906107d6565b604051602081830303815290604052805190602001205f1c905060405180608001604052808281526020015f60ff1681526020014281526020015f15158152505f5f3373ffffffffffffffffffffffffffffffffffffffff1673ffffffffffffffffffffffffffffffffffffffff1681526020019081526020015f205f8460ff1660ff1681526020019081526020015f205f820151815f01556020820151816001015f6101000a81548160ff021916908360ff160217905550604082015181600201556060820151816003015f6101000a81548160ff0219169083151502179055509050503373ffffffffffffffffffffffffffffffffffffffff167ff8aed1aacaae899332a8639f68dcb750e33db6b978339ded3b66dfe3790baec88383604051610288929190610823565b60405180910390a25050565b5f602052815f5260405f20602052805f5260405f205f9150915050805f015490806001015f9054906101000a900460ff1690806002015490806003015f9054906101000a900460ff16905084565b5f5f5f3373ffffffffffffffffffffffffffffffffffffffff1673ffffffffffffffffffffffffffffffffffffffff1681526020019081526020015f205f8460ff1660ff1681526020019081526020015f2090505f815f01540361037b576040517f08c379a000000000000000000000000000000000000000000000000000000000815260040161037290610894565b60405180910390fd5b806003015f9054906101000a900460ff16156103cc576040517f08c379a00000000000000000000000000000000000000000000000000000000081526004016103c3906108fc565b60405180910390fd5b81816001015f6101000a81548160ff021916908360ff1602179055504281600201819055506001816003015f6101000a81548160ff021916908315150217905550606060018360ff160361043a576040518060600160405280602d8152602001610a08602d913990506104ae565b60028360ff1603610465576040518060600160405280603081526020016109b76030913990506104ad565b60038360ff1603610490576040518060600160405280602e8152602001610a35602e913990506104ac565b6040518060600160405280602181526020016109e76021913990505b5b5b3373ffffffffffffffffffffffffffffffffffffffff167f2b3c17c2e8b8c593c899afc66b54a63390f29ebfc0d29b420b2fa0bab2453f3b8585846040516104f89392919061097a565b60405180910390a250505050565b5f5ffd5b5f60ff82169050919050565b61051f8161050a565b8114610529575f5ffd5b50565b5f8135905061053a81610516565b92915050565b5f6020828403121561055557610554610506565b5b5f6105628482850161052c565b91505092915050565b5f73ffffffffffffffffffffffffffffffffffffffff82169050919050565b5f6105948261056b565b9050919050565b6105a48161058a565b81146105ae575f5ffd5b50565b5f813590506105bf8161059b565b92915050565b5f5f604083850312156105db576105da610506565b5b5f6105e8858286016105b1565b92505060206105f98582860161052c565b9150509250929050565b5f819050919050565b61061581610603565b82525050565b6106248161050a565b82525050565b5f8115159050919050565b61063e8161062a565b82525050565b5f6080820190506106575f83018761060c565b610664602083018661061b565b610671604083018561060c565b61067e6060830184610635565b95945050505050565b5f5f6040838503121561069d5761069c610506565b5b5f6106aa8582860161052c565b92505060206106bb8582860161052c565b9150509250929050565b5f82825260208201905092915050565b7f416c7265616479207374617274656420746869732063617365000000000000005f82015250565b5f6107096019836106c5565b9150610714826106d5565b602082019050919050565b5f6020820190508181035f830152610736816106fd565b9050919050565b5f8160601b9050919050565b5f6107538261073d565b9050919050565b5f61076482610749565b9050919050565b61077c6107778261058a565b61075a565b82525050565b5f8160f81b9050919050565b5f61079882610782565b9050919050565b6107b06107ab8261050a565b61078e565b82525050565b5f819050919050565b6107d06107cb82610603565b6107b6565b82525050565b5f6107e1828761076b565b6014820191506107f1828661079f565b60018201915061080182856107bf565b60208201915061081182846107bf565b60208201915081905095945050505050565b5f6040820190506108365f83018561061b565b610843602083018461060c565b9392505050565b7f53746172742063617365206669727374000000000000000000000000000000005f82015250565b5f61087e6010836106c5565b91506108898261084a565b602082019050919050565b5f6020820190508181035f8301526108ab81610872565b9050919050565b7f416c726561647920636f6d706c657465640000000000000000000000000000005f82015250565b5f6108e66011836106c5565b91506108f1826108b2565b602082019050919050565b5f6020820190508181035f830152610913816108da565b9050919050565b5f81519050919050565b8281835e5f83830152505050565b5f601f19601f8301169050919050565b5f61094c8261091a565b61095681856106c5565b9350610966818560208601610924565b61096f81610932565b840191505092915050565b5f60608201905061098d5f83018661061b565b61099a602083018561061b565b81810360408301526109ac8184610942565b905094935050505056fe596f7520666f756e6420636c75657320627574206661696c656420746f207265636f766572207468652066756e64732e4361736520636c6f736564207769746820756e6b6e6f776e206f7574636f6d652e596f7520736f6c76656420746865206361736520616e64206578706f736564207468652061747461636b65722e596f752061636375736564207468652077726f6e672077616c6c65742e204361736520756e7265736f6c7665642ea2646970667358221220538b0a9dda8dfdba24ce67be3b9d8010fb75b97e9bb80291bca5f175f988e83c64736f6c634300081e0033",
		"opcodes": "PUSH1 0x80 PUSH1 0x40 MSTORE CALLVALUE DUP1 ISZERO PUSH1 0xE JUMPI PUSH0 PUSH0 REVERT JUMPDEST POP PUSH2 0xA98 DUP1 PUSH2 0x1C PUSH0 CODECOPY PUSH0 RETURN INVALID PUSH1 0x80 PUSH1 0x40 MSTORE CALLVALUE DUP1 ISZERO PUSH2 0xF JUMPI PUSH0 PUSH0 REVERT JUMPDEST POP PUSH1 0x4 CALLDATASIZE LT PUSH2 0x3F JUMPI PUSH0 CALLDATALOAD PUSH1 0xE0 SHR DUP1 PUSH4 0x2D3C4AB3 EQ PUSH2 0x43 JUMPI DUP1 PUSH4 0x421F11C6 EQ PUSH2 0x5F JUMPI DUP1 PUSH4 0x55139E3C EQ PUSH2 0x92 JUMPI JUMPDEST PUSH0 PUSH0 REVERT JUMPDEST PUSH2 0x5D PUSH1 0x4 DUP1 CALLDATASIZE SUB DUP2 ADD SWAP1 PUSH2 0x58 SWAP2 SWAP1 PUSH2 0x540 JUMP JUMPDEST PUSH2 0xAE JUMP JUMPDEST STOP JUMPDEST PUSH2 0x79 PUSH1 0x4 DUP1 CALLDATASIZE SUB DUP2 ADD SWAP1 PUSH2 0x74 SWAP2 SWAP1 PUSH2 0x5C5 JUMP JUMPDEST PUSH2 0x294 JUMP JUMPDEST PUSH1 0x40 MLOAD PUSH2 0x89 SWAP5 SWAP4 SWAP3 SWAP2 SWAP1 PUSH2 0x644 JUMP JUMPDEST PUSH1 0x40 MLOAD DUP1 SWAP2 SUB SWAP1 RETURN JUMPDEST PUSH2 0xAC PUSH1 0x4 DUP1 CALLDATASIZE SUB DUP2 ADD SWAP1 PUSH2 0xA7 SWAP2 SWAP1 PUSH2 0x687 JUMP JUMPDEST PUSH2 0x2E2 JUMP JUMPDEST STOP JUMPDEST PUSH0 PUSH0 PUSH0 CALLER PUSH20 0xFFFFFFFFFFFFFFFFFFFFFFFFFFFFFFFFFFFFFFFF AND PUSH20 0xFFFFFFFFFFFFFFFFFFFFFFFFFFFFFFFFFFFFFFFF AND DUP2 MSTORE PUSH1 0x20 ADD SWAP1 DUP2 MSTORE PUSH1 0x20 ADD PUSH0 KECCAK256 PUSH0 DUP4 PUSH1 0xFF AND PUSH1 0xFF AND DUP2 MSTORE PUSH1 0x20 ADD SWAP1 DUP2 MSTORE PUSH1 0x20 ADD PUSH0 KECCAK256 PUSH0 ADD SLOAD EQ PUSH2 0x143 JUMPI PUSH1 0x40 MLOAD PUSH32 0x8C379A000000000000000000000000000000000000000000000000000000000 DUP2 MSTORE PUSH1 0x4 ADD PUSH2 0x13A SWAP1 PUSH2 0x71F JUMP JUMPDEST PUSH1 0x40 MLOAD DUP1 SWAP2 SUB SWAP1 REVERT JUMPDEST PUSH0 CALLER DUP3 TIMESTAMP PREVRANDAO PUSH1 0x40 MLOAD PUSH1 0x20 ADD PUSH2 0x15B SWAP5 SWAP4 SWAP3 SWAP2 SWAP1 PUSH2 0x7D6 JUMP JUMPDEST PUSH1 0x40 MLOAD PUSH1 0x20 DUP2 DUP4 SUB SUB DUP2 MSTORE SWAP1 PUSH1 0x40 MSTORE DUP1 MLOAD SWAP1 PUSH1 0x20 ADD KECCAK256 PUSH0 SHR SWAP1 POP PUSH1 0x40 MLOAD DUP1 PUSH1 0x80 ADD PUSH1 0x40 MSTORE DUP1 DUP3 DUP2 MSTORE PUSH1 0x20 ADD PUSH0 PUSH1 0xFF AND DUP2 MSTORE PUSH1 0x20 ADD TIMESTAMP DUP2 MSTORE PUSH1 0x20 ADD PUSH0 ISZERO ISZERO DUP2 MSTORE POP PUSH0 PUSH0 CALLER PUSH20 0xFFFFFFFFFFFFFFFFFFFFFFFFFFFFFFFFFFFFFFFF AND PUSH20 0xFFFFFFFFFFFFFFFFFFFFFFFFFFFFFFFFFFFFFFFF AND DUP2 MSTORE PUSH1 0x20 ADD SWAP1 DUP2 MSTORE PUSH1 0x20 ADD PUSH0 KECCAK256 PUSH0 DUP5 PUSH1 0xFF AND PUSH1 0xFF AND DUP2 MSTORE PUSH1 0x20 ADD SWAP1 DUP2 MSTORE PUSH1 0x20 ADD PUSH0 KECCAK256 PUSH0 DUP3 ADD MLOAD DUP2 PUSH0 ADD SSTORE PUSH1 0x20 DUP3 ADD MLOAD DUP2 PUSH1 0x1 ADD PUSH0 PUSH2 0x100 EXP DUP2 SLOAD DUP2 PUSH1 0xFF MUL NOT AND SWAP1 DUP4 PUSH1 0xFF AND MUL OR SWAP1 SSTORE POP PUSH1 0x40 DUP3 ADD MLOAD DUP2 PUSH1 0x2 ADD SSTORE PUSH1 0x60 DUP3 ADD MLOAD DUP2 PUSH1 0x3 ADD PUSH0 PUSH2 0x100 EXP DUP2 SLOAD DUP2 PUSH1 0xFF MUL NOT AND SWAP1 DUP4 ISZERO ISZERO MUL OR SWAP1 SSTORE POP SWAP1 POP POP CALLER PUSH20 0xFFFFFFFFFFFFFFFFFFFFFFFFFFFFFFFFFFFFFFFF AND PUSH32 0xF8AED1AACAAE899332A8639F68DCB750E33DB6B978339DED3B66DFE3790BAEC8 DUP4 DUP4 PUSH1 0x40 MLOAD PUSH2 0x288 SWAP3 SWAP2 SWAP1 PUSH2 0x823 JUMP JUMPDEST PUSH1 0x40 MLOAD DUP1 SWAP2 SUB SWAP1 LOG2 POP POP JUMP JUMPDEST PUSH0 PUSH1 0x20 MSTORE DUP2 PUSH0 MSTORE PUSH1 0x40 PUSH0 KECCAK256 PUSH1 0x20 MSTORE DUP1 PUSH0 MSTORE PUSH1 0x40 PUSH0 KECCAK256 PUSH0 SWAP2 POP SWAP2 POP POP DUP1 PUSH0 ADD SLOAD SWAP1 DUP1 PUSH1 0x1 ADD PUSH0 SWAP1 SLOAD SWAP1 PUSH2 0x100 EXP SWAP1 DIV PUSH1 0xFF AND SWAP1 DUP1 PUSH1 0x2 ADD SLOAD SWAP1 DUP1 PUSH1 0x3 ADD PUSH0 SWAP1 SLOAD SWAP1 PUSH2 0x100 EXP SWAP1 DIV PUSH1 0xFF AND SWAP1 POP DUP5 JUMP JUMPDEST PUSH0 PUSH0 PUSH0 CALLER PUSH20 0xFFFFFFFFFFFFFFFFFFFFFFFFFFFFFFFFFFFFFFFF AND PUSH20 0xFFFFFFFFFFFFFFFFFFFFFFFFFFFFFFFFFFFFFFFF AND DUP2 MSTORE PUSH1 0x20 ADD SWAP1 DUP2 MSTORE PUSH1 0x20 ADD PUSH0 KECCAK256 PUSH0 DUP5 PUSH1 0xFF AND PUSH1 0xFF AND DUP2 MSTORE PUSH1 0x20 ADD SWAP1 DUP2 MSTORE PUSH1 0x20 ADD PUSH0 KECCAK256 SWAP1 POP PUSH0 DUP2 PUSH0 ADD SLOAD SUB PUSH2 0x37B JUMPI PUSH1 0x40 MLOAD PUSH32 0x8C379A000000000000000000000000000000000000000000000000000000000 DUP2 MSTORE PUSH1 0x4 ADD PUSH2 0x372 SWAP1 PUSH2 0x894 JUMP JUMPDEST PUSH1 0x40 MLOAD DUP1 SWAP2 SUB SWAP1 REVERT JUMPDEST DUP1 PUSH1 0x3 ADD PUSH0 SWAP1 SLOAD SWAP1 PUSH2 0x100 EXP SWAP1 DIV PUSH1 0xFF AND ISZERO PUSH2 0x3CC JUMPI PUSH1 0x40 MLOAD PUSH32 0x8C379A000000000000000000000000000000000000000000000000000000000 DUP2 MSTORE PUSH1 0x4 ADD PUSH2 0x3C3 SWAP1 PUSH2 0x8FC JUMP JUMPDEST PUSH1 0x40 MLOAD DUP1 SWAP2 SUB SWAP1 REVERT JUMPDEST DUP2 DUP2 PUSH1 0x1 ADD PUSH0 PUSH2 0x100 EXP DUP2 SLOAD DUP2 PUSH1 0xFF MUL NOT AND SWAP1 DUP4 PUSH1 0xFF AND MUL OR SWAP1 SSTORE POP TIMESTAMP DUP2 PUSH1 0x2 ADD DUP2 SWAP1 SSTORE POP PUSH1 0x1 DUP2 PUSH1 0x3 ADD PUSH0 PUSH2 0x100 EXP DUP2 SLOAD DUP2 PUSH1 0xFF MUL NOT AND SWAP1 DUP4 ISZERO ISZERO MUL OR SWAP1 SSTORE POP PUSH1 0x60 PUSH1 0x1 DUP4 PUSH1 0xFF AND SUB PUSH2 0x43A JUMPI PUSH1 0x40 MLOAD DUP1 PUSH1 0x60 ADD PUSH1 0x40 MSTORE DUP1 PUSH1 0x2D DUP2 MSTORE PUSH1 0x20 ADD PUSH2 0xA08 PUSH1 0x2D SWAP2 CODECOPY SWAP1 POP PUSH2 0x4AE JUMP JUMPDEST PUSH1 0x2 DUP4 PUSH1 0xFF AND SUB PUSH2 0x465 JUMPI PUSH1 0x40 MLOAD DUP1 PUSH1 0x60 ADD PUSH1 0x40 MSTORE DUP1 PUSH1 0x30 DUP2 MSTORE PUSH1 0x20 ADD PUSH2 0x9B7 PUSH1 0x30 SWAP2 CODECOPY SWAP1 POP PUSH2 0x4AD JUMP JUMPDEST PUSH1 0x3 DUP4 PUSH1 0xFF AND SUB PUSH2 0x490 JUMPI PUSH1 0x40 MLOAD DUP1 PUSH1 0x60 ADD PUSH1 0x40 MSTORE DUP1 PUSH1 0x2E DUP2 MSTORE PUSH1 0x20 ADD PUSH2 0xA35 PUSH1 0x2E SWAP2 CODECOPY SWAP1 POP PUSH2 0x4AC JUMP JUMPDEST PUSH1 0x40 MLOAD DUP1 PUSH1 0x60 ADD PUSH1 0x40 MSTORE DUP1 PUSH1 0x21 DUP2 MSTORE PUSH1 0x20 ADD PUSH2 0x9E7 PUSH1 0x21 SWAP2 CODECOPY SWAP1 POP JUMPDEST JUMPDEST JUMPDEST CALLER PUSH20 0xFFFFFFFFFFFFFFFFFFFFFFFFFFFFFFFFFFFFFFFF AND PUSH32 0x2B3C17C2E8B8C593C899AFC66B54A63390F29EBFC0D29B420B2FA0BAB2453F3B DUP6 DUP6 DUP5 PUSH1 0x40 MLOAD PUSH2 0x4F8 SWAP4 SWAP3 SWAP2 SWAP1 PUSH2 0x97A JUMP JUMPDEST PUSH1 0x40 MLOAD DUP1 SWAP2 SUB SWAP1 LOG2 POP POP POP POP JUMP JUMPDEST PUSH0 PUSH0 REVERT JUMPDEST PUSH0 PUSH1 0xFF DUP3 AND SWAP1 POP SWAP2 SWAP1 POP JUMP JUMPDEST PUSH2 0x51F DUP2 PUSH2 0x50A JUMP JUMPDEST DUP2 EQ PUSH2 0x529 JUMPI PUSH0 PUSH0 REVERT JUMPDEST POP JUMP JUMPDEST PUSH0 DUP2 CALLDATALOAD SWAP1 POP PUSH2 0x53A DUP2 PUSH2 0x516 JUMP JUMPDEST SWAP3 SWAP2 POP POP JUMP JUMPDEST PUSH0 PUSH1 0x20 DUP3 DUP5 SUB SLT ISZERO PUSH2 0x555 JUMPI PUSH2 0x554 PUSH2 0x506 JUMP JUMPDEST JUMPDEST PUSH0 PUSH2 0x562 DUP5 DUP3 DUP6 ADD PUSH2 0x52C JUMP JUMPDEST SWAP2 POP POP SWAP3 SWAP2 POP POP JUMP JUMPDEST PUSH0 PUSH20 0xFFFFFFFFFFFFFFFFFFFFFFFFFFFFFFFFFFFFFFFF DUP3 AND SWAP1 POP SWAP2 SWAP1 POP JUMP JUMPDEST PUSH0 PUSH2 0x594 DUP3 PUSH2 0x56B JUMP JUMPDEST SWAP1 POP SWAP2 SWAP1 POP JUMP JUMPDEST PUSH2 0x5A4 DUP2 PUSH2 0x58A JUMP JUMPDEST DUP2 EQ PUSH2 0x5AE JUMPI PUSH0 PUSH0 REVERT JUMPDEST POP JUMP JUMPDEST PUSH0 DUP2 CALLDATALOAD SWAP1 POP PUSH2 0x5BF DUP2 PUSH2 0x59B JUMP JUMPDEST SWAP3 SWAP2 POP POP JUMP JUMPDEST PUSH0 PUSH0 PUSH1 0x40 DUP4 DUP6 SUB SLT ISZERO PUSH2 0x5DB JUMPI PUSH2 0x5DA PUSH2 0x506 JUMP JUMPDEST JUMPDEST PUSH0 PUSH2 0x5E8 DUP6 DUP3 DUP7 ADD PUSH2 0x5B1 JUMP JUMPDEST SWAP3 POP POP PUSH1 0x20 PUSH2 0x5F9 DUP6 DUP3 DUP7 ADD PUSH2 0x52C JUMP JUMPDEST SWAP2 POP POP SWAP3 POP SWAP3 SWAP1 POP JUMP JUMPDEST PUSH0 DUP2 SWAP1 POP SWAP2 SWAP1 POP JUMP JUMPDEST PUSH2 0x615 DUP2 PUSH2 0x603 JUMP JUMPDEST DUP3 MSTORE POP POP JUMP JUMPDEST PUSH2 0x624 DUP2 PUSH2 0x50A JUMP JUMPDEST DUP3 MSTORE POP POP JUMP JUMPDEST PUSH0 DUP2 ISZERO ISZERO SWAP1 POP SWAP2 SWAP1 POP JUMP JUMPDEST PUSH2 0x63E DUP2 PUSH2 0x62A JUMP JUMPDEST DUP3 MSTORE POP POP JUMP JUMPDEST PUSH0 PUSH1 0x80 DUP3 ADD SWAP1 POP PUSH2 0x657 PUSH0 DUP4 ADD DUP8 PUSH2 0x60C JUMP JUMPDEST PUSH2 0x664 PUSH1 0x20 DUP4 ADD DUP7 PUSH2 0x61B JUMP JUMPDEST PUSH2 0x671 PUSH1 0x40 DUP4 ADD DUP6 PUSH2 0x60C JUMP JUMPDEST PUSH2 0x67E PUSH1 0x60 DUP4 ADD DUP5 PUSH2 0x635 JUMP JUMPDEST SWAP6 SWAP5 POP POP POP POP POP JUMP JUMPDEST PUSH0 PUSH0 PUSH1 0x40 DUP4 DUP6 SUB SLT ISZERO PUSH2 0x69D JUMPI PUSH2 0x69C PUSH2 0x506 JUMP JUMPDEST JUMPDEST PUSH0 PUSH2 0x6AA DUP6 DUP3 DUP7 ADD PUSH2 0x52C JUMP JUMPDEST SWAP3 POP POP PUSH1 0x20 PUSH2 0x6BB DUP6 DUP3 DUP7 ADD PUSH2 0x52C JUMP JUMPDEST SWAP2 POP POP SWAP3 POP SWAP3 SWAP1 POP JUMP JUMPDEST PUSH0 DUP3 DUP3 MSTORE PUSH1 0x20 DUP3 ADD SWAP1 POP SWAP3 SWAP2 POP POP JUMP JUMPDEST PUSH32 0x416C726561647920737461727465642074686973206361736500000000000000 PUSH0 DUP3 ADD MSTORE POP JUMP JUMPDEST PUSH0 PUSH2 0x709 PUSH1 0x19 DUP4 PUSH2 0x6C5 JUMP JUMPDEST SWAP2 POP PUSH2 0x714 DUP3 PUSH2 0x6D5 JUMP JUMPDEST PUSH1 0x20 DUP3 ADD SWAP1 POP SWAP2 SWAP1 POP JUMP JUMPDEST PUSH0 PUSH1 0x20 DUP3 ADD SWAP1 POP DUP2 DUP2 SUB PUSH0 DUP4 ADD MSTORE PUSH2 0x736 DUP2 PUSH2 0x6FD JUMP JUMPDEST SWAP1 POP SWAP2 SWAP1 POP JUMP JUMPDEST PUSH0 DUP2 PUSH1 0x60 SHL SWAP1 POP SWAP2 SWAP1 POP JUMP JUMPDEST PUSH0 PUSH2 0x753 DUP3 PUSH2 0x73D JUMP JUMPDEST SWAP1 POP SWAP2 SWAP1 POP JUMP JUMPDEST PUSH0 PUSH2 0x764 DUP3 PUSH2 0x749 JUMP JUMPDEST SWAP1 POP SWAP2 SWAP1 POP JUMP JUMPDEST PUSH2 0x77C PUSH2 0x777 DUP3 PUSH2 0x58A JUMP JUMPDEST PUSH2 0x75A JUMP JUMPDEST DUP3 MSTORE POP POP JUMP JUMPDEST PUSH0 DUP2 PUSH1 0xF8 SHL SWAP1 POP SWAP2 SWAP1 POP JUMP JUMPDEST PUSH0 PUSH2 0x798 DUP3 PUSH2 0x782 JUMP JUMPDEST SWAP1 POP SWAP2 SWAP1 POP JUMP JUMPDEST PUSH2 0x7B0 PUSH2 0x7AB DUP3 PUSH2 0x50A JUMP JUMPDEST PUSH2 0x78E JUMP JUMPDEST DUP3 MSTORE POP POP JUMP JUMPDEST PUSH0 DUP2 SWAP1 POP SWAP2 SWAP1 POP JUMP JUMPDEST PUSH2 0x7D0 PUSH2 0x7CB DUP3 PUSH2 0x603 JUMP JUMPDEST PUSH2 0x7B6 JUMP JUMPDEST DUP3 MSTORE POP POP JUMP JUMPDEST PUSH0 PUSH2 0x7E1 DUP3 DUP8 PUSH2 0x76B JUMP JUMPDEST PUSH1 0x14 DUP3 ADD SWAP2 POP PUSH2 0x7F1 DUP3 DUP7 PUSH2 0x79F JUMP JUMPDEST PUSH1 0x1 DUP3 ADD SWAP2 POP PUSH2 0x801 DUP3 DUP6 PUSH2 0x7BF JUMP JUMPDEST PUSH1 0x20 DUP3 ADD SWAP2 POP PUSH2 0x811 DUP3 DUP5 PUSH2 0x7BF JUMP JUMPDEST PUSH1 0x20 DUP3 ADD SWAP2 POP DUP2 SWAP1 POP SWAP6 SWAP5 POP POP POP POP POP JUMP JUMPDEST PUSH0 PUSH1 0x40 DUP3 ADD SWAP1 POP PUSH2 0x836 PUSH0 DUP4 ADD DUP6 PUSH2 0x61B JUMP JUMPDEST PUSH2 0x843 PUSH1 0x20 DUP4 ADD DUP5 PUSH2 0x60C JUMP JUMPDEST SWAP4 SWAP3 POP POP POP JUMP JUMPDEST PUSH32 0x5374617274206361736520666972737400000000000000000000000000000000 PUSH0 DUP3 ADD MSTORE POP JUMP JUMPDEST PUSH0 PUSH2 0x87E PUSH1 0x10 DUP4 PUSH2 0x6C5 JUMP JUMPDEST SWAP2 POP PUSH2 0x889 DUP3 PUSH2 0x84A JUMP JUMPDEST PUSH1 0x20 DUP3 ADD SWAP1 POP SWAP2 SWAP1 POP JUMP JUMPDEST PUSH0 PUSH1 0x20 DUP3 ADD SWAP1 POP DUP2 DUP2 SUB PUSH0 DUP4 ADD MSTORE PUSH2 0x8AB DUP2 PUSH2 0x872 JUMP JUMPDEST SWAP1 POP SWAP2 SWAP1 POP JUMP JUMPDEST PUSH32 0x416C726561647920636F6D706C65746564000000000000000000000000000000 PUSH0 DUP3 ADD MSTORE POP JUMP JUMPDEST PUSH0 PUSH2 0x8E6 PUSH1 0x11 DUP4 PUSH2 0x6C5 JUMP JUMPDEST SWAP2 POP PUSH2 0x8F1 DUP3 PUSH2 0x8B2 JUMP JUMPDEST PUSH1 0x20 DUP3 ADD SWAP1 POP SWAP2 SWAP1 POP JUMP JUMPDEST PUSH0 PUSH1 0x20 DUP3 ADD SWAP1 POP DUP2 DUP2 SUB PUSH0 DUP4 ADD MSTORE PUSH2 0x913 DUP2 PUSH2 0x8DA JUMP JUMPDEST SWAP1 POP SWAP2 SWAP1 POP JUMP JUMPDEST PUSH0 DUP2 MLOAD SWAP1 POP SWAP2 SWAP1 POP JUMP JUMPDEST DUP3 DUP2 DUP4 MCOPY PUSH0 DUP4 DUP4 ADD MSTORE POP POP POP JUMP JUMPDEST PUSH0 PUSH1 0x1F NOT PUSH1 0x1F DUP4 ADD AND SWAP1 POP SWAP2 SWAP1 POP JUMP JUMPDEST PUSH0 PUSH2 0x94C DUP3 PUSH2 0x91A JUMP JUMPDEST PUSH2 0x956 DUP2 DUP6 PUSH2 0x6C5 JUMP JUMPDEST SWAP4 POP PUSH2 0x966 DUP2 DUP6 PUSH1 0x20 DUP7 ADD PUSH2 0x924 JUMP JUMPDEST PUSH2 0x96F DUP2 PUSH2 0x932 JUMP JUMPDEST DUP5 ADD SWAP2 POP POP SWAP3 SWAP2 POP POP JUMP JUMPDEST PUSH0 PUSH1 0x60 DUP3 ADD SWAP1 POP PUSH2 0x98D PUSH0 DUP4 ADD DUP7 PUSH2 0x61B JUMP JUMPDEST PUSH2 0x99A PUSH1 0x20 DUP4 ADD DUP6 PUSH2 0x61B JUMP JUMPDEST DUP2 DUP2 SUB PUSH1 0x40 DUP4 ADD MSTORE PUSH2 0x9AC DUP2 DUP5 PUSH2 0x942 JUMP JUMPDEST SWAP1 POP SWAP5 SWAP4 POP POP POP POP JUMP INVALID MSIZE PUSH16 0x7520666F756E6420636C756573206275 PUSH21 0x206661696C656420746F207265636F766572207468 PUSH6 0x2066756E6473 0x2E NUMBER PUSH2 0x7365 KECCAK256 PUSH4 0x6C6F7365 PUSH5 0x2077697468 KECCAK256 PUSH22 0x6E6B6E6F776E206F7574636F6D652E596F7520736F6C PUSH23 0x656420746865206361736520616E64206578706F736564 KECCAK256 PUSH21 0x68652061747461636B65722E596F75206163637573 PUSH6 0x642074686520 PUSH24 0x726F6E672077616C6C65742E204361736520756E7265736F PUSH13 0x7665642EA26469706673582212 KECCAK256 MSTORE8 DUP12 EXP SWAP14 0xDA DUP14 REVERT 0xBA 0x24 0xCE PUSH8 0xBE3B9D8010FB75B9 PUSH31 0x9BB80291BCA5F175F988E83C64736F6C634300081E00330000000000000000 "
	},
	"abi": [
		{
			"anonymous": false,
			"inputs": [
				{
					"indexed": true,
					"internalType": "address",
					"name": "player",
					"type": "address"
				},
				{
					"indexed": false,
					"internalType": "uint8",
					"name": "caseId",
					"type": "uint8"
				},
				{
					"indexed": false,
					"internalType": "uint8",
					"name": "result",
					"type": "uint8"
				},
				{
					"indexed": false,
					"internalType": "string",
					"name": "message",
					"type": "string"
				}
			],
			"name": "CaseCompleted",
			"type": "event"
		},
		{
			"anonymous": false,
			"inputs": [
				{
					"indexed": true,
					"internalType": "address",
					"name": "player",
					"type": "address"
				},
				{
					"indexed": false,
					"internalType": "uint8",
					"name": "caseId",
					"type": "uint8"
				},
				{
					"indexed": false,
					"internalType": "uint256",
					"name": "seed",
					"type": "uint256"
				}
			],
			"name": "CaseStarted",
			"type": "event"
		},
		{
			"inputs": [
				{
					"internalType": "uint8",
					"name": "caseId",
					"type": "uint8"
				},
				{
					"internalType": "uint8",
					"name": "result",
					"type": "uint8"
				}
			],
			"name": "completeCase",
			"outputs": [],
			"stateMutability": "nonpayable",
			"type": "function"
		},
		{
			"inputs": [
				{
					"internalType": "uint8",
					"name": "caseId",
					"type": "uint8"
				}
			],
			"name": "startCase",
			"outputs": [],
			"stateMutability": "nonpayable",
			"type": "function"
		},
		{
			"inputs": [
				{
					"internalType": "address",
					"name": "",
					"type": "address"
				},
				{
					"internalType": "uint8",
					"name": "",
					"type": "uint8"
				}
			],
			"name": "playerCases",
			"outputs": [
				{
					"internalType": "uint256",
					"name": "seed",
					"type": "uint256"
				},
				{
					"internalType": "uint8",
					"name": "result",
					"type": "uint8"
				},
				{
					"internalType": "uint256",
					"name": "timestamp",
					"type": "uint256"
				},
				{
					"internalType": "bool",
					"name": "completed",
					"type": "bool"
				}
			],
			"stateMutability": "view",
			"type": "function"
		}
	],
	"storageLayout": {
		"storage": [
			{
				"astId": 17,
				"contract": "bbbbb.sol:SmartContractDetective",
				"label": "playerCases",
				"offset": 0,
				"slot": "0",
				"type": "t_mapping(t_address,t_mapping(t_uint8,t_struct(CaseResult)10_storage))"
			}
		],
		"types": {
			"t_address": {
				"encoding": "inplace",
				"label": "address",
				"numberOfBytes": "20"
			},
			"t_bool": {
				"encoding": "inplace",
				"label": "bool",
				"numberOfBytes": "1"
			},
			"t_mapping(t_address,t_mapping(t_uint8,t_struct(CaseResult)10_storage))": {
				"encoding": "mapping",
				"key": "t_address",
				"label": "mapping(address => mapping(uint8 => struct SmartContractDetective.CaseResult))",
				"numberOfBytes": "32",
				"value": "t_mapping(t_uint8,t_struct(CaseResult)10_storage)"
			},
			"t_mapping(t_uint8,t_struct(CaseResult)10_storage)": {
				"encoding": "mapping",
				"key": "t_uint8",
				"label": "mapping(uint8 => struct SmartContractDetective.CaseResult)",
				"numberOfBytes": "32",
				"value": "t_struct(CaseResult)10_storage"
			},
			"t_struct(CaseResult)10_storage": {
				"encoding": "inplace",
				"label": "struct SmartContractDetective.CaseResult",
				"members": [
					{
						"astId": 3,
						"contract": "bbbbb.sol:SmartContractDetective",
						"label": "seed",
						"offset": 0,
						"slot": "0",
						"type": "t_uint256"
					},
					{
						"astId": 5,
						"contract": "bbbbb.sol:SmartContractDetective",
						"label": "result",
						"offset": 0,
						"slot": "1",
						"type": "t_uint8"
					},
					{
						"astId": 7,
						"contract": "bbbbb.sol:SmartContractDetective",
						"label": "timestamp",
						"offset": 0,
						"slot": "2",
						"type": "t_uint256"
					},
					{
						"astId": 9,
						"contract": "bbbbb.sol:SmartContractDetective",
						"label": "completed",
						"offset": 0,
						"slot": "3",
						"type": "t_bool"
					}
				],
				"numberOfBytes": "128"
			},
			"t_uint256": {
				"encoding": "inplace",
				"label": "uint256",
				"numberOfBytes": "32"
			},
			"t_uint8": {
				"encoding": "inplace",
				"label": "uint8",
				"numberOfBytes": "1"
			}
		}
	},
	"web3Deploy": "var smartcontractdetectiveContract = new web3.eth.Contract([{\"anonymous\":false,\"inputs\":[{\"indexed\":true,\"internalType\":\"address\",\"name\":\"player\",\"type\":\"address\"},{\"indexed\":false,\"internalType\":\"uint8\",\"name\":\"caseId\",\"type\":\"uint8\"},{\"indexed\":false,\"internalType\":\"uint8\",\"name\":\"result\",\"type\":\"uint8\"},{\"indexed\":false,\"internalType\":\"string\",\"name\":\"message\",\"type\":\"string\"}],\"name\":\"CaseCompleted\",\"type\":\"event\"},{\"anonymous\":false,\"inputs\":[{\"indexed\":true,\"internalType\":\"address\",\"name\":\"player\",\"type\":\"address\"},{\"indexed\":false,\"internalType\":\"uint8\",\"name\":\"caseId\",\"type\":\"uint8\"},{\"indexed\":false,\"internalType\":\"uint256\",\"name\":\"seed\",\"type\":\"uint256\"}],\"name\":\"CaseStarted\",\"type\":\"event\"},{\"inputs\":[{\"internalType\":\"uint8\",\"name\":\"caseId\",\"type\":\"uint8\"},{\"internalType\":\"uint8\",\"name\":\"result\",\"type\":\"uint8\"}],\"name\":\"completeCase\",\"outputs\":[],\"stateMutability\":\"nonpayable\",\"type\":\"function\"},{\"inputs\":[{\"internalType\":\"address\",\"name\":\"\",\"type\":\"address\"},{\"internalType\":\"uint8\",\"name\":\"\",\"type\":\"uint8\"}],\"name\":\"playerCases\",\"outputs\":[{\"internalType\":\"uint256\",\"name\":\"seed\",\"type\":\"uint256\"},{\"internalType\":\"uint8\",\"name\":\"result\",\"type\":\"uint8\"},{\"internalType\":\"uint256\",\"name\":\"timestamp\",\"type\":\"uint256\"},{\"internalType\":\"bool\",\"name\":\"completed\",\"type\":\"bool\"}],\"stateMutability\":\"view\",\"type\":\"function\"},{\"inputs\":[{\"internalType\":\"uint8\",\"name\":\"caseId\",\"type\":\"uint8\"}],\"name\":\"startCase\",\"outputs\":[],\"stateMutability\":\"nonpayable\",\"type\":\"function\"}]);\nvar smartcontractdetective = smartcontractdetectiveContract.deploy({\n     data: '0x6080604052348015600e575f5ffd5b50610a988061001c5f395ff3fe608060405234801561000f575f5ffd5b506004361061003f575f3560e01c80632d3c4ab314610043578063421f11c61461005f57806355139e3c14610092575b5f5ffd5b61005d60048036038101906100589190610540565b6100ae565b005b610079600480360381019061007491906105c5565b610294565b6040516100899493929190610644565b60405180910390f35b6100ac60048036038101906100a79190610687565b6102e2565b005b5f5f5f3373ffffffffffffffffffffffffffffffffffffffff1673ffffffffffffffffffffffffffffffffffffffff1681526020019081526020015f205f8360ff1660ff1681526020019081526020015f205f015414610143576040517f08c379a000000000000000000000000000000000000000000000000000000000815260040161013a9061071f565b60405180910390fd5b5f3382424460405160200161015b94939291906107d6565b604051602081830303815290604052805190602001205f1c905060405180608001604052808281526020015f60ff1681526020014281526020015f15158152505f5f3373ffffffffffffffffffffffffffffffffffffffff1673ffffffffffffffffffffffffffffffffffffffff1681526020019081526020015f205f8460ff1660ff1681526020019081526020015f205f820151815f01556020820151816001015f6101000a81548160ff021916908360ff160217905550604082015181600201556060820151816003015f6101000a81548160ff0219169083151502179055509050503373ffffffffffffffffffffffffffffffffffffffff167ff8aed1aacaae899332a8639f68dcb750e33db6b978339ded3b66dfe3790baec88383604051610288929190610823565b60405180910390a25050565b5f602052815f5260405f20602052805f5260405f205f9150915050805f015490806001015f9054906101000a900460ff1690806002015490806003015f9054906101000a900460ff16905084565b5f5f5f3373ffffffffffffffffffffffffffffffffffffffff1673ffffffffffffffffffffffffffffffffffffffff1681526020019081526020015f205f8460ff1660ff1681526020019081526020015f2090505f815f01540361037b576040517f08c379a000000000000000000000000000000000000000000000000000000000815260040161037290610894565b60405180910390fd5b806003015f9054906101000a900460ff16156103cc576040517f08c379a00000000000000000000000000000000000000000000000000000000081526004016103c3906108fc565b60405180910390fd5b81816001015f6101000a81548160ff021916908360ff1602179055504281600201819055506001816003015f6101000a81548160ff021916908315150217905550606060018360ff160361043a576040518060600160405280602d8152602001610a08602d913990506104ae565b60028360ff1603610465576040518060600160405280603081526020016109b76030913990506104ad565b60038360ff1603610490576040518060600160405280602e8152602001610a35602e913990506104ac565b6040518060600160405280602181526020016109e76021913990505b5b5b3373ffffffffffffffffffffffffffffffffffffffff167f2b3c17c2e8b8c593c899afc66b54a63390f29ebfc0d29b420b2fa0bab2453f3b8585846040516104f89392919061097a565b60405180910390a250505050565b5f5ffd5b5f60ff82169050919050565b61051f8161050a565b8114610529575f5ffd5b50565b5f8135905061053a81610516565b92915050565b5f6020828403121561055557610554610506565b5b5f6105628482850161052c565b91505092915050565b5f73ffffffffffffffffffffffffffffffffffffffff82169050919050565b5f6105948261056b565b9050919050565b6105a48161058a565b81146105ae575f5ffd5b50565b5f813590506105bf8161059b565b92915050565b5f5f604083850312156105db576105da610506565b5b5f6105e8858286016105b1565b92505060206105f98582860161052c565b9150509250929050565b5f819050919050565b61061581610603565b82525050565b6106248161050a565b82525050565b5f8115159050919050565b61063e8161062a565b82525050565b5f6080820190506106575f83018761060c565b610664602083018661061b565b610671604083018561060c565b61067e6060830184610635565b95945050505050565b5f5f6040838503121561069d5761069c610506565b5b5f6106aa8582860161052c565b92505060206106bb8582860161052c565b9150509250929050565b5f82825260208201905092915050565b7f416c7265616479207374617274656420746869732063617365000000000000005f82015250565b5f6107096019836106c5565b9150610714826106d5565b602082019050919050565b5f6020820190508181035f830152610736816106fd565b9050919050565b5f8160601b9050919050565b5f6107538261073d565b9050919050565b5f61076482610749565b9050919050565b61077c6107778261058a565b61075a565b82525050565b5f8160f81b9050919050565b5f61079882610782565b9050919050565b6107b06107ab8261050a565b61078e565b82525050565b5f819050919050565b6107d06107cb82610603565b6107b6565b82525050565b5f6107e1828761076b565b6014820191506107f1828661079f565b60018201915061080182856107bf565b60208201915061081182846107bf565b60208201915081905095945050505050565b5f6040820190506108365f83018561061b565b610843602083018461060c565b9392505050565b7f53746172742063617365206669727374000000000000000000000000000000005f82015250565b5f61087e6010836106c5565b91506108898261084a565b602082019050919050565b5f6020820190508181035f8301526108ab81610872565b9050919050565b7f416c726561647920636f6d706c657465640000000000000000000000000000005f82015250565b5f6108e66011836106c5565b91506108f1826108b2565b602082019050919050565b5f6020820190508181035f830152610913816108da565b9050919050565b5f81519050919050565b8281835e5f83830152505050565b5f601f19601f8301169050919050565b5f61094c8261091a565b61095681856106c5565b9350610966818560208601610924565b61096f81610932565b840191505092915050565b5f60608201905061098d5f83018661061b565b61099a602083018561061b565b81810360408301526109ac8184610942565b905094935050505056fe596f7520666f756e6420636c75657320627574206661696c656420746f207265636f766572207468652066756e64732e4361736520636c6f736564207769746820756e6b6e6f776e206f7574636f6d652e596f7520736f6c76656420746865206361736520616e64206578706f736564207468652061747461636b65722e596f752061636375736564207468652077726f6e672077616c6c65742e204361736520756e7265736f6c7665642ea2646970667358221220538b0a9dda8dfdba24ce67be3b9d8010fb75b97e9bb80291bca5f175f988e83c64736f6c634300081e0033', \n     arguments: [\n     ]\n}).send({\n     from: web3.eth.accounts[0], \n     gas: '4700000'\n   }, function (e, contract){\n    console.log(e, contract);\n    if (typeof contract.address !== 'undefined') {\n         console.log('Contract mined! address: ' + contract.address + ' transactionHash: ' + contract.transactionHash);\n    }\n })",
	"functionHashes": {
		"55139e3c": "completeCase(uint8,uint8)",
		"421f11c6": "playerCases(address,uint8)",
		"2d3c4ab3": "startCase(uint8)"
	},
	"gasEstimates": {
		"Creation": {
			"codeDepositCost": "542400",
			"executionCost": "573",
			"totalCost": "542973"
		},
		"External": {
			"completeCase(uint8,uint8)": "infinite",
			"playerCases(address,uint8)": "infinite",
			"startCase(uint8)": "infinite"
		}
	},
	"devdoc": {
		"kind": "dev",
		"methods": {},
		"version": 1
	},
	"userdoc": {
		"kind": "user",
		"methods": {},
		"version": 1
	},
	"Runtime Bytecode": {
		"immutableReferences": {},
		"linkReferences": {},
		"object": "608060405234801561000f575f5ffd5b506004361061003f575f3560e01c80632d3c4ab314610043578063421f11c61461005f57806355139e3c14610092575b5f5ffd5b61005d60048036038101906100589190610540565b6100ae565b005b610079600480360381019061007491906105c5565b610294565b6040516100899493929190610644565b60405180910390f35b6100ac60048036038101906100a79190610687565b6102e2565b005b5f5f5f3373ffffffffffffffffffffffffffffffffffffffff1673ffffffffffffffffffffffffffffffffffffffff1681526020019081526020015f205f8360ff1660ff1681526020019081526020015f205f015414610143576040517f08c379a000000000000000000000000000000000000000000000000000000000815260040161013a9061071f565b60405180910390fd5b5f3382424460405160200161015b94939291906107d6565b604051602081830303815290604052805190602001205f1c905060405180608001604052808281526020015f60ff1681526020014281526020015f15158152505f5f3373ffffffffffffffffffffffffffffffffffffffff1673ffffffffffffffffffffffffffffffffffffffff1681526020019081526020015f205f8460ff1660ff1681526020019081526020015f205f820151815f01556020820151816001015f6101000a81548160ff021916908360ff160217905550604082015181600201556060820151816003015f6101000a81548160ff0219169083151502179055509050503373ffffffffffffffffffffffffffffffffffffffff167ff8aed1aacaae899332a8639f68dcb750e33db6b978339ded3b66dfe3790baec88383604051610288929190610823565b60405180910390a25050565b5f602052815f5260405f20602052805f5260405f205f9150915050805f015490806001015f9054906101000a900460ff1690806002015490806003015f9054906101000a900460ff16905084565b5f5f5f3373ffffffffffffffffffffffffffffffffffffffff1673ffffffffffffffffffffffffffffffffffffffff1681526020019081526020015f205f8460ff1660ff1681526020019081526020015f2090505f815f01540361037b576040517f08c379a000000000000000000000000000000000000000000000000000000000815260040161037290610894565b60405180910390fd5b806003015f9054906101000a900460ff16156103cc576040517f08c379a00000000000000000000000000000000000000000000000000000000081526004016103c3906108fc565b60405180910390fd5b81816001015f6101000a81548160ff021916908360ff1602179055504281600201819055506001816003015f6101000a81548160ff021916908315150217905550606060018360ff160361043a576040518060600160405280602d8152602001610a08602d913990506104ae565b60028360ff1603610465576040518060600160405280603081526020016109b76030913990506104ad565b60038360ff1603610490576040518060600160405280602e8152602001610a35602e913990506104ac565b6040518060600160405280602181526020016109e76021913990505b5b5b3373ffffffffffffffffffffffffffffffffffffffff167f2b3c17c2e8b8c593c899afc66b54a63390f29ebfc0d29b420b2fa0bab2453f3b8585846040516104f89392919061097a565b60405180910390a250505050565b5f5ffd5b5f60ff82169050919050565b61051f8161050a565b8114610529575f5ffd5b50565b5f8135905061053a81610516565b92915050565b5f6020828403121561055557610554610506565b5b5f6105628482850161052c565b91505092915050565b5f73ffffffffffffffffffffffffffffffffffffffff82169050919050565b5f6105948261056b565b9050919050565b6105a48161058a565b81146105ae575f5ffd5b50565b5f813590506105bf8161059b565b92915050565b5f5f604083850312156105db576105da610506565b5b5f6105e8858286016105b1565b92505060206105f98582860161052c565b9150509250929050565b5f819050919050565b61061581610603565b82525050565b6106248161050a565b82525050565b5f8115159050919050565b61063e8161062a565b82525050565b5f6080820190506106575f83018761060c565b610664602083018661061b565b610671604083018561060c565b61067e6060830184610635565b95945050505050565b5f5f6040838503121561069d5761069c610506565b5b5f6106aa8582860161052c565b92505060206106bb8582860161052c565b9150509250929050565b5f82825260208201905092915050565b7f416c7265616479207374617274656420746869732063617365000000000000005f82015250565b5f6107096019836106c5565b9150610714826106d5565b602082019050919050565b5f6020820190508181035f830152610736816106fd565b9050919050565b5f8160601b9050919050565b5f6107538261073d565b9050919050565b5f61076482610749565b9050919050565b61077c6107778261058a565b61075a565b82525050565b5f8160f81b9050919050565b5f61079882610782565b9050919050565b6107b06107ab8261050a565b61078e565b82525050565b5f819050919050565b6107d06107cb82610603565b6107b6565b82525050565b5f6107e1828761076b565b6014820191506107f1828661079f565b60018201915061080182856107bf565b60208201915061081182846107bf565b60208201915081905095945050505050565b5f6040820190506108365f83018561061b565b610843602083018461060c565b9392505050565b7f53746172742063617365206669727374000000000000000000000000000000005f82015250565b5f61087e6010836106c5565b91506108898261084a565b602082019050919050565b5f6020820190508181035f8301526108ab81610872565b9050919050565b7f416c726561647920636f6d706c657465640000000000000000000000000000005f82015250565b5f6108e66011836106c5565b91506108f1826108b2565b602082019050919050565b5f6020820190508181035f830152610913816108da565b9050919050565b5f81519050919050565b8281835e5f83830152505050565b5f601f19601f8301169050919050565b5f61094c8261091a565b61095681856106c5565b9350610966818560208601610924565b61096f81610932565b840191505092915050565b5f60608201905061098d5f83018661061b565b61099a602083018561061b565b81810360408301526109ac8184610942565b905094935050505056fe596f7520666f756e6420636c75657320627574206661696c656420746f207265636f766572207468652066756e64732e4361736520636c6f736564207769746820756e6b6e6f776e206f7574636f6d652e596f7520736f6c76656420746865206361736520616e64206578706f736564207468652061747461636b65722e596f752061636375736564207468652077726f6e672077616c6c65742e204361736520756e7265736f6c7665642ea2646970667358221220538b0a9dda8dfdba24ce67be3b9d8010fb75b97e9bb80291bca5f175f988e83c64736f6c634300081e0033",
		"opcodes": "PUSH1 0x80 PUSH1 0x40 MSTORE CALLVALUE DUP1 ISZERO PUSH2 0xF JUMPI PUSH0 PUSH0 REVERT JUMPDEST POP PUSH1 0x4 CALLDATASIZE LT PUSH2 0x3F JUMPI PUSH0 CALLDATALOAD PUSH1 0xE0 SHR DUP1 PUSH4 0x2D3C4AB3 EQ PUSH2 0x43 JUMPI DUP1 PUSH4 0x421F11C6 EQ PUSH2 0x5F JUMPI DUP1 PUSH4 0x55139E3C EQ PUSH2 0x92 JUMPI JUMPDEST PUSH0 PUSH0 REVERT JUMPDEST PUSH2 0x5D PUSH1 0x4 DUP1 CALLDATASIZE SUB DUP2 ADD SWAP1 PUSH2 0x58 SWAP2 SWAP1 PUSH2 0x540 JUMP JUMPDEST PUSH2 0xAE JUMP JUMPDEST STOP JUMPDEST PUSH2 0x79 PUSH1 0x4 DUP1 CALLDATASIZE SUB DUP2 ADD SWAP1 PUSH2 0x74 SWAP2 SWAP1 PUSH2 0x5C5 JUMP JUMPDEST PUSH2 0x294 JUMP JUMPDEST PUSH1 0x40 MLOAD PUSH2 0x89 SWAP5 SWAP4 SWAP3 SWAP2 SWAP1 PUSH2 0x644 JUMP JUMPDEST PUSH1 0x40 MLOAD DUP1 SWAP2 SUB SWAP1 RETURN JUMPDEST PUSH2 0xAC PUSH1 0x4 DUP1 CALLDATASIZE SUB DUP2 ADD SWAP1 PUSH2 0xA7 SWAP2 SWAP1 PUSH2 0x687 JUMP JUMPDEST PUSH2 0x2E2 JUMP JUMPDEST STOP JUMPDEST PUSH0 PUSH0 PUSH0 CALLER PUSH20 0xFFFFFFFFFFFFFFFFFFFFFFFFFFFFFFFFFFFFFFFF AND PUSH20 0xFFFFFFFFFFFFFFFFFFFFFFFFFFFFFFFFFFFFFFFF AND DUP2 MSTORE PUSH1 0x20 ADD SWAP1 DUP2 MSTORE PUSH1 0x20 ADD PUSH0 KECCAK256 PUSH0 DUP4 PUSH1 0xFF AND PUSH1 0xFF AND DUP2 MSTORE PUSH1 0x20 ADD SWAP1 DUP2 MSTORE PUSH1 0x20 ADD PUSH0 KECCAK256 PUSH0 ADD SLOAD EQ PUSH2 0x143 JUMPI PUSH1 0x40 MLOAD PUSH32 0x8C379A000000000000000000000000000000000000000000000000000000000 DUP2 MSTORE PUSH1 0x4 ADD PUSH2 0x13A SWAP1 PUSH2 0x71F JUMP JUMPDEST PUSH1 0x40 MLOAD DUP1 SWAP2 SUB SWAP1 REVERT JUMPDEST PUSH0 CALLER DUP3 TIMESTAMP PREVRANDAO PUSH1 0x40 MLOAD PUSH1 0x20 ADD PUSH2 0x15B SWAP5 SWAP4 SWAP3 SWAP2 SWAP1 PUSH2 0x7D6 JUMP JUMPDEST PUSH1 0x40 MLOAD PUSH1 0x20 DUP2 DUP4 SUB SUB DUP2 MSTORE SWAP1 PUSH1 0x40 MSTORE DUP1 MLOAD SWAP1 PUSH1 0x20 ADD KECCAK256 PUSH0 SHR SWAP1 POP PUSH1 0x40 MLOAD DUP1 PUSH1 0x80 ADD PUSH1 0x40 MSTORE DUP1 DUP3 DUP2 MSTORE PUSH1 0x20 ADD PUSH0 PUSH1 0xFF AND DUP2 MSTORE PUSH1 0x20 ADD TIMESTAMP DUP2 MSTORE PUSH1 0x20 ADD PUSH0 ISZERO ISZERO DUP2 MSTORE POP PUSH0 PUSH0 CALLER PUSH20 0xFFFFFFFFFFFFFFFFFFFFFFFFFFFFFFFFFFFFFFFF AND PUSH20 0xFFFFFFFFFFFFFFFFFFFFFFFFFFFFFFFFFFFFFFFF AND DUP2 MSTORE PUSH1 0x20 ADD SWAP1 DUP2 MSTORE PUSH1 0x20 ADD PUSH0 KECCAK256 PUSH0 DUP5 PUSH1 0xFF AND PUSH1 0xFF AND DUP2 MSTORE PUSH1 0x20 ADD SWAP1 DUP2 MSTORE PUSH1 0x20 ADD PUSH0 KECCAK256 PUSH0 DUP3 ADD MLOAD DUP2 PUSH0 ADD SSTORE PUSH1 0x20 DUP3 ADD MLOAD DUP2 PUSH1 0x1 ADD PUSH0 PUSH2 0x100 EXP DUP2 SLOAD DUP2 PUSH1 0xFF MUL NOT AND SWAP1 DUP4 PUSH1 0xFF AND MUL OR SWAP1 SSTORE POP PUSH1 0x40 DUP3 ADD MLOAD DUP2 PUSH1 0x2 ADD SSTORE PUSH1 0x60 DUP3 ADD MLOAD DUP2 PUSH1 0x3 ADD PUSH0 PUSH2 0x100 EXP DUP2 SLOAD DUP2 PUSH1 0xFF MUL NOT AND SWAP1 DUP4 ISZERO ISZERO MUL OR SWAP1 SSTORE POP SWAP1 POP POP CALLER PUSH20 0xFFFFFFFFFFFFFFFFFFFFFFFFFFFFFFFFFFFFFFFF AND PUSH32 0xF8AED1AACAAE899332A8639F68DCB750E33DB6B978339DED3B66DFE3790BAEC8 DUP4 DUP4 PUSH1 0x40 MLOAD PUSH2 0x288 SWAP3 SWAP2 SWAP1 PUSH2 0x823 JUMP JUMPDEST PUSH1 0x40 MLOAD DUP1 SWAP2 SUB SWAP1 LOG2 POP POP JUMP JUMPDEST PUSH0 PUSH1 0x20 MSTORE DUP2 PUSH0 MSTORE PUSH1 0x40 PUSH0 KECCAK256 PUSH1 0x20 MSTORE DUP1 PUSH0 MSTORE PUSH1 0x40 PUSH0 KECCAK256 PUSH0 SWAP2 POP SWAP2 POP POP DUP1 PUSH0 ADD SLOAD SWAP1 DUP1 PUSH1 0x1 ADD PUSH0 SWAP1 SLOAD SWAP1 PUSH2 0x100 EXP SWAP1 DIV PUSH1 0xFF AND SWAP1 DUP1 PUSH1 0x2 ADD SLOAD SWAP1 DUP1 PUSH1 0x3 ADD PUSH0 SWAP1 SLOAD SWAP1 PUSH2 0x100 EXP SWAP1 DIV PUSH1 0xFF AND SWAP1 POP DUP5 JUMP JUMPDEST PUSH0 PUSH0 PUSH0 CALLER PUSH20 0xFFFFFFFFFFFFFFFFFFFFFFFFFFFFFFFFFFFFFFFF AND PUSH20 0xFFFFFFFFFFFFFFFFFFFFFFFFFFFFFFFFFFFFFFFF AND DUP2 MSTORE PUSH1 0x20 ADD SWAP1 DUP2 MSTORE PUSH1 0x20 ADD PUSH0 KECCAK256 PUSH0 DUP5 PUSH1 0xFF AND PUSH1 0xFF AND DUP2 MSTORE PUSH1 0x20 ADD SWAP1 DUP2 MSTORE PUSH1 0x20 ADD PUSH0 KECCAK256 SWAP1 POP PUSH0 DUP2 PUSH0 ADD SLOAD SUB PUSH2 0x37B JUMPI PUSH1 0x40 MLOAD PUSH32 0x8C379A000000000000000000000000000000000000000000000000000000000 DUP2 MSTORE PUSH1 0x4 ADD PUSH2 0x372 SWAP1 PUSH2 0x894 JUMP JUMPDEST PUSH1 0x40 MLOAD DUP1 SWAP2 SUB SWAP1 REVERT JUMPDEST DUP1 PUSH1 0x3 ADD PUSH0 SWAP1 SLOAD SWAP1 PUSH2 0x100 EXP SWAP1 DIV PUSH1 0xFF AND ISZERO PUSH2 0x3CC JUMPI PUSH1 0x40 MLOAD PUSH32 0x8C379A000000000000000000000000000000000000000000000000000000000 DUP2 MSTORE PUSH1 0x4 ADD PUSH2 0x3C3 SWAP1 PUSH2 0x8FC JUMP JUMPDEST PUSH1 0x40 MLOAD DUP1 SWAP2 SUB SWAP1 REVERT JUMPDEST DUP2 DUP2 PUSH1 0x1 ADD PUSH0 PUSH2 0x100 EXP DUP2 SLOAD DUP2 PUSH1 0xFF MUL NOT AND SWAP1 DUP4 PUSH1 0xFF AND MUL OR SWAP1 SSTORE POP TIMESTAMP DUP2 PUSH1 0x2 ADD DUP2 SWAP1 SSTORE POP PUSH1 0x1 DUP2 PUSH1 0x3 ADD PUSH0 PUSH2 0x100 EXP DUP2 SLOAD DUP2 PUSH1 0xFF MUL NOT AND SWAP1 DUP4 ISZERO ISZERO MUL OR SWAP1 SSTORE POP PUSH1 0x60 PUSH1 0x1 DUP4 PUSH1 0xFF AND SUB PUSH2 0x43A JUMPI PUSH1 0x40 MLOAD DUP1 PUSH1 0x60 ADD PUSH1 0x40 MSTORE DUP1 PUSH1 0x2D DUP2 MSTORE PUSH1 0x20 ADD PUSH2 0xA08 PUSH1 0x2D SWAP2 CODECOPY SWAP1 POP PUSH2 0x4AE JUMP JUMPDEST PUSH1 0x2 DUP4 PUSH1 0xFF AND SUB PUSH2 0x465 JUMPI PUSH1 0x40 MLOAD DUP1 PUSH1 0x60 ADD PUSH1 0x40 MSTORE DUP1 PUSH1 0x30 DUP2 MSTORE PUSH1 0x20 ADD PUSH2 0x9B7 PUSH1 0x30 SWAP2 CODECOPY SWAP1 POP PUSH2 0x4AD JUMP JUMPDEST PUSH1 0x3 DUP4 PUSH1 0xFF AND SUB PUSH2 0x490 JUMPI PUSH1 0x40 MLOAD DUP1 PUSH1 0x60 ADD PUSH1 0x40 MSTORE DUP1 PUSH1 0x2E DUP2 MSTORE PUSH1 0x20 ADD PUSH2 0xA35 PUSH1 0x2E SWAP2 CODECOPY SWAP1 POP PUSH2 0x4AC JUMP JUMPDEST PUSH1 0x40 MLOAD DUP1 PUSH1 0x60 ADD PUSH1 0x40 MSTORE DUP1 PUSH1 0x21 DUP2 MSTORE PUSH1 0x20 ADD PUSH2 0x9E7 PUSH1 0x21 SWAP2 CODECOPY SWAP1 POP JUMPDEST JUMPDEST JUMPDEST CALLER PUSH20 0xFFFFFFFFFFFFFFFFFFFFFFFFFFFFFFFFFFFFFFFF AND PUSH32 0x2B3C17C2E8B8C593C899AFC66B54A63390F29EBFC0D29B420B2FA0BAB2453F3B DUP6 DUP6 DUP5 PUSH1 0x40 MLOAD PUSH2 0x4F8 SWAP4 SWAP3 SWAP2 SWAP1 PUSH2 0x97A JUMP JUMPDEST PUSH1 0x40 MLOAD DUP1 SWAP2 SUB SWAP1 LOG2 POP POP POP POP JUMP JUMPDEST PUSH0 PUSH0 REVERT JUMPDEST PUSH0 PUSH1 0xFF DUP3 AND SWAP1 POP SWAP2 SWAP1 POP JUMP JUMPDEST PUSH2 0x51F DUP2 PUSH2 0x50A JUMP JUMPDEST DUP2 EQ PUSH2 0x529 JUMPI PUSH0 PUSH0 REVERT JUMPDEST POP JUMP JUMPDEST PUSH0 DUP2 CALLDATALOAD SWAP1 POP PUSH2 0x53A DUP2 PUSH2 0x516 JUMP JUMPDEST SWAP3 SWAP2 POP POP JUMP JUMPDEST PUSH0 PUSH1 0x20 DUP3 DUP5 SUB SLT ISZERO PUSH2 0x555 JUMPI PUSH2 0x554 PUSH2 0x506 JUMP JUMPDEST JUMPDEST PUSH0 PUSH2 0x562 DUP5 DUP3 DUP6 ADD PUSH2 0x52C JUMP JUMPDEST SWAP2 POP POP SWAP3 SWAP2 POP POP JUMP JUMPDEST PUSH0 PUSH20 0xFFFFFFFFFFFFFFFFFFFFFFFFFFFFFFFFFFFFFFFF DUP3 AND SWAP1 POP SWAP2 SWAP1 POP JUMP JUMPDEST PUSH0 PUSH2 0x594 DUP3 PUSH2 0x56B JUMP JUMPDEST SWAP1 POP SWAP2 SWAP1 POP JUMP JUMPDEST PUSH2 0x5A4 DUP2 PUSH2 0x58A JUMP JUMPDEST DUP2 EQ PUSH2 0x5AE JUMPI PUSH0 PUSH0 REVERT JUMPDEST POP JUMP JUMPDEST PUSH0 DUP2 CALLDATALOAD SWAP1 POP PUSH2 0x5BF DUP2 PUSH2 0x59B JUMP JUMPDEST SWAP3 SWAP2 POP POP JUMP JUMPDEST PUSH0 PUSH0 PUSH1 0x40 DUP4 DUP6 SUB SLT ISZERO PUSH2 0x5DB JUMPI PUSH2 0x5DA PUSH2 0x506 JUMP JUMPDEST JUMPDEST PUSH0 PUSH2 0x5E8 DUP6 DUP3 DUP7 ADD PUSH2 0x5B1 JUMP JUMPDEST SWAP3 POP POP PUSH1 0x20 PUSH2 0x5F9 DUP6 DUP3 DUP7 ADD PUSH2 0x52C JUMP JUMPDEST SWAP2 POP POP SWAP3 POP SWAP3 SWAP1 POP JUMP JUMPDEST PUSH0 DUP2 SWAP1 POP SWAP2 SWAP1 POP JUMP JUMPDEST PUSH2 0x615 DUP2 PUSH2 0x603 JUMP JUMPDEST DUP3 MSTORE POP POP JUMP JUMPDEST PUSH2 0x624 DUP2 PUSH2 0x50A JUMP JUMPDEST DUP3 MSTORE POP POP JUMP JUMPDEST PUSH0 DUP2 ISZERO ISZERO SWAP1 POP SWAP2 SWAP1 POP JUMP JUMPDEST PUSH2 0x63E DUP2 PUSH2 0x62A JUMP JUMPDEST DUP3 MSTORE POP POP JUMP JUMPDEST PUSH0 PUSH1 0x80 DUP3 ADD SWAP1 POP PUSH2 0x657 PUSH0 DUP4 ADD DUP8 PUSH2 0x60C JUMP JUMPDEST PUSH2 0x664 PUSH1 0x20 DUP4 ADD DUP7 PUSH2 0x61B JUMP JUMPDEST PUSH2 0x671 PUSH1 0x40 DUP4 ADD DUP6 PUSH2 0x60C JUMP JUMPDEST PUSH2 0x67E PUSH1 0x60 DUP4 ADD DUP5 PUSH2 0x635 JUMP JUMPDEST SWAP6 SWAP5 POP POP POP POP POP JUMP JUMPDEST PUSH0 PUSH0 PUSH1 0x40 DUP4 DUP6 SUB SLT ISZERO PUSH2 0x69D JUMPI PUSH2 0x69C PUSH2 0x506 JUMP JUMPDEST JUMPDEST PUSH0 PUSH2 0x6AA DUP6 DUP3 DUP7 ADD PUSH2 0x52C JUMP JUMPDEST SWAP3 POP POP PUSH1 0x20 PUSH2 0x6BB DUP6 DUP3 DUP7 ADD PUSH2 0x52C JUMP JUMPDEST SWAP2 POP POP SWAP3 POP SWAP3 SWAP1 POP JUMP JUMPDEST PUSH0 DUP3 DUP3 MSTORE PUSH1 0x20 DUP3 ADD SWAP1 POP SWAP3 SWAP2 POP POP JUMP JUMPDEST PUSH32 0x416C726561647920737461727465642074686973206361736500000000000000 PUSH0 DUP3 ADD MSTORE POP JUMP JUMPDEST PUSH0 PUSH2 0x709 PUSH1 0x19 DUP4 PUSH2 0x6C5 JUMP JUMPDEST SWAP2 POP PUSH2 0x714 DUP3 PUSH2 0x6D5 JUMP JUMPDEST PUSH1 0x20 DUP3 ADD SWAP1 POP SWAP2 SWAP1 POP JUMP JUMPDEST PUSH0 PUSH1 0x20 DUP3 ADD SWAP1 POP DUP2 DUP2 SUB PUSH0 DUP4 ADD MSTORE PUSH2 0x736 DUP2 PUSH2 0x6FD JUMP JUMPDEST SWAP1 POP SWAP2 SWAP1 POP JUMP JUMPDEST PUSH0 DUP2 PUSH1 0x60 SHL SWAP1 POP SWAP2 SWAP1 POP JUMP JUMPDEST PUSH0 PUSH2 0x753 DUP3 PUSH2 0x73D JUMP JUMPDEST SWAP1 POP SWAP2 SWAP1 POP JUMP JUMPDEST PUSH0 PUSH2 0x764 DUP3 PUSH2 0x749 JUMP JUMPDEST SWAP1 POP SWAP2 SWAP1 POP JUMP JUMPDEST PUSH2 0x77C PUSH2 0x777 DUP3 PUSH2 0x58A JUMP JUMPDEST PUSH2 0x75A JUMP JUMPDEST DUP3 MSTORE POP POP JUMP JUMPDEST PUSH0 DUP2 PUSH1 0xF8 SHL SWAP1 POP SWAP2 SWAP1 POP JUMP JUMPDEST PUSH0 PUSH2 0x798 DUP3 PUSH2 0x782 JUMP JUMPDEST SWAP1 POP SWAP2 SWAP1 POP JUMP JUMPDEST PUSH2 0x7B0 PUSH2 0x7AB DUP3 PUSH2 0x50A JUMP JUMPDEST PUSH2 0x78E JUMP JUMPDEST DUP3 MSTORE POP POP JUMP JUMPDEST PUSH0 DUP2 SWAP1 POP SWAP2 SWAP1 POP JUMP JUMPDEST PUSH2 0x7D0 PUSH2 0x7CB DUP3 PUSH2 0x603 JUMP JUMPDEST PUSH2 0x7B6 JUMP JUMPDEST DUP3 MSTORE POP POP JUMP JUMPDEST PUSH0 PUSH2 0x7E1 DUP3 DUP8 PUSH2 0x76B JUMP JUMPDEST PUSH1 0x14 DUP3 ADD SWAP2 POP PUSH2 0x7F1 DUP3 DUP7 PUSH2 0x79F JUMP JUMPDEST PUSH1 0x1 DUP3 ADD SWAP2 POP PUSH2 0x801 DUP3 DUP6 PUSH2 0x7BF JUMP JUMPDEST PUSH1 0x20 DUP3 ADD SWAP2 POP PUSH2 0x811 DUP3 DUP5 PUSH2 0x7BF JUMP JUMPDEST PUSH1 0x20 DUP3 ADD SWAP2 POP DUP2 SWAP1 POP SWAP6 SWAP5 POP POP POP POP POP JUMP JUMPDEST PUSH0 PUSH1 0x40 DUP3 ADD SWAP1 POP PUSH2 0x836 PUSH0 DUP4 ADD DUP6 PUSH2 0x61B JUMP JUMPDEST PUSH2 0x843 PUSH1 0x20 DUP4 ADD DUP5 PUSH2 0x60C JUMP JUMPDEST SWAP4 SWAP3 POP POP POP JUMP JUMPDEST PUSH32 0x5374617274206361736520666972737400000000000000000000000000000000 PUSH0 DUP3 ADD MSTORE POP JUMP JUMPDEST PUSH0 PUSH2 0x87E PUSH1 0x10 DUP4 PUSH2 0x6C5 JUMP JUMPDEST SWAP2 POP PUSH2 0x889 DUP3 PUSH2 0x84A JUMP JUMPDEST PUSH1 0x20 DUP3 ADD SWAP1 POP SWAP2 SWAP1 POP JUMP JUMPDEST PUSH0 PUSH1 0x20 DUP3 ADD SWAP1 POP DUP2 DUP2 SUB PUSH0 DUP4 ADD MSTORE PUSH2 0x8AB DUP2 PUSH2 0x872 JUMP JUMPDEST SWAP1 POP SWAP2 SWAP1 POP JUMP JUMPDEST PUSH32 0x416C726561647920636F6D706C65746564000000000000000000000000000000 PUSH0 DUP3 ADD MSTORE POP JUMP JUMPDEST PUSH0 PUSH2 0x8E6 PUSH1 0x11 DUP4 PUSH2 0x6C5 JUMP JUMPDEST SWAP2 POP PUSH2 0x8F1 DUP3 PUSH2 0x8B2 JUMP JUMPDEST PUSH1 0x20 DUP3 ADD SWAP1 POP SWAP2 SWAP1 POP JUMP JUMPDEST PUSH0 PUSH1 0x20 DUP3 ADD SWAP1 POP DUP2 DUP2 SUB PUSH0 DUP4 ADD MSTORE PUSH2 0x913 DUP2 PUSH2 0x8DA JUMP JUMPDEST SWAP1 POP SWAP2 SWAP1 POP JUMP JUMPDEST PUSH0 DUP2 MLOAD SWAP1 POP SWAP2 SWAP1 POP JUMP JUMPDEST DUP3 DUP2 DUP4 MCOPY PUSH0 DUP4 DUP4 ADD MSTORE POP POP POP JUMP JUMPDEST PUSH0 PUSH1 0x1F NOT PUSH1 0x1F DUP4 ADD AND SWAP1 POP SWAP2 SWAP1 POP JUMP JUMPDEST PUSH0 PUSH2 0x94C DUP3 PUSH2 0x91A JUMP JUMPDEST PUSH2 0x956 DUP2 DUP6 PUSH2 0x6C5 JUMP JUMPDEST SWAP4 POP PUSH2 0x966 DUP2 DUP6 PUSH1 0x20 DUP7 ADD PUSH2 0x924 JUMP JUMPDEST PUSH2 0x96F DUP2 PUSH2 0x932 JUMP JUMPDEST DUP5 ADD SWAP2 POP POP SWAP3 SWAP2 POP POP JUMP JUMPDEST PUSH0 PUSH1 0x60 DUP3 ADD SWAP1 POP PUSH2 0x98D PUSH0 DUP4 ADD DUP7 PUSH2 0x61B JUMP JUMPDEST PUSH2 0x99A PUSH1 0x20 DUP4 ADD DUP6 PUSH2 0x61B JUMP JUMPDEST DUP2 DUP2 SUB PUSH1 0x40 DUP4 ADD MSTORE PUSH2 0x9AC DUP2 DUP5 PUSH2 0x942 JUMP JUMPDEST SWAP1 POP SWAP5 SWAP4 POP POP POP POP JUMP INVALID MSIZE PUSH16 0x7520666F756E6420636C756573206275 PUSH21 0x206661696C656420746F207265636F766572207468 PUSH6 0x2066756E6473 0x2E NUMBER PUSH2 0x7365 KECCAK256 PUSH4 0x6C6F7365 PUSH5 0x2077697468 KECCAK256 PUSH22 0x6E6B6E6F776E206F7574636F6D652E596F7520736F6C PUSH23 0x656420746865206361736520616E64206578706F736564 KECCAK256 PUSH21 0x68652061747461636B65722E596F75206163637573 PUSH6 0x642074686520 PUSH24 0x726F6E672077616C6C65742E204361736520756E7265736F PUSH13 0x7665642EA26469706673582212 KECCAK256 MSTORE8 DUP12 EXP SWAP14 0xDA DUP14 REVERT 0xBA 0x24 0xCE PUSH8 0xBE3B9D8010FB75B9 PUSH31 0x9BB80291BCA5F175F988E83C64736F6C634300081E00330000000000000000 "
	},
	"Assembly": ".code\n  PUSH 80\t\t\tcontract SmartContractDetectiv...\n  PUSH 40\t\t\tcontract SmartContractDetectiv...\n  MSTORE \t\t\tcontract SmartContractDetectiv...\n  CALLVALUE \t\t\tcontract SmartContractDetectiv...\n  DUP1 \t\t\tcontract SmartContractDetectiv...\n  ISZERO \t\t\tcontract SmartContractDetectiv...\n  PUSH [tag] 1\t\t\tcontract SmartContractDetectiv...\n  JUMPI \t\t\tcontract SmartContractDetectiv...\n  PUSH 0\t\t\tcontract SmartContractDetectiv...\n  PUSH 0\t\t\tcontract SmartContractDetectiv...\n  REVERT \t\t\tcontract SmartContractDetectiv...\ntag 1\t\t\tcontract SmartContractDetectiv...\n  JUMPDEST \t\t\tcontract SmartContractDetectiv...\n  POP \t\t\tcontract SmartContractDetectiv...\n  PUSH #[$] 0000000000000000000000000000000000000000000000000000000000000000\t\t\tcontract SmartContractDetectiv...\n  DUP1 \t\t\tcontract SmartContractDetectiv...\n  PUSH [$] 0000000000000000000000000000000000000000000000000000000000000000\t\t\tcontract SmartContractDetectiv...\n  PUSH 0\t\t\tcontract SmartContractDetectiv...\n  CODECOPY \t\t\tcontract SmartContractDetectiv...\n  PUSH 0\t\t\tcontract SmartContractDetectiv...\n  RETURN \t\t\tcontract SmartContractDetectiv...\n.data\n  0:\n    .code\n      PUSH 80\t\t\tcontract SmartContractDetectiv...\n      PUSH 40\t\t\tcontract SmartContractDetectiv...\n      MSTORE \t\t\tcontract SmartContractDetectiv...\n      CALLVALUE \t\t\tcontract SmartContractDetectiv...\n      DUP1 \t\t\tcontract SmartContractDetectiv...\n      ISZERO \t\t\tcontract SmartContractDetectiv...\n      PUSH [tag] 1\t\t\tcontract SmartContractDetectiv...\n      JUMPI \t\t\tcontract SmartContractDetectiv...\n      PUSH 0\t\t\tcontract SmartContractDetectiv...\n      PUSH 0\t\t\tcontract SmartContractDetectiv...\n      REVERT \t\t\tcontract SmartContractDetectiv...\n    tag 1\t\t\tcontract SmartContractDetectiv...\n      JUMPDEST \t\t\tcontract SmartContractDetectiv...\n      POP \t\t\tcontract SmartContractDetectiv...\n      PUSH 4\t\t\tcontract SmartContractDetectiv...\n      CALLDATASIZE \t\t\tcontract SmartContractDetectiv...\n      LT \t\t\tcontract SmartContractDetectiv...\n      PUSH [tag] 2\t\t\tcontract SmartContractDetectiv...\n      JUMPI \t\t\tcontract SmartContractDetectiv...\n      PUSH 0\t\t\tcontract SmartContractDetectiv...\n      CALLDATALOAD \t\t\tcontract SmartContractDetectiv...\n      PUSH E0\t\t\tcontract SmartContractDetectiv...\n      SHR \t\t\tcontract SmartContractDetectiv...\n      DUP1 \t\t\tcontract SmartContractDetectiv...\n      PUSH 2D3C4AB3\t\t\tcontract SmartContractDetectiv...\n      EQ \t\t\tcontract SmartContractDetectiv...\n      PUSH [tag] 3\t\t\tcontract SmartContractDetectiv...\n      JUMPI \t\t\tcontract SmartContractDetectiv...\n      DUP1 \t\t\tcontract SmartContractDetectiv...\n      PUSH 421F11C6\t\t\tcontract SmartContractDetectiv...\n      EQ \t\t\tcontract SmartContractDetectiv...\n      PUSH [tag] 4\t\t\tcontract SmartContractDetectiv...\n      JUMPI \t\t\tcontract SmartContractDetectiv...\n      DUP1 \t\t\tcontract SmartContractDetectiv...\n      PUSH 55139E3C\t\t\tcontract SmartContractDetectiv...\n      EQ \t\t\tcontract SmartContractDetectiv...\n      PUSH [tag] 5\t\t\tcontract SmartContractDetectiv...\n      JUMPI \t\t\tcontract SmartContractDetectiv...\n    tag 2\t\t\tcontract SmartContractDetectiv...\n      JUMPDEST \t\t\tcontract SmartContractDetectiv...\n      PUSH 0\t\t\tcontract SmartContractDetectiv...\n      PUSH 0\t\t\tcontract SmartContractDetectiv...\n      REVERT \t\t\tcontract SmartContractDetectiv...\n    tag 3\t\t\tfunction startCase(uint8 caseI...\n      JUMPDEST \t\t\tfunction startCase(uint8 caseI...\n      PUSH [tag] 6\t\t\tfunction startCase(uint8 caseI...\n      PUSH 4\t\t\tfunction startCase(uint8 caseI...\n      DUP1 \t\t\tfunction startCase(uint8 caseI...\n      CALLDATASIZE \t\t\tfunction startCase(uint8 caseI...\n      SUB \t\t\tfunction startCase(uint8 caseI...\n      DUP2 \t\t\tfunction startCase(uint8 caseI...\n      ADD \t\t\tfunction startCase(uint8 caseI...\n      SWAP1 \t\t\tfunction startCase(uint8 caseI...\n      PUSH [tag] 7\t\t\tfunction startCase(uint8 caseI...\n      SWAP2 \t\t\tfunction startCase(uint8 caseI...\n      SWAP1 \t\t\tfunction startCase(uint8 caseI...\n      PUSH [tag] 8\t\t\tfunction startCase(uint8 caseI...\n      JUMP \t\t\tfunction startCase(uint8 caseI...\n    tag 7\t\t\tfunction startCase(uint8 caseI...\n      JUMPDEST \t\t\tfunction startCase(uint8 caseI...\n      PUSH [tag] 9\t\t\tfunction startCase(uint8 caseI...\n      JUMP \t\t\tfunction startCase(uint8 caseI...\n    tag 6\t\t\tfunction startCase(uint8 caseI...\n      JUMPDEST \t\t\tfunction startCase(uint8 caseI...\n      STOP \t\t\tfunction startCase(uint8 caseI...\n    tag 4\t\t\tmapping(address => mapping(uin...\n      JUMPDEST \t\t\tmapping(address => mapping(uin...\n      PUSH [tag] 10\t\t\tmapping(address => mapping(uin...\n      PUSH 4\t\t\tmapping(address => mapping(uin...\n      DUP1 \t\t\tmapping(address => mapping(uin...\n      CALLDATASIZE \t\t\tmapping(address => mapping(uin...\n      SUB \t\t\tmapping(address => mapping(uin...\n      DUP2 \t\t\tmapping(address => mapping(uin...\n      ADD \t\t\tmapping(address => mapping(uin...\n      SWAP1 \t\t\tmapping(address => mapping(uin...\n      PUSH [tag] 11\t\t\tmapping(address => mapping(uin...\n      SWAP2 \t\t\tmapping(address => mapping(uin...\n      SWAP1 \t\t\tmapping(address => mapping(uin...\n      PUSH [tag] 12\t\t\tmapping(address => mapping(uin...\n      JUMP \t\t\tmapping(address => mapping(uin...\n    tag 11\t\t\tmapping(address => mapping(uin...\n      JUMPDEST \t\t\tmapping(address => mapping(uin...\n      PUSH [tag] 13\t\t\tmapping(address => mapping(uin...\n      JUMP \t\t\tmapping(address => mapping(uin...\n    tag 10\t\t\tmapping(address => mapping(uin...\n      JUMPDEST \t\t\tmapping(address => mapping(uin...\n      PUSH 40\t\t\tmapping(address => mapping(uin...\n      MLOAD \t\t\tmapping(address => mapping(uin...\n      PUSH [tag] 14\t\t\tmapping(address => mapping(uin...\n      SWAP5 \t\t\tmapping(address => mapping(uin...\n      SWAP4 \t\t\tmapping(address => mapping(uin...\n      SWAP3 \t\t\tmapping(address => mapping(uin...\n      SWAP2 \t\t\tmapping(address => mapping(uin...\n      SWAP1 \t\t\tmapping(address => mapping(uin...\n      PUSH [tag] 15\t\t\tmapping(address => mapping(uin...\n      JUMP \t\t\tmapping(address => mapping(uin...\n    tag 14\t\t\tmapping(address => mapping(uin...\n      JUMPDEST \t\t\tmapping(address => mapping(uin...\n      PUSH 40\t\t\tmapping(address => mapping(uin...\n      MLOAD \t\t\tmapping(address => mapping(uin...\n      DUP1 \t\t\tmapping(address => mapping(uin...\n      SWAP2 \t\t\tmapping(address => mapping(uin...\n      SUB \t\t\tmapping(address => mapping(uin...\n      SWAP1 \t\t\tmapping(address => mapping(uin...\n      RETURN \t\t\tmapping(address => mapping(uin...\n    tag 5\t\t\tfunction completeCase(uint8 ca...\n      JUMPDEST \t\t\tfunction completeCase(uint8 ca...\n      PUSH [tag] 16\t\t\tfunction completeCase(uint8 ca...\n      PUSH 4\t\t\tfunction completeCase(uint8 ca...\n      DUP1 \t\t\tfunction completeCase(uint8 ca...\n      CALLDATASIZE \t\t\tfunction completeCase(uint8 ca...\n      SUB \t\t\tfunction completeCase(uint8 ca...\n      DUP2 \t\t\tfunction completeCase(uint8 ca...\n      ADD \t\t\tfunction completeCase(uint8 ca...\n      SWAP1 \t\t\tfunction completeCase(uint8 ca...\n      PUSH [tag] 17\t\t\tfunction completeCase(uint8 ca...\n      SWAP2 \t\t\tfunction completeCase(uint8 ca...\n      SWAP1 \t\t\tfunction completeCase(uint8 ca...\n      PUSH [tag] 18\t\t\tfunction completeCase(uint8 ca...\n      JUMP \t\t\tfunction completeCase(uint8 ca...\n    tag 17\t\t\tfunction completeCase(uint8 ca...\n      JUMPDEST \t\t\tfunction completeCase(uint8 ca...\n      PUSH [tag] 19\t\t\tfunction completeCase(uint8 ca...\n      JUMP \t\t\tfunction completeCase(uint8 ca...\n    tag 16\t\t\tfunction completeCase(uint8 ca...\n      JUMPDEST \t\t\tfunction completeCase(uint8 ca...\n      STOP \t\t\tfunction completeCase(uint8 ca...\n    tag 9\t\t\tfunction startCase(uint8 caseI...\n      JUMPDEST \t\t\tfunction startCase(uint8 caseI...\n      PUSH 0\t\t\t0\n      PUSH 0\t\t\tplayerCases\n      PUSH 0\t\t\tplayerCases[msg.sender]\n      CALLER \t\t\tmsg.sender\n      PUSH FFFFFFFFFFFFFFFFFFFFFFFFFFFFFFFFFFFFFFFF\t\t\tplayerCases[msg.sender]\n      AND \t\t\tplayerCases[msg.sender]\n      PUSH FFFFFFFFFFFFFFFFFFFFFFFFFFFFFFFFFFFFFFFF\t\t\tplayerCases[msg.sender]\n      AND \t\t\tplayerCases[msg.sender]\n      DUP2 \t\t\tplayerCases[msg.sender]\n      MSTORE \t\t\tplayerCases[msg.sender]\n      PUSH 20\t\t\tplayerCases[msg.sender]\n      ADD \t\t\tplayerCases[msg.sender]\n      SWAP1 \t\t\tplayerCases[msg.sender]\n      DUP2 \t\t\tplayerCases[msg.sender]\n      MSTORE \t\t\tplayerCases[msg.sender]\n      PUSH 20\t\t\tplayerCases[msg.sender]\n      ADD \t\t\tplayerCases[msg.sender]\n      PUSH 0\t\t\tplayerCases[msg.sender]\n      KECCAK256 \t\t\tplayerCases[msg.sender]\n      PUSH 0\t\t\tplayerCases[msg.sender][caseId...\n      DUP4 \t\t\tcaseId\n      PUSH FF\t\t\tplayerCases[msg.sender][caseId...\n      AND \t\t\tplayerCases[msg.sender][caseId...\n      PUSH FF\t\t\tplayerCases[msg.sender][caseId...\n      AND \t\t\tplayerCases[msg.sender][caseId...\n      DUP2 \t\t\tplayerCases[msg.sender][caseId...\n      MSTORE \t\t\tplayerCases[msg.sender][caseId...\n      PUSH 20\t\t\tplayerCases[msg.sender][caseId...\n      ADD \t\t\tplayerCases[msg.sender][caseId...\n      SWAP1 \t\t\tplayerCases[msg.sender][caseId...\n      DUP2 \t\t\tplayerCases[msg.sender][caseId...\n      MSTORE \t\t\tplayerCases[msg.sender][caseId...\n      PUSH 20\t\t\tplayerCases[msg.sender][caseId...\n      ADD \t\t\tplayerCases[msg.sender][caseId...\n      PUSH 0\t\t\tplayerCases[msg.sender][caseId...\n      KECCAK256 \t\t\tplayerCases[msg.sender][caseId...\n      PUSH 0\t\t\tplayerCases[msg.sender][caseId...\n      ADD \t\t\tplayerCases[msg.sender][caseId...\n      SLOAD \t\t\tplayerCases[msg.sender][caseId...\n      EQ \t\t\tplayerCases[msg.sender][caseId...\n      PUSH [tag] 21\t\t\trequire(playerCases[msg.sender...\n      JUMPI \t\t\trequire(playerCases[msg.sender...\n      PUSH 40\t\t\trequire(playerCases[msg.sender...\n      MLOAD \t\t\trequire(playerCases[msg.sender...\n      PUSH 8C379A000000000000000000000000000000000000000000000000000000000\t\t\trequire(playerCases[msg.sender...\n      DUP2 \t\t\trequire(playerCases[msg.sender...\n      MSTORE \t\t\trequire(playerCases[msg.sender...\n      PUSH 4\t\t\trequire(playerCases[msg.sender...\n      ADD \t\t\trequire(playerCases[msg.sender...\n      PUSH [tag] 22\t\t\trequire(playerCases[msg.sender...\n      SWAP1 \t\t\trequire(playerCases[msg.sender...\n      PUSH [tag] 23\t\t\trequire(playerCases[msg.sender...\n      JUMP \t\t\trequire(playerCases[msg.sender...\n    tag 22\t\t\trequire(playerCases[msg.sender...\n      JUMPDEST \t\t\trequire(playerCases[msg.sender...\n      PUSH 40\t\t\trequire(playerCases[msg.sender...\n      MLOAD \t\t\trequire(playerCases[msg.sender...\n      DUP1 \t\t\trequire(playerCases[msg.sender...\n      SWAP2 \t\t\trequire(playerCases[msg.sender...\n      SUB \t\t\trequire(playerCases[msg.sender...\n      SWAP1 \t\t\trequire(playerCases[msg.sender...\n      REVERT \t\t\trequire(playerCases[msg.sender...\n    tag 21\t\t\trequire(playerCases[msg.sender...\n      JUMPDEST \t\t\trequire(playerCases[msg.sender...\n      PUSH 0\t\t\tuint256 seed\n      CALLER \t\t\tmsg.sender\n      DUP3 \t\t\tcaseId\n      TIMESTAMP \t\t\tblock.timestamp\n      PREVRANDAO \t\t\tblock.prevrandao\n      PUSH 40\t\t\tabi.encodePacked(msg.sender, c...\n      MLOAD \t\t\tabi.encodePacked(msg.sender, c...\n      PUSH 20\t\t\tabi.encodePacked(msg.sender, c...\n      ADD \t\t\tabi.encodePacked(msg.sender, c...\n      PUSH [tag] 24\t\t\tabi.encodePacked(msg.sender, c...\n      SWAP5 \t\t\tabi.encodePacked(msg.sender, c...\n      SWAP4 \t\t\tabi.encodePacked(msg.sender, c...\n      SWAP3 \t\t\tabi.encodePacked(msg.sender, c...\n      SWAP2 \t\t\tabi.encodePacked(msg.sender, c...\n      SWAP1 \t\t\tabi.encodePacked(msg.sender, c...\n      PUSH [tag] 25\t\t\tabi.encodePacked(msg.sender, c...\n      JUMP \t\t\tabi.encodePacked(msg.sender, c...\n    tag 24\t\t\tabi.encodePacked(msg.sender, c...\n      JUMPDEST \t\t\tabi.encodePacked(msg.sender, c...\n      PUSH 40\t\t\tabi.encodePacked(msg.sender, c...\n      MLOAD \t\t\tabi.encodePacked(msg.sender, c...\n      PUSH 20\t\t\tabi.encodePacked(msg.sender, c...\n      DUP2 \t\t\tabi.encodePacked(msg.sender, c...\n      DUP4 \t\t\tabi.encodePacked(msg.sender, c...\n      SUB \t\t\tabi.encodePacked(msg.sender, c...\n      SUB \t\t\tabi.encodePacked(msg.sender, c...\n      DUP2 \t\t\tabi.encodePacked(msg.sender, c...\n      MSTORE \t\t\tabi.encodePacked(msg.sender, c...\n      SWAP1 \t\t\tabi.encodePacked(msg.sender, c...\n      PUSH 40\t\t\tabi.encodePacked(msg.sender, c...\n      MSTORE \t\t\tabi.encodePacked(msg.sender, c...\n      DUP1 \t\t\tkeccak256(abi.encodePacked(msg...\n      MLOAD \t\t\tkeccak256(abi.encodePacked(msg...\n      SWAP1 \t\t\tkeccak256(abi.encodePacked(msg...\n      PUSH 20\t\t\tkeccak256(abi.encodePacked(msg...\n      ADD \t\t\tkeccak256(abi.encodePacked(msg...\n      KECCAK256 \t\t\tkeccak256(abi.encodePacked(msg...\n      PUSH 0\t\t\tuint256(keccak256(abi.encodePa...\n      SHR \t\t\tuint256(keccak256(abi.encodePa...\n      SWAP1 \t\t\tuint256 seed = uint256(keccak2...\n      POP \t\t\tuint256 seed = uint256(keccak2...\n      PUSH 40\t\t\tCaseResult(seed, 0, block.time...\n      MLOAD \t\t\tCaseResult(seed, 0, block.time...\n      DUP1 \t\t\tCaseResult(seed, 0, block.time...\n      PUSH 80\t\t\tCaseResult(seed, 0, block.time...\n      ADD \t\t\tCaseResult(seed, 0, block.time...\n      PUSH 40\t\t\tCaseResult(seed, 0, block.time...\n      MSTORE \t\t\tCaseResult(seed, 0, block.time...\n      DUP1 \t\t\tCaseResult(seed, 0, block.time...\n      DUP3 \t\t\tseed\n      DUP2 \t\t\tCaseResult(seed, 0, block.time...\n      MSTORE \t\t\tCaseResult(seed, 0, block.time...\n      PUSH 20\t\t\tCaseResult(seed, 0, block.time...\n      ADD \t\t\tCaseResult(seed, 0, block.time...\n      PUSH 0\t\t\t0\n      PUSH FF\t\t\tCaseResult(seed, 0, block.time...\n      AND \t\t\tCaseResult(seed, 0, block.time...\n      DUP2 \t\t\tCaseResult(seed, 0, block.time...\n      MSTORE \t\t\tCaseResult(seed, 0, block.time...\n      PUSH 20\t\t\tCaseResult(seed, 0, block.time...\n      ADD \t\t\tCaseResult(seed, 0, block.time...\n      TIMESTAMP \t\t\tblock.timestamp\n      DUP2 \t\t\tCaseResult(seed, 0, block.time...\n      MSTORE \t\t\tCaseResult(seed, 0, block.time...\n      PUSH 20\t\t\tCaseResult(seed, 0, block.time...\n      ADD \t\t\tCaseResult(seed, 0, block.time...\n      PUSH 0\t\t\tfalse\n      ISZERO \t\t\tCaseResult(seed, 0, block.time...\n      ISZERO \t\t\tCaseResult(seed, 0, block.time...\n      DUP2 \t\t\tCaseResult(seed, 0, block.time...\n      MSTORE \t\t\tCaseResult(seed, 0, block.time...\n      POP \t\t\tCaseResult(seed, 0, block.time...\n      PUSH 0\t\t\tplayerCases\n      PUSH 0\t\t\tplayerCases[msg.sender]\n      CALLER \t\t\tmsg.sender\n      PUSH FFFFFFFFFFFFFFFFFFFFFFFFFFFFFFFFFFFFFFFF\t\t\tplayerCases[msg.sender]\n      AND \t\t\tplayerCases[msg.sender]\n      PUSH FFFFFFFFFFFFFFFFFFFFFFFFFFFFFFFFFFFFFFFF\t\t\tplayerCases[msg.sender]\n      AND \t\t\tplayerCases[msg.sender]\n      DUP2 \t\t\tplayerCases[msg.sender]\n      MSTORE \t\t\tplayerCases[msg.sender]\n      PUSH 20\t\t\tplayerCases[msg.sender]\n      ADD \t\t\tplayerCases[msg.sender]\n      SWAP1 \t\t\tplayerCases[msg.sender]\n      DUP2 \t\t\tplayerCases[msg.sender]\n      MSTORE \t\t\tplayerCases[msg.sender]\n      PUSH 20\t\t\tplayerCases[msg.sender]\n      ADD \t\t\tplayerCases[msg.sender]\n      PUSH 0\t\t\tplayerCases[msg.sender]\n      KECCAK256 \t\t\tplayerCases[msg.sender]\n      PUSH 0\t\t\tplayerCases[msg.sender][caseId...\n      DUP5 \t\t\tcaseId\n      PUSH FF\t\t\tplayerCases[msg.sender][caseId...\n      AND \t\t\tplayerCases[msg.sender][caseId...\n      PUSH FF\t\t\tplayerCases[msg.sender][caseId...\n      AND \t\t\tplayerCases[msg.sender][caseId...\n      DUP2 \t\t\tplayerCases[msg.sender][caseId...\n      MSTORE \t\t\tplayerCases[msg.sender][caseId...\n      PUSH 20\t\t\tplayerCases[msg.sender][caseId...\n      ADD \t\t\tplayerCases[msg.sender][caseId...\n      SWAP1 \t\t\tplayerCases[msg.sender][caseId...\n      DUP2 \t\t\tplayerCases[msg.sender][caseId...\n      MSTORE \t\t\tplayerCases[msg.sender][caseId...\n      PUSH 20\t\t\tplayerCases[msg.sender][caseId...\n      ADD \t\t\tplayerCases[msg.sender][caseId...\n      PUSH 0\t\t\tplayerCases[msg.sender][caseId...\n      KECCAK256 \t\t\tplayerCases[msg.sender][caseId...\n      PUSH 0\t\t\tplayerCases[msg.sender][caseId...\n      DUP3 \t\t\tplayerCases[msg.sender][caseId...\n      ADD \t\t\tplayerCases[msg.sender][caseId...\n      MLOAD \t\t\tplayerCases[msg.sender][caseId...\n      DUP2 \t\t\tplayerCases[msg.sender][caseId...\n      PUSH 0\t\t\tplayerCases[msg.sender][caseId...\n      ADD \t\t\tplayerCases[msg.sender][caseId...\n      SSTORE \t\t\tplayerCases[msg.sender][caseId...\n      PUSH 20\t\t\tplayerCases[msg.sender][caseId...\n      DUP3 \t\t\tplayerCases[msg.sender][caseId...\n      ADD \t\t\tplayerCases[msg.sender][caseId...\n      MLOAD \t\t\tplayerCases[msg.sender][caseId...\n      DUP2 \t\t\tplayerCases[msg.sender][caseId...\n      PUSH 1\t\t\tplayerCases[msg.sender][caseId...\n      ADD \t\t\tplayerCases[msg.sender][caseId...\n      PUSH 0\t\t\tplayerCases[msg.sender][caseId...\n      PUSH 100\t\t\tplayerCases[msg.sender][caseId...\n      EXP \t\t\tplayerCases[msg.sender][caseId...\n      DUP2 \t\t\tplayerCases[msg.sender][caseId...\n      SLOAD \t\t\tplayerCases[msg.sender][caseId...\n      DUP2 \t\t\tplayerCases[msg.sender][caseId...\n      PUSH FF\t\t\tplayerCases[msg.sender][caseId...\n      MUL \t\t\tplayerCases[msg.sender][caseId...\n      NOT \t\t\tplayerCases[msg.sender][caseId...\n      AND \t\t\tplayerCases[msg.sender][caseId...\n      SWAP1 \t\t\tplayerCases[msg.sender][caseId...\n      DUP4 \t\t\tplayerCases[msg.sender][caseId...\n      PUSH FF\t\t\tplayerCases[msg.sender][caseId...\n      AND \t\t\tplayerCases[msg.sender][caseId...\n      MUL \t\t\tplayerCases[msg.sender][caseId...\n      OR \t\t\tplayerCases[msg.sender][caseId...\n      SWAP1 \t\t\tplayerCases[msg.sender][caseId...\n      SSTORE \t\t\tplayerCases[msg.sender][caseId...\n      POP \t\t\tplayerCases[msg.sender][caseId...\n      PUSH 40\t\t\tplayerCases[msg.sender][caseId...\n      DUP3 \t\t\tplayerCases[msg.sender][caseId...\n      ADD \t\t\tplayerCases[msg.sender][caseId...\n      MLOAD \t\t\tplayerCases[msg.sender][caseId...\n      DUP2 \t\t\tplayerCases[msg.sender][caseId...\n      PUSH 2\t\t\tplayerCases[msg.sender][caseId...\n      ADD \t\t\tplayerCases[msg.sender][caseId...\n      SSTORE \t\t\tplayerCases[msg.sender][caseId...\n      PUSH 60\t\t\tplayerCases[msg.sender][caseId...\n      DUP3 \t\t\tplayerCases[msg.sender][caseId...\n      ADD \t\t\tplayerCases[msg.sender][caseId...\n      MLOAD \t\t\tplayerCases[msg.sender][caseId...\n      DUP2 \t\t\tplayerCases[msg.sender][caseId...\n      PUSH 3\t\t\tplayerCases[msg.sender][caseId...\n      ADD \t\t\tplayerCases[msg.sender][caseId...\n      PUSH 0\t\t\tplayerCases[msg.sender][caseId...\n      PUSH 100\t\t\tplayerCases[msg.sender][caseId...\n      EXP \t\t\tplayerCases[msg.sender][caseId...\n      DUP2 \t\t\tplayerCases[msg.sender][caseId...\n      SLOAD \t\t\tplayerCases[msg.sender][caseId...\n      DUP2 \t\t\tplayerCases[msg.sender][caseId...\n      PUSH FF\t\t\tplayerCases[msg.sender][caseId...\n      MUL \t\t\tplayerCases[msg.sender][caseId...\n      NOT \t\t\tplayerCases[msg.sender][caseId...\n      AND \t\t\tplayerCases[msg.sender][caseId...\n      SWAP1 \t\t\tplayerCases[msg.sender][caseId...\n      DUP4 \t\t\tplayerCases[msg.sender][caseId...\n      ISZERO \t\t\tplayerCases[msg.sender][caseId...\n      ISZERO \t\t\tplayerCases[msg.sender][caseId...\n      MUL \t\t\tplayerCases[msg.sender][caseId...\n      OR \t\t\tplayerCases[msg.sender][caseId...\n      SWAP1 \t\t\tplayerCases[msg.sender][caseId...\n      SSTORE \t\t\tplayerCases[msg.sender][caseId...\n      POP \t\t\tplayerCases[msg.sender][caseId...\n      SWAP1 \t\t\tplayerCases[msg.sender][caseId...\n      POP \t\t\tplayerCases[msg.sender][caseId...\n      POP \t\t\tplayerCases[msg.sender][caseId...\n      CALLER \t\t\tmsg.sender\n      PUSH FFFFFFFFFFFFFFFFFFFFFFFFFFFFFFFFFFFFFFFF\t\t\tCaseStarted(msg.sender, caseId...\n      AND \t\t\tCaseStarted(msg.sender, caseId...\n      PUSH F8AED1AACAAE899332A8639F68DCB750E33DB6B978339DED3B66DFE3790BAEC8\t\t\tCaseStarted(msg.sender, caseId...\n      DUP4 \t\t\tcaseId\n      DUP4 \t\t\tseed\n      PUSH 40\t\t\tCaseStarted(msg.sender, caseId...\n      MLOAD \t\t\tCaseStarted(msg.sender, caseId...\n      PUSH [tag] 26\t\t\tCaseStarted(msg.sender, caseId...\n      SWAP3 \t\t\tCaseStarted(msg.sender, caseId...\n      SWAP2 \t\t\tCaseStarted(msg.sender, caseId...\n      SWAP1 \t\t\tCaseStarted(msg.sender, caseId...\n      PUSH [tag] 27\t\t\tCaseStarted(msg.sender, caseId...\n      JUMP \t\t\tCaseStarted(msg.sender, caseId...\n    tag 26\t\t\tCaseStarted(msg.sender, caseId...\n      JUMPDEST \t\t\tCaseStarted(msg.sender, caseId...\n      PUSH 40\t\t\tCaseStarted(msg.sender, caseId...\n      MLOAD \t\t\tCaseStarted(msg.sender, caseId...\n      DUP1 \t\t\tCaseStarted(msg.sender, caseId...\n      SWAP2 \t\t\tCaseStarted(msg.sender, caseId...\n      SUB \t\t\tCaseStarted(msg.sender, caseId...\n      SWAP1 \t\t\tCaseStarted(msg.sender, caseId...\n      LOG2 \t\t\tCaseStarted(msg.sender, caseId...\n      POP \t\t\t{\\n        require(playerCases...\n      POP \t\t\tfunction startCase(uint8 caseI...\n      JUMP \t\t\tfunction startCase(uint8 caseI...\n    tag 13\t\t\tmapping(address => mapping(uin...\n      JUMPDEST \t\t\tmapping(address => mapping(uin...\n      PUSH 0\t\t\tmapping(address => mapping(uin...\n      PUSH 20\t\t\tmapping(address => mapping(uin...\n      MSTORE \t\t\tmapping(address => mapping(uin...\n      DUP2 \t\t\tmapping(address => mapping(uin...\n      PUSH 0\t\t\tmapping(address => mapping(uin...\n      MSTORE \t\t\tmapping(address => mapping(uin...\n      PUSH 40\t\t\tmapping(address => mapping(uin...\n      PUSH 0\t\t\tmapping(address => mapping(uin...\n      KECCAK256 \t\t\tmapping(address => mapping(uin...\n      PUSH 20\t\t\tmapping(address => mapping(uin...\n      MSTORE \t\t\tmapping(address => mapping(uin...\n      DUP1 \t\t\tmapping(address => mapping(uin...\n      PUSH 0\t\t\tmapping(address => mapping(uin...\n      MSTORE \t\t\tmapping(address => mapping(uin...\n      PUSH 40\t\t\tmapping(address => mapping(uin...\n      PUSH 0\t\t\tmapping(address => mapping(uin...\n      KECCAK256 \t\t\tmapping(address => mapping(uin...\n      PUSH 0\t\t\tmapping(address => mapping(uin...\n      SWAP2 \t\t\tmapping(address => mapping(uin...\n      POP \t\t\tmapping(address => mapping(uin...\n      SWAP2 \t\t\tmapping(address => mapping(uin...\n      POP \t\t\tmapping(address => mapping(uin...\n      POP \t\t\tmapping(address => mapping(uin...\n      DUP1 \t\t\tmapping(address => mapping(uin...\n      PUSH 0\t\t\tmapping(address => mapping(uin...\n      ADD \t\t\tmapping(address => mapping(uin...\n      SLOAD \t\t\tmapping(address => mapping(uin...\n      SWAP1 \t\t\tmapping(address => mapping(uin...\n      DUP1 \t\t\tmapping(address => mapping(uin...\n      PUSH 1\t\t\tmapping(address => mapping(uin...\n      ADD \t\t\tmapping(address => mapping(uin...\n      PUSH 0\t\t\tmapping(address => mapping(uin...\n      SWAP1 \t\t\tmapping(address => mapping(uin...\n      SLOAD \t\t\tmapping(address => mapping(uin...\n      SWAP1 \t\t\tmapping(address => mapping(uin...\n      PUSH 100\t\t\tmapping(address => mapping(uin...\n      EXP \t\t\tmapping(address => mapping(uin...\n      SWAP1 \t\t\tmapping(address => mapping(uin...\n      DIV \t\t\tmapping(address => mapping(uin...\n      PUSH FF\t\t\tmapping(address => mapping(uin...\n      AND \t\t\tmapping(address => mapping(uin...\n      SWAP1 \t\t\tmapping(address => mapping(uin...\n      DUP1 \t\t\tmapping(address => mapping(uin...\n      PUSH 2\t\t\tmapping(address => mapping(uin...\n      ADD \t\t\tmapping(address => mapping(uin...\n      SLOAD \t\t\tmapping(address => mapping(uin...\n      SWAP1 \t\t\tmapping(address => mapping(uin...\n      DUP1 \t\t\tmapping(address => mapping(uin...\n      PUSH 3\t\t\tmapping(address => mapping(uin...\n      ADD \t\t\tmapping(address => mapping(uin...\n      PUSH 0\t\t\tmapping(address => mapping(uin...\n      SWAP1 \t\t\tmapping(address => mapping(uin...\n      SLOAD \t\t\tmapping(address => mapping(uin...\n      SWAP1 \t\t\tmapping(address => mapping(uin...\n      PUSH 100\t\t\tmapping(address => mapping(uin...\n      EXP \t\t\tmapping(address => mapping(uin...\n      SWAP1 \t\t\tmapping(address => mapping(uin...\n      DIV \t\t\tmapping(address => mapping(uin...\n      PUSH FF\t\t\tmapping(address => mapping(uin...\n      AND \t\t\tmapping(address => mapping(uin...\n      SWAP1 \t\t\tmapping(address => mapping(uin...\n      POP \t\t\tmapping(address => mapping(uin...\n      DUP5 \t\t\tmapping(address => mapping(uin...\n      JUMP \t\t\tmapping(address => mapping(uin...\n    tag 19\t\t\tfunction completeCase(uint8 ca...\n      JUMPDEST \t\t\tfunction completeCase(uint8 ca...\n      PUSH 0\t\t\tCaseResult storage r\n      PUSH 0\t\t\tplayerCases\n      PUSH 0\t\t\tplayerCases[msg.sender]\n      CALLER \t\t\tmsg.sender\n      PUSH FFFFFFFFFFFFFFFFFFFFFFFFFFFFFFFFFFFFFFFF\t\t\tplayerCases[msg.sender]\n      AND \t\t\tplayerCases[msg.sender]\n      PUSH FFFFFFFFFFFFFFFFFFFFFFFFFFFFFFFFFFFFFFFF\t\t\tplayerCases[msg.sender]\n      AND \t\t\tplayerCases[msg.sender]\n      DUP2 \t\t\tplayerCases[msg.sender]\n      MSTORE \t\t\tplayerCases[msg.sender]\n      PUSH 20\t\t\tplayerCases[msg.sender]\n      ADD \t\t\tplayerCases[msg.sender]\n      SWAP1 \t\t\tplayerCases[msg.sender]\n      DUP2 \t\t\tplayerCases[msg.sender]\n      MSTORE \t\t\tplayerCases[msg.sender]\n      PUSH 20\t\t\tplayerCases[msg.sender]\n      ADD \t\t\tplayerCases[msg.sender]\n      PUSH 0\t\t\tplayerCases[msg.sender]\n      KECCAK256 \t\t\tplayerCases[msg.sender]\n      PUSH 0\t\t\tplayerCases[msg.sender][caseId...\n      DUP5 \t\t\tcaseId\n      PUSH FF\t\t\tplayerCases[msg.sender][caseId...\n      AND \t\t\tplayerCases[msg.sender][caseId...\n      PUSH FF\t\t\tplayerCases[msg.sender][caseId...\n      AND \t\t\tplayerCases[msg.sender][caseId...\n      DUP2 \t\t\tplayerCases[msg.sender][caseId...\n      MSTORE \t\t\tplayerCases[msg.sender][caseId...\n      PUSH 20\t\t\tplayerCases[msg.sender][caseId...\n      ADD \t\t\tplayerCases[msg.sender][caseId...\n      SWAP1 \t\t\tplayerCases[msg.sender][caseId...\n      DUP2 \t\t\tplayerCases[msg.sender][caseId...\n      MSTORE \t\t\tplayerCases[msg.sender][caseId...\n      PUSH 20\t\t\tplayerCases[msg.sender][caseId...\n      ADD \t\t\tplayerCases[msg.sender][caseId...\n      PUSH 0\t\t\tplayerCases[msg.sender][caseId...\n      KECCAK256 \t\t\tplayerCases[msg.sender][caseId...\n      SWAP1 \t\t\tCaseResult storage r = playerC...\n      POP \t\t\tCaseResult storage r = playerC...\n      PUSH 0\t\t\t0\n      DUP2 \t\t\tr\n      PUSH 0\t\t\tr.seed\n      ADD \t\t\tr.seed\n      SLOAD \t\t\tr.seed\n      SUB \t\t\tr.seed != 0\n      PUSH [tag] 29\t\t\trequire(r.seed != 0, \"Start ca...\n      JUMPI \t\t\trequire(r.seed != 0, \"Start ca...\n      PUSH 40\t\t\trequire(r.seed != 0, \"Start ca...\n      MLOAD \t\t\trequire(r.seed != 0, \"Start ca...\n      PUSH 8C379A000000000000000000000000000000000000000000000000000000000\t\t\trequire(r.seed != 0, \"Start ca...\n      DUP2 \t\t\trequire(r.seed != 0, \"Start ca...\n      MSTORE \t\t\trequire(r.seed != 0, \"Start ca...\n      PUSH 4\t\t\trequire(r.seed != 0, \"Start ca...\n      ADD \t\t\trequire(r.seed != 0, \"Start ca...\n      PUSH [tag] 30\t\t\trequire(r.seed != 0, \"Start ca...\n      SWAP1 \t\t\trequire(r.seed != 0, \"Start ca...\n      PUSH [tag] 31\t\t\trequire(r.seed != 0, \"Start ca...\n      JUMP \t\t\trequire(r.seed != 0, \"Start ca...\n    tag 30\t\t\trequire(r.seed != 0, \"Start ca...\n      JUMPDEST \t\t\trequire(r.seed != 0, \"Start ca...\n      PUSH 40\t\t\trequire(r.seed != 0, \"Start ca...\n      MLOAD \t\t\trequire(r.seed != 0, \"Start ca...\n      DUP1 \t\t\trequire(r.seed != 0, \"Start ca...\n      SWAP2 \t\t\trequire(r.seed != 0, \"Start ca...\n      SUB \t\t\trequire(r.seed != 0, \"Start ca...\n      SWAP1 \t\t\trequire(r.seed != 0, \"Start ca...\n      REVERT \t\t\trequire(r.seed != 0, \"Start ca...\n    tag 29\t\t\trequire(r.seed != 0, \"Start ca...\n      JUMPDEST \t\t\trequire(r.seed != 0, \"Start ca...\n      DUP1 \t\t\tr\n      PUSH 3\t\t\tr.completed\n      ADD \t\t\tr.completed\n      PUSH 0\t\t\tr.completed\n      SWAP1 \t\t\tr.completed\n      SLOAD \t\t\tr.completed\n      SWAP1 \t\t\tr.completed\n      PUSH 100\t\t\tr.completed\n      EXP \t\t\tr.completed\n      SWAP1 \t\t\tr.completed\n      DIV \t\t\tr.completed\n      PUSH FF\t\t\tr.completed\n      AND \t\t\tr.completed\n      ISZERO \t\t\t!r.completed\n      PUSH [tag] 32\t\t\trequire(!r.completed, \"Already...\n      JUMPI \t\t\trequire(!r.completed, \"Already...\n      PUSH 40\t\t\trequire(!r.completed, \"Already...\n      MLOAD \t\t\trequire(!r.completed, \"Already...\n      PUSH 8C379A000000000000000000000000000000000000000000000000000000000\t\t\trequire(!r.completed, \"Already...\n      DUP2 \t\t\trequire(!r.completed, \"Already...\n      MSTORE \t\t\trequire(!r.completed, \"Already...\n      PUSH 4\t\t\trequire(!r.completed, \"Already...\n      ADD \t\t\trequire(!r.completed, \"Already...\n      PUSH [tag] 33\t\t\trequire(!r.completed, \"Already...\n      SWAP1 \t\t\trequire(!r.completed, \"Already...\n      PUSH [tag] 34\t\t\trequire(!r.completed, \"Already...\n      JUMP \t\t\trequire(!r.completed, \"Already...\n    tag 33\t\t\trequire(!r.completed, \"Already...\n      JUMPDEST \t\t\trequire(!r.completed, \"Already...\n      PUSH 40\t\t\trequire(!r.completed, \"Already...\n      MLOAD \t\t\trequire(!r.completed, \"Already...\n      DUP1 \t\t\trequire(!r.completed, \"Already...\n      SWAP2 \t\t\trequire(!r.completed, \"Already...\n      SUB \t\t\trequire(!r.completed, \"Already...\n      SWAP1 \t\t\trequire(!r.completed, \"Already...\n      REVERT \t\t\trequire(!r.completed, \"Already...\n    tag 32\t\t\trequire(!r.completed, \"Already...\n      JUMPDEST \t\t\trequire(!r.completed, \"Already...\n      DUP2 \t\t\tresult\n      DUP2 \t\t\tr\n      PUSH 1\t\t\tr.result\n      ADD \t\t\tr.result\n      PUSH 0\t\t\tr.result\n      PUSH 100\t\t\tr.result = result\n      EXP \t\t\tr.result = result\n      DUP2 \t\t\tr.result = result\n      SLOAD \t\t\tr.result = result\n      DUP2 \t\t\tr.result = result\n      PUSH FF\t\t\tr.result = result\n      MUL \t\t\tr.result = result\n      NOT \t\t\tr.result = result\n      AND \t\t\tr.result = result\n      SWAP1 \t\t\tr.result = result\n      DUP4 \t\t\tr.result = result\n      PUSH FF\t\t\tr.result = result\n      AND \t\t\tr.result = result\n      MUL \t\t\tr.result = result\n      OR \t\t\tr.result = result\n      SWAP1 \t\t\tr.result = result\n      SSTORE \t\t\tr.result = result\n      POP \t\t\tr.result = result\n      TIMESTAMP \t\t\tblock.timestamp\n      DUP2 \t\t\tr\n      PUSH 2\t\t\tr.timestamp\n      ADD \t\t\tr.timestamp\n      DUP2 \t\t\tr.timestamp = block.timestamp\n      SWAP1 \t\t\tr.timestamp = block.timestamp\n      SSTORE \t\t\tr.timestamp = block.timestamp\n      POP \t\t\tr.timestamp = block.timestamp\n      PUSH 1\t\t\ttrue\n      DUP2 \t\t\tr\n      PUSH 3\t\t\tr.completed\n      ADD \t\t\tr.completed\n      PUSH 0\t\t\tr.completed\n      PUSH 100\t\t\tr.completed = true\n      EXP \t\t\tr.completed = true\n      DUP2 \t\t\tr.completed = true\n      SLOAD \t\t\tr.completed = true\n      DUP2 \t\t\tr.completed = true\n      PUSH FF\t\t\tr.completed = true\n      MUL \t\t\tr.completed = true\n      NOT \t\t\tr.completed = true\n      AND \t\t\tr.completed = true\n      SWAP1 \t\t\tr.completed = true\n      DUP4 \t\t\tr.completed = true\n      ISZERO \t\t\tr.completed = true\n      ISZERO \t\t\tr.completed = true\n      MUL \t\t\tr.completed = true\n      OR \t\t\tr.completed = true\n      SWAP1 \t\t\tr.completed = true\n      SSTORE \t\t\tr.completed = true\n      POP \t\t\tr.completed = true\n      PUSH 60\t\t\tstring memory message\n      PUSH 1\t\t\t1\n      DUP4 \t\t\tresult\n      PUSH FF\t\t\tresult == 1\n      AND \t\t\tresult == 1\n      SUB \t\t\tresult == 1\n      PUSH [tag] 35\t\t\tif (result == 1) message = \"Yo...\n      JUMPI \t\t\tif (result == 1) message = \"Yo...\n      PUSH 40\t\t\tmessage = \"You solved the case...\n      MLOAD \t\t\tmessage = \"You solved the case...\n      DUP1 \t\t\tmessage = \"You solved the case...\n      PUSH 60\t\t\tmessage = \"You solved the case...\n      ADD \t\t\tmessage = \"You solved the case...\n      PUSH 40\t\t\tmessage = \"You solved the case...\n      MSTORE \t\t\tmessage = \"You solved the case...\n      DUP1 \t\t\tmessage = \"You solved the case...\n      PUSH 2D\t\t\tmessage = \"You solved the case...\n      DUP2 \t\t\tmessage = \"You solved the case...\n      MSTORE \t\t\tmessage = \"You solved the case...\n      PUSH 20\t\t\tmessage = \"You solved the case...\n      ADD \t\t\tmessage = \"You solved the case...\n      PUSH data 83EF5A3501B198118229992CF05CBBEF4C71773A10D72262F1B7A77E4B2BA92E\t\t\tmessage = \"You solved the case...\n      PUSH 2D\t\t\tmessage = \"You solved the case...\n      SWAP2 \t\t\tmessage = \"You solved the case...\n      CODECOPY \t\t\tmessage = \"You solved the case...\n      SWAP1 \t\t\tmessage = \"You solved the case...\n      POP \t\t\tmessage = \"You solved the case...\n      PUSH [tag] 36\t\t\tif (result == 1) message = \"Yo...\n      JUMP \t\t\tif (result == 1) message = \"Yo...\n    tag 35\t\t\tif (result == 1) message = \"Yo...\n      JUMPDEST \t\t\tif (result == 1) message = \"Yo...\n      PUSH 2\t\t\t2\n      DUP4 \t\t\tresult\n      PUSH FF\t\t\tresult == 2\n      AND \t\t\tresult == 2\n      SUB \t\t\tresult == 2\n      PUSH [tag] 37\t\t\tif (result == 2) message = \"Yo...\n      JUMPI \t\t\tif (result == 2) message = \"Yo...\n      PUSH 40\t\t\tmessage = \"You found clues but...\n      MLOAD \t\t\tmessage = \"You found clues but...\n      DUP1 \t\t\tmessage = \"You found clues but...\n      PUSH 60\t\t\tmessage = \"You found clues but...\n      ADD \t\t\tmessage = \"You found clues but...\n      PUSH 40\t\t\tmessage = \"You found clues but...\n      MSTORE \t\t\tmessage = \"You found clues but...\n      DUP1 \t\t\tmessage = \"You found clues but...\n      PUSH 30\t\t\tmessage = \"You found clues but...\n      DUP2 \t\t\tmessage = \"You found clues but...\n      MSTORE \t\t\tmessage = \"You found clues but...\n      PUSH 20\t\t\tmessage = \"You found clues but...\n      ADD \t\t\tmessage = \"You found clues but...\n      PUSH data 5CD285BFD21A7AD798FA6C32BC7752344A4A577D93322B39A23F6B8BF70C664C\t\t\tmessage = \"You found clues but...\n      PUSH 30\t\t\tmessage = \"You found clues but...\n      SWAP2 \t\t\tmessage = \"You found clues but...\n      CODECOPY \t\t\tmessage = \"You found clues but...\n      SWAP1 \t\t\tmessage = \"You found clues but...\n      POP \t\t\tmessage = \"You found clues but...\n      PUSH [tag] 38\t\t\tif (result == 2) message = \"Yo...\n      JUMP \t\t\tif (result == 2) message = \"Yo...\n    tag 37\t\t\tif (result == 2) message = \"Yo...\n      JUMPDEST \t\t\tif (result == 2) message = \"Yo...\n      PUSH 3\t\t\t3\n      DUP4 \t\t\tresult\n      PUSH FF\t\t\tresult == 3\n      AND \t\t\tresult == 3\n      SUB \t\t\tresult == 3\n      PUSH [tag] 39\t\t\tif (result == 3) message = \"Yo...\n      JUMPI \t\t\tif (result == 3) message = \"Yo...\n      PUSH 40\t\t\tmessage = \"You accused the wro...\n      MLOAD \t\t\tmessage = \"You accused the wro...\n      DUP1 \t\t\tmessage = \"You accused the wro...\n      PUSH 60\t\t\tmessage = \"You accused the wro...\n      ADD \t\t\tmessage = \"You accused the wro...\n      PUSH 40\t\t\tmessage = \"You accused the wro...\n      MSTORE \t\t\tmessage = \"You accused the wro...\n      DUP1 \t\t\tmessage = \"You accused the wro...\n      PUSH 2E\t\t\tmessage = \"You accused the wro...\n      DUP2 \t\t\tmessage = \"You accused the wro...\n      MSTORE \t\t\tmessage = \"You accused the wro...\n      PUSH 20\t\t\tmessage = \"You accused the wro...\n      ADD \t\t\tmessage = \"You accused the wro...\n      PUSH data F0C046992FD40B888A5B2F254DE8187A1F179FEEA121D979AF4FCF7858F6B45C\t\t\tmessage = \"You accused the wro...\n      PUSH 2E\t\t\tmessage = \"You accused the wro...\n      SWAP2 \t\t\tmessage = \"You accused the wro...\n      CODECOPY \t\t\tmessage = \"You accused the wro...\n      SWAP1 \t\t\tmessage = \"You accused the wro...\n      POP \t\t\tmessage = \"You accused the wro...\n      PUSH [tag] 40\t\t\tif (result == 3) message = \"Yo...\n      JUMP \t\t\tif (result == 3) message = \"Yo...\n    tag 39\t\t\tif (result == 3) message = \"Yo...\n      JUMPDEST \t\t\tif (result == 3) message = \"Yo...\n      PUSH 40\t\t\tmessage = \"Case closed with un...\n      MLOAD \t\t\tmessage = \"Case closed with un...\n      DUP1 \t\t\tmessage = \"Case closed with un...\n      PUSH 60\t\t\tmessage = \"Case closed with un...\n      ADD \t\t\tmessage = \"Case closed with un...\n      PUSH 40\t\t\tmessage = \"Case closed with un...\n      MSTORE \t\t\tmessage = \"Case closed with un...\n      DUP1 \t\t\tmessage = \"Case closed with un...\n      PUSH 21\t\t\tmessage = \"Case closed with un...\n      DUP2 \t\t\tmessage = \"Case closed with un...\n      MSTORE \t\t\tmessage = \"Case closed with un...\n      PUSH 20\t\t\tmessage = \"Case closed with un...\n      ADD \t\t\tmessage = \"Case closed with un...\n      PUSH data 6828DB3C17B791347803D4E9D1D6E69EAC6CE7C8FECBF35E0A94BA3E1E107164\t\t\tmessage = \"Case closed with un...\n      PUSH 21\t\t\tmessage = \"Case closed with un...\n      SWAP2 \t\t\tmessage = \"Case closed with un...\n      CODECOPY \t\t\tmessage = \"Case closed with un...\n      SWAP1 \t\t\tmessage = \"Case closed with un...\n      POP \t\t\tmessage = \"Case closed with un...\n    tag 40\t\t\tif (result == 3) message = \"Yo...\n      JUMPDEST \t\t\tif (result == 3) message = \"Yo...\n    tag 38\t\t\tif (result == 2) message = \"Yo...\n      JUMPDEST \t\t\tif (result == 2) message = \"Yo...\n    tag 36\t\t\tif (result == 1) message = \"Yo...\n      JUMPDEST \t\t\tif (result == 1) message = \"Yo...\n      CALLER \t\t\tmsg.sender\n      PUSH FFFFFFFFFFFFFFFFFFFFFFFFFFFFFFFFFFFFFFFF\t\t\tCaseCompleted(msg.sender, case...\n      AND \t\t\tCaseCompleted(msg.sender, case...\n      PUSH 2B3C17C2E8B8C593C899AFC66B54A63390F29EBFC0D29B420B2FA0BAB2453F3B\t\t\tCaseCompleted(msg.sender, case...\n      DUP6 \t\t\tcaseId\n      DUP6 \t\t\tresult\n      DUP5 \t\t\tmessage\n      PUSH 40\t\t\tCaseCompleted(msg.sender, case...\n      MLOAD \t\t\tCaseCompleted(msg.sender, case...\n      PUSH [tag] 41\t\t\tCaseCompleted(msg.sender, case...\n      SWAP4 \t\t\tCaseCompleted(msg.sender, case...\n      SWAP3 \t\t\tCaseCompleted(msg.sender, case...\n      SWAP2 \t\t\tCaseCompleted(msg.sender, case...\n      SWAP1 \t\t\tCaseCompleted(msg.sender, case...\n      PUSH [tag] 42\t\t\tCaseCompleted(msg.sender, case...\n      JUMP \t\t\tCaseCompleted(msg.sender, case...\n    tag 41\t\t\tCaseCompleted(msg.sender, case...\n      JUMPDEST \t\t\tCaseCompleted(msg.sender, case...\n      PUSH 40\t\t\tCaseCompleted(msg.sender, case...\n      MLOAD \t\t\tCaseCompleted(msg.sender, case...\n      DUP1 \t\t\tCaseCompleted(msg.sender, case...\n      SWAP2 \t\t\tCaseCompleted(msg.sender, case...\n      SUB \t\t\tCaseCompleted(msg.sender, case...\n      SWAP1 \t\t\tCaseCompleted(msg.sender, case...\n      LOG2 \t\t\tCaseCompleted(msg.sender, case...\n      POP \t\t\t{\\n        CaseResult storage ...\n      POP \t\t\t{\\n        CaseResult storage ...\n      POP \t\t\tfunction completeCase(uint8 ca...\n      POP \t\t\tfunction completeCase(uint8 ca...\n      JUMP \t\t\tfunction completeCase(uint8 ca...\n    tag 44\t\t\te {\\n    struct CaseResult {\\n...\n      JUMPDEST \t\t\te {\\n    struct CaseResult {\\n...\n      PUSH 0\t\t\t\\n\n      PUSH 0\t\t\ta\n      REVERT \t\t\t, 3 = fail\\n \n    tag 46\t\t\tevent CaseStarted(address inde...\n      JUMPDEST \t\t\tevent CaseStarted(address inde...\n      PUSH 0\t\t\tlayer, \n      PUSH FF\t\t\teven\n      DUP3 \t\t\t);\\n  \n      AND \t\t\tseed);\\n    event\n      SWAP1 \t\t\td, uint256 seed);\\n    event\n      POP \t\t\td, uint256 seed);\\n    event\n      SWAP2 \t\t\tevent CaseStarted(address inde...\n      SWAP1 \t\t\tevent CaseStarted(address inde...\n      POP \t\t\tevent CaseStarted(address inde...\n      JUMP \t\t\tevent CaseStarted(address inde...\n    tag 47\t\t\ted(address indexed player, uin...\n      JUMPDEST \t\t\ted(address indexed player, uin...\n      PUSH [tag] 84\t\t\t\\n\\n    function startCa\n      DUP2 \t\t\ttartC\n      PUSH [tag] 46\t\t\t\\n\\n    function startCa\n      JUMP \t\t\t\\n\\n    function startCa\n    tag 84\t\t\t\\n\\n    function startCa\n      JUMPDEST \t\t\t\\n\\n    function startCa\n      DUP2 \t\t\tssage\n      EQ \t\t\t message);\\n\\n    function sta...\n      PUSH [tag] 85\t\t\tlt, string message);\\n\\n    fu...\n      JUMPI \t\t\tlt, string message);\\n\\n    fu...\n      PUSH 0\t\t\t)\n      PUSH 0\t\t\te\n      REVERT \t\t\tnt8 caseId) \n    tag 85\t\t\tlt, string message);\\n\\n    fu...\n      JUMPDEST \t\t\tlt, string message);\\n\\n    fu...\n      POP \t\t\ted(address indexed player, uin...\n      JUMP \t\t\ted(address indexed player, uin...\n    tag 48\t\t\t     require(playerCases[msg.s...\n      JUMPDEST \t\t\t     require(playerCases[msg.s...\n      PUSH 0\t\t\t.seed\n      DUP2 \t\t\t\");\\n  \n      CALLDATALOAD \t\t\tted this case\");\\n   \n      SWAP1 \t\t\teady started this case\");\\n   \n      POP \t\t\teady started this case\");\\n   \n      PUSH [tag] 87\t\t\t256 seed = uint256(keccak256(a...\n      DUP2 \t\t\t256(a\n      PUSH [tag] 47\t\t\t256 seed = uint256(keccak256(a...\n      JUMP \t\t\t256 seed = uint256(keccak256(a...\n    tag 87\t\t\t256 seed = uint256(keccak256(a...\n      JUMPDEST \t\t\t256 seed = uint256(keccak256(a...\n      SWAP3 \t\t\t     require(playerCases[msg.s...\n      SWAP2 \t\t\t     require(playerCases[msg.s...\n      POP \t\t\t     require(playerCases[msg.s...\n      POP \t\t\t     require(playerCases[msg.s...\n      JUMP \t\t\t     require(playerCases[msg.s...\n    tag 8\t\t\ted(msg.sender, caseId, block.t...\n      JUMPDEST \t\t\ted(msg.sender, caseId, block.t...\n      PUSH 0\t\t\t));\\n  \n      PUSH 20\t\t\teR\n      DUP3 \t\t\taseId] = \n      DUP5 \t\t\tsender]\n      SUB \t\t\tmsg.sender][caseId] = C\n      SLT \t\t\tses[msg.sender][caseId] = Case...\n      ISZERO \t\t\trCases[msg.sender][caseId] = C...\n      PUSH [tag] 89\t\t\trCases[msg.sender][caseId] = C...\n      JUMPI \t\t\trCases[msg.sender][caseId] = C...\n      PUSH [tag] 90\t\t\tt(seed, 0, block.timestamp, fa...\n      PUSH [tag] 44\t\t\tt(seed, 0, block.timestamp, fa...\n      JUMP \t\t\tt(seed, 0, block.timestamp, fa...\n    tag 90\t\t\tt(seed, 0, block.timestamp, fa...\n      JUMPDEST \t\t\tt(seed, 0, block.timestamp, fa...\n    tag 89\t\t\trCases[msg.sender][caseId] = C...\n      JUMPDEST \t\t\trCases[msg.sender][caseId] = C...\n      PUSH 0\t\t\t(\n      PUSH [tag] 91\t\t\tlt) external {\\n        CaseRe...\n      DUP5 \t\t\t = play\n      DUP3 \t\t\tstorag\n      DUP6 \t\t\tCaseResul\n      ADD \t\t\t    CaseResult storage\n      PUSH [tag] 48\t\t\tlt) external {\\n        CaseRe...\n      JUMP \t\t\tlt) external {\\n        CaseRe...\n    tag 91\t\t\tlt) external {\\n        CaseRe...\n      JUMPDEST \t\t\tlt) external {\\n        CaseRe...\n      SWAP2 \t\t\tuint8 result) external {\\n    ...\n      POP \t\t\tuint8 result) external {\\n    ...\n      POP \t\t\t }\\n\\n    function completeCas...\n      SWAP3 \t\t\ted(msg.sender, caseId, block.t...\n      SWAP2 \t\t\ted(msg.sender, caseId, block.t...\n      POP \t\t\ted(msg.sender, caseId, block.t...\n      POP \t\t\ted(msg.sender, caseId, block.t...\n      JUMP \t\t\ted(msg.sender, caseId, block.t...\n    tag 49\t\t\tId];\\n        require(r.seed !...\n      JUMPDEST \t\t\tId];\\n        require(r.seed !...\n      PUSH 0\t\t\tart cas\n      PUSH FFFFFFFFFFFFFFFFFFFFFFFFFFFFFFFFFFFFFFFF\t\t\tpleted, \"Already completed\");\\...\n      DUP3 \t\t\t(!r.c\n      AND \t\t\tuire(!r.completed, \"Already co...\n      SWAP1 \t\t\t        require(!r.completed, ...\n      POP \t\t\t        require(!r.completed, ...\n      SWAP2 \t\t\tId];\\n        require(r.seed !...\n      SWAP1 \t\t\tId];\\n        require(r.seed !...\n      POP \t\t\tId];\\n        require(r.seed !...\n      JUMP \t\t\tId];\\n        require(r.seed !...\n    tag 50\t\t\t;\\n        r.timestamp = block...\n      JUMPDEST \t\t\t;\\n        r.timestamp = block...\n      PUSH 0\t\t\tmp;\\n   \n      PUSH [tag] 94\t\t\te;\\n        string memory\n      DUP3 \t\t\tmemor\n      PUSH [tag] 49\t\t\te;\\n        string memory\n      JUMP \t\t\te;\\n        string memory\n    tag 94\t\t\te;\\n        string memory\n      JUMPDEST \t\t\te;\\n        string memory\n      SWAP1 \t\t\tleted = true;\\n        string ...\n      POP \t\t\tleted = true;\\n        string ...\n      SWAP2 \t\t\t;\\n        r.timestamp = block...\n      SWAP1 \t\t\t;\\n        r.timestamp = block...\n      POP \t\t\t;\\n        r.timestamp = block...\n      JUMP \t\t\t;\\n        r.timestamp = block...\n    tag 51\t\t\t      if (result == 1) message...\n      JUMPDEST \t\t\t      if (result == 1) message...\n      PUSH [tag] 96\t\t\tacker.\";\\n        else if\n      DUP2 \t\t\tlse i\n      PUSH [tag] 50\t\t\tacker.\";\\n        else if\n      JUMP \t\t\tacker.\";\\n        else if\n    tag 96\t\t\tacker.\";\\n        else if\n      JUMPDEST \t\t\tacker.\";\\n        else if\n      DUP2 \t\t\tthe a\n      EQ \t\t\ted the attacker.\";\\n        el...\n      PUSH [tag] 97\t\t\t and exposed the attacker.\";\\n...\n      JUMPI \t\t\t and exposed the attacker.\";\\n...\n      PUSH 0\t\t\tm\n      PUSH 0\t\t\t2\n      REVERT \t\t\tult == 2) me\n    tag 97\t\t\t and exposed the attacker.\";\\n...\n      JUMPDEST \t\t\t and exposed the attacker.\";\\n...\n      POP \t\t\t      if (result == 1) message...\n      JUMP \t\t\t      if (result == 1) message...\n    tag 52\t\t\tound clues but failed to recov...\n      JUMPDEST \t\t\tound clues but failed to recov...\n      PUSH 0\t\t\t     \n      DUP2 \t\t\t= \"You\n      CALLDATALOAD \t\t\t= 3) message = \"You \n      SWAP1 \t\t\t(result == 3) message = \"You \n      POP \t\t\t(result == 3) message = \"You \n      PUSH [tag] 99\t\t\the wrong wallet. Case unresolv...\n      DUP2 \t\t\tolved\n      PUSH [tag] 51\t\t\the wrong wallet. Case unresolv...\n      JUMP \t\t\the wrong wallet. Case unresolv...\n    tag 99\t\t\the wrong wallet. Case unresolv...\n      JUMPDEST \t\t\the wrong wallet. Case unresolv...\n      SWAP3 \t\t\tound clues but failed to recov...\n      SWAP2 \t\t\tound clues but failed to recov...\n      POP \t\t\tound clues but failed to recov...\n      POP \t\t\tound clues but failed to recov...\n      JUMP \t\t\tound clues but failed to recov...\n    tag 12\t\t\tlse message = \"Case closed wit...\n      JUMPDEST \t\t\tlse message = \"Case closed wit...\n      PUSH 0\t\t\tseComp\n      PUSH 0\t\t\tted(ms\n      PUSH 40\t\t\t\\n\n      DUP4 \t\t\tge);\\n    \n      DUP6 \t\t\tlt, mes\n      SUB \t\t\tresult, message);\\n    }\n      SLT \t\t\tId, result, message);\\n    }\\n...\n      ISZERO \t\t\taseId, result, message);\\n    ...\n      PUSH [tag] 101\t\t\taseId, result, message);\\n    ...\n      JUMPI \t\t\taseId, result, message);\\n    ...\n      PUSH [tag] 102\t\t\t\n      PUSH [tag] 44\t\t\t\n      JUMP \t\t\t\n    tag 102\t\t\t\n      JUMPDEST \t\t\t\n    tag 101\t\t\taseId, result, message);\\n    ...\n      JUMPDEST \t\t\taseId, result, message);\\n    ...\n      PUSH 0\t\t\t\n      PUSH [tag] 103\t\t\t\n      DUP6 \t\t\t\n      DUP3 \t\t\t\n      DUP7 \t\t\t\n      ADD \t\t\t\n      PUSH [tag] 52\t\t\t\n      JUMP \t\t\t\n    tag 103\t\t\t\n      JUMPDEST \t\t\t\n      SWAP3 \t\t\t\n      POP \t\t\t\n      POP \t\t\t\n      PUSH 20\t\t\t\n      PUSH [tag] 104\t\t\t\n      DUP6 \t\t\t\n      DUP3 \t\t\t\n      DUP7 \t\t\t\n      ADD \t\t\t\n      PUSH [tag] 48\t\t\t\n      JUMP \t\t\t\n    tag 104\t\t\t\n      JUMPDEST \t\t\t\n      SWAP2 \t\t\t\n      POP \t\t\t\n      POP \t\t\t\n      SWAP3 \t\t\tlse message = \"Case closed wit...\n      POP \t\t\tlse message = \"Case closed wit...\n      SWAP3 \t\t\tlse message = \"Case closed wit...\n      SWAP1 \t\t\tlse message = \"Case closed wit...\n      POP \t\t\tlse message = \"Case closed wit...\n      JUMP \t\t\tlse message = \"Case closed wit...\n    tag 53\t\t\t\n      JUMPDEST \t\t\t\n      PUSH 0\t\t\t\n      DUP2 \t\t\t\n      SWAP1 \t\t\t\n      POP \t\t\t\n      SWAP2 \t\t\t\n      SWAP1 \t\t\t\n      POP \t\t\t\n      JUMP \t\t\t\n    tag 54\t\t\t\n      JUMPDEST \t\t\t\n      PUSH [tag] 107\t\t\t\n      DUP2 \t\t\t\n      PUSH [tag] 53\t\t\t\n      JUMP \t\t\t\n    tag 107\t\t\t\n      JUMPDEST \t\t\t\n      DUP3 \t\t\t\n      MSTORE \t\t\t\n      POP \t\t\t\n      POP \t\t\t\n      JUMP \t\t\t\n    tag 55\t\t\t\n      JUMPDEST \t\t\t\n      PUSH [tag] 109\t\t\t\n      DUP2 \t\t\t\n      PUSH [tag] 46\t\t\t\n      JUMP \t\t\t\n    tag 109\t\t\t\n      JUMPDEST \t\t\t\n      DUP3 \t\t\t\n      MSTORE \t\t\t\n      POP \t\t\t\n      POP \t\t\t\n      JUMP \t\t\t\n    tag 56\t\t\t\n      JUMPDEST \t\t\t\n      PUSH 0\t\t\t\n      DUP2 \t\t\t\n      ISZERO \t\t\t\n      ISZERO \t\t\t\n      SWAP1 \t\t\t\n      POP \t\t\t\n      SWAP2 \t\t\t\n      SWAP1 \t\t\t\n      POP \t\t\t\n      JUMP \t\t\t\n    tag 57\t\t\t\n      JUMPDEST \t\t\t\n      PUSH [tag] 112\t\t\t\n      DUP2 \t\t\t\n      PUSH [tag] 56\t\t\t\n      JUMP \t\t\t\n    tag 112\t\t\t\n      JUMPDEST \t\t\t\n      DUP3 \t\t\t\n      MSTORE \t\t\t\n      POP \t\t\t\n      POP \t\t\t\n      JUMP \t\t\t\n    tag 15\t\t\t\n      JUMPDEST \t\t\t\n      PUSH 0\t\t\t\n      PUSH 80\t\t\t\n      DUP3 \t\t\t\n      ADD \t\t\t\n      SWAP1 \t\t\t\n      POP \t\t\t\n      PUSH [tag] 114\t\t\t\n      PUSH 0\t\t\t\n      DUP4 \t\t\t\n      ADD \t\t\t\n      DUP8 \t\t\t\n      PUSH [tag] 54\t\t\t\n      JUMP \t\t\t\n    tag 114\t\t\t\n      JUMPDEST \t\t\t\n      PUSH [tag] 115\t\t\t\n      PUSH 20\t\t\t\n      DUP4 \t\t\t\n      ADD \t\t\t\n      DUP7 \t\t\t\n      PUSH [tag] 55\t\t\t\n      JUMP \t\t\t\n    tag 115\t\t\t\n      JUMPDEST \t\t\t\n      PUSH [tag] 116\t\t\t\n      PUSH 40\t\t\t\n      DUP4 \t\t\t\n      ADD \t\t\t\n      DUP6 \t\t\t\n      PUSH [tag] 54\t\t\t\n      JUMP \t\t\t\n    tag 116\t\t\t\n      JUMPDEST \t\t\t\n      PUSH [tag] 117\t\t\t\n      PUSH 60\t\t\t\n      DUP4 \t\t\t\n      ADD \t\t\t\n      DUP5 \t\t\t\n      PUSH [tag] 57\t\t\t\n      JUMP \t\t\t\n    tag 117\t\t\t\n      JUMPDEST \t\t\t\n      SWAP6 \t\t\t\n      SWAP5 \t\t\t\n      POP \t\t\t\n      POP \t\t\t\n      POP \t\t\t\n      POP \t\t\t\n      POP \t\t\t\n      JUMP \t\t\t\n    tag 18\t\t\t\n      JUMPDEST \t\t\t\n      PUSH 0\t\t\t\n      PUSH 0\t\t\t\n      PUSH 40\t\t\t\n      DUP4 \t\t\t\n      DUP6 \t\t\t\n      SUB \t\t\t\n      SLT \t\t\t\n      ISZERO \t\t\t\n      PUSH [tag] 119\t\t\t\n      JUMPI \t\t\t\n      PUSH [tag] 120\t\t\t\n      PUSH [tag] 44\t\t\t\n      JUMP \t\t\t\n    tag 120\t\t\t\n      JUMPDEST \t\t\t\n    tag 119\t\t\t\n      JUMPDEST \t\t\t\n      PUSH 0\t\t\t\n      PUSH [tag] 121\t\t\t\n      DUP6 \t\t\t\n      DUP3 \t\t\t\n      DUP7 \t\t\t\n      ADD \t\t\t\n      PUSH [tag] 48\t\t\t\n      JUMP \t\t\t\n    tag 121\t\t\t\n      JUMPDEST \t\t\t\n      SWAP3 \t\t\t\n      POP \t\t\t\n      POP \t\t\t\n      PUSH 20\t\t\t\n      PUSH [tag] 122\t\t\t\n      DUP6 \t\t\t\n      DUP3 \t\t\t\n      DUP7 \t\t\t\n      ADD \t\t\t\n      PUSH [tag] 48\t\t\t\n      JUMP \t\t\t\n    tag 122\t\t\t\n      JUMPDEST \t\t\t\n      SWAP2 \t\t\t\n      POP \t\t\t\n      POP \t\t\t\n      SWAP3 \t\t\t\n      POP \t\t\t\n      SWAP3 \t\t\t\n      SWAP1 \t\t\t\n      POP \t\t\t\n      JUMP \t\t\t\n    tag 58\t\t\t\n      JUMPDEST \t\t\t\n      PUSH 0\t\t\t\n      DUP3 \t\t\t\n      DUP3 \t\t\t\n      MSTORE \t\t\t\n      PUSH 20\t\t\t\n      DUP3 \t\t\t\n      ADD \t\t\t\n      SWAP1 \t\t\t\n      POP \t\t\t\n      SWAP3 \t\t\t\n      SWAP2 \t\t\t\n      POP \t\t\t\n      POP \t\t\t\n      JUMP \t\t\t\n    tag 59\t\t\t\n      JUMPDEST \t\t\t\n      PUSH 416C726561647920737461727465642074686973206361736500000000000000\t\t\t\n      PUSH 0\t\t\t\n      DUP3 \t\t\t\n      ADD \t\t\t\n      MSTORE \t\t\t\n      POP \t\t\t\n      JUMP \t\t\t\n    tag 60\t\t\t\n      JUMPDEST \t\t\t\n      PUSH 0\t\t\t\n      PUSH [tag] 126\t\t\t\n      PUSH 19\t\t\t\n      DUP4 \t\t\t\n      PUSH [tag] 58\t\t\t\n      JUMP \t\t\t\n    tag 126\t\t\t\n      JUMPDEST \t\t\t\n      SWAP2 \t\t\t\n      POP \t\t\t\n      PUSH [tag] 127\t\t\t\n      DUP3 \t\t\t\n      PUSH [tag] 59\t\t\t\n      JUMP \t\t\t\n    tag 127\t\t\t\n      JUMPDEST \t\t\t\n      PUSH 20\t\t\t\n      DUP3 \t\t\t\n      ADD \t\t\t\n      SWAP1 \t\t\t\n      POP \t\t\t\n      SWAP2 \t\t\t\n      SWAP1 \t\t\t\n      POP \t\t\t\n      JUMP \t\t\t\n    tag 23\t\t\t\n      JUMPDEST \t\t\t\n      PUSH 0\t\t\t\n      PUSH 20\t\t\t\n      DUP3 \t\t\t\n      ADD \t\t\t\n      SWAP1 \t\t\t\n      POP \t\t\t\n      DUP2 \t\t\t\n      DUP2 \t\t\t\n      SUB \t\t\t\n      PUSH 0\t\t\t\n      DUP4 \t\t\t\n      ADD \t\t\t\n      MSTORE \t\t\t\n      PUSH [tag] 129\t\t\t\n      DUP2 \t\t\t\n      PUSH [tag] 60\t\t\t\n      JUMP \t\t\t\n    tag 129\t\t\t\n      JUMPDEST \t\t\t\n      SWAP1 \t\t\t\n      POP \t\t\t\n      SWAP2 \t\t\t\n      SWAP1 \t\t\t\n      POP \t\t\t\n      JUMP \t\t\t\n    tag 61\t\t\t\n      JUMPDEST \t\t\t\n      PUSH 0\t\t\t\n      DUP2 \t\t\t\n      PUSH 60\t\t\t\n      SHL \t\t\t\n      SWAP1 \t\t\t\n      POP \t\t\t\n      SWAP2 \t\t\t\n      SWAP1 \t\t\t\n      POP \t\t\t\n      JUMP \t\t\t\n    tag 62\t\t\t\n      JUMPDEST \t\t\t\n      PUSH 0\t\t\t\n      PUSH [tag] 132\t\t\t\n      DUP3 \t\t\t\n      PUSH [tag] 61\t\t\t\n      JUMP \t\t\t\n    tag 132\t\t\t\n      JUMPDEST \t\t\t\n      SWAP1 \t\t\t\n      POP \t\t\t\n      SWAP2 \t\t\t\n      SWAP1 \t\t\t\n      POP \t\t\t\n      JUMP \t\t\t\n    tag 63\t\t\t\n      JUMPDEST \t\t\t\n      PUSH 0\t\t\t\n      PUSH [tag] 134\t\t\t\n      DUP3 \t\t\t\n      PUSH [tag] 62\t\t\t\n      JUMP \t\t\t\n    tag 134\t\t\t\n      JUMPDEST \t\t\t\n      SWAP1 \t\t\t\n      POP \t\t\t\n      SWAP2 \t\t\t\n      SWAP1 \t\t\t\n      POP \t\t\t\n      JUMP \t\t\t\n    tag 64\t\t\t\n      JUMPDEST \t\t\t\n      PUSH [tag] 136\t\t\t\n      PUSH [tag] 137\t\t\t\n      DUP3 \t\t\t\n      PUSH [tag] 50\t\t\t\n      JUMP \t\t\t\n    tag 137\t\t\t\n      JUMPDEST \t\t\t\n      PUSH [tag] 63\t\t\t\n      JUMP \t\t\t\n    tag 136\t\t\t\n      JUMPDEST \t\t\t\n      DUP3 \t\t\t\n      MSTORE \t\t\t\n      POP \t\t\t\n      POP \t\t\t\n      JUMP \t\t\t\n    tag 65\t\t\t\n      JUMPDEST \t\t\t\n      PUSH 0\t\t\t\n      DUP2 \t\t\t\n      PUSH F8\t\t\t\n      SHL \t\t\t\n      SWAP1 \t\t\t\n      POP \t\t\t\n      SWAP2 \t\t\t\n      SWAP1 \t\t\t\n      POP \t\t\t\n      JUMP \t\t\t\n    tag 66\t\t\t\n      JUMPDEST \t\t\t\n      PUSH 0\t\t\t\n      PUSH [tag] 140\t\t\t\n      DUP3 \t\t\t\n      PUSH [tag] 65\t\t\t\n      JUMP \t\t\t\n    tag 140\t\t\t\n      JUMPDEST \t\t\t\n      SWAP1 \t\t\t\n      POP \t\t\t\n      SWAP2 \t\t\t\n      SWAP1 \t\t\t\n      POP \t\t\t\n      JUMP \t\t\t\n    tag 67\t\t\t\n      JUMPDEST \t\t\t\n      PUSH [tag] 142\t\t\t\n      PUSH [tag] 143\t\t\t\n      DUP3 \t\t\t\n      PUSH [tag] 46\t\t\t\n      JUMP \t\t\t\n    tag 143\t\t\t\n      JUMPDEST \t\t\t\n      PUSH [tag] 66\t\t\t\n      JUMP \t\t\t\n    tag 142\t\t\t\n      JUMPDEST \t\t\t\n      DUP3 \t\t\t\n      MSTORE \t\t\t\n      POP \t\t\t\n      POP \t\t\t\n      JUMP \t\t\t\n    tag 68\t\t\t\n      JUMPDEST \t\t\t\n      PUSH 0\t\t\t\n      DUP2 \t\t\t\n      SWAP1 \t\t\t\n      POP \t\t\t\n      SWAP2 \t\t\t\n      SWAP1 \t\t\t\n      POP \t\t\t\n      JUMP \t\t\t\n    tag 69\t\t\t\n      JUMPDEST \t\t\t\n      PUSH [tag] 146\t\t\t\n      PUSH [tag] 147\t\t\t\n      DUP3 \t\t\t\n      PUSH [tag] 53\t\t\t\n      JUMP \t\t\t\n    tag 147\t\t\t\n      JUMPDEST \t\t\t\n      PUSH [tag] 68\t\t\t\n      JUMP \t\t\t\n    tag 146\t\t\t\n      JUMPDEST \t\t\t\n      DUP3 \t\t\t\n      MSTORE \t\t\t\n      POP \t\t\t\n      POP \t\t\t\n      JUMP \t\t\t\n    tag 25\t\t\t\n      JUMPDEST \t\t\t\n      PUSH 0\t\t\t\n      PUSH [tag] 149\t\t\t\n      DUP3 \t\t\t\n      DUP8 \t\t\t\n      PUSH [tag] 64\t\t\t\n      JUMP \t\t\t\n    tag 149\t\t\t\n      JUMPDEST \t\t\t\n      PUSH 14\t\t\t\n      DUP3 \t\t\t\n      ADD \t\t\t\n      SWAP2 \t\t\t\n      POP \t\t\t\n      PUSH [tag] 150\t\t\t\n      DUP3 \t\t\t\n      DUP7 \t\t\t\n      PUSH [tag] 67\t\t\t\n      JUMP \t\t\t\n    tag 150\t\t\t\n      JUMPDEST \t\t\t\n      PUSH 1\t\t\t\n      DUP3 \t\t\t\n      ADD \t\t\t\n      SWAP2 \t\t\t\n      POP \t\t\t\n      PUSH [tag] 151\t\t\t\n      DUP3 \t\t\t\n      DUP6 \t\t\t\n      PUSH [tag] 69\t\t\t\n      JUMP \t\t\t\n    tag 151\t\t\t\n      JUMPDEST \t\t\t\n      PUSH 20\t\t\t\n      DUP3 \t\t\t\n      ADD \t\t\t\n      SWAP2 \t\t\t\n      POP \t\t\t\n      PUSH [tag] 152\t\t\t\n      DUP3 \t\t\t\n      DUP5 \t\t\t\n      PUSH [tag] 69\t\t\t\n      JUMP \t\t\t\n    tag 152\t\t\t\n      JUMPDEST \t\t\t\n      PUSH 20\t\t\t\n      DUP3 \t\t\t\n      ADD \t\t\t\n      SWAP2 \t\t\t\n      POP \t\t\t\n      DUP2 \t\t\t\n      SWAP1 \t\t\t\n      POP \t\t\t\n      SWAP6 \t\t\t\n      SWAP5 \t\t\t\n      POP \t\t\t\n      POP \t\t\t\n      POP \t\t\t\n      POP \t\t\t\n      POP \t\t\t\n      JUMP \t\t\t\n    tag 27\t\t\t\n      JUMPDEST \t\t\t\n      PUSH 0\t\t\t\n      PUSH 40\t\t\t\n      DUP3 \t\t\t\n      ADD \t\t\t\n      SWAP1 \t\t\t\n      POP \t\t\t\n      PUSH [tag] 154\t\t\t\n      PUSH 0\t\t\t\n      DUP4 \t\t\t\n      ADD \t\t\t\n      DUP6 \t\t\t\n      PUSH [tag] 55\t\t\t\n      JUMP \t\t\t\n    tag 154\t\t\t\n      JUMPDEST \t\t\t\n      PUSH [tag] 155\t\t\t\n      PUSH 20\t\t\t\n      DUP4 \t\t\t\n      ADD \t\t\t\n      DUP5 \t\t\t\n      PUSH [tag] 54\t\t\t\n      JUMP \t\t\t\n    tag 155\t\t\t\n      JUMPDEST \t\t\t\n      SWAP4 \t\t\t\n      SWAP3 \t\t\t\n      POP \t\t\t\n      POP \t\t\t\n      POP \t\t\t\n      JUMP \t\t\t\n    tag 70\t\t\t\n      JUMPDEST \t\t\t\n      PUSH 5374617274206361736520666972737400000000000000000000000000000000\t\t\t\n      PUSH 0\t\t\t\n      DUP3 \t\t\t\n      ADD \t\t\t\n      MSTORE \t\t\t\n      POP \t\t\t\n      JUMP \t\t\t\n    tag 71\t\t\t\n      JUMPDEST \t\t\t\n      PUSH 0\t\t\t\n      PUSH [tag] 158\t\t\t\n      PUSH 10\t\t\t\n      DUP4 \t\t\t\n      PUSH [tag] 58\t\t\t\n      JUMP \t\t\t\n    tag 158\t\t\t\n      JUMPDEST \t\t\t\n      SWAP2 \t\t\t\n      POP \t\t\t\n      PUSH [tag] 159\t\t\t\n      DUP3 \t\t\t\n      PUSH [tag] 70\t\t\t\n      JUMP \t\t\t\n    tag 159\t\t\t\n      JUMPDEST \t\t\t\n      PUSH 20\t\t\t\n      DUP3 \t\t\t\n      ADD \t\t\t\n      SWAP1 \t\t\t\n      POP \t\t\t\n      SWAP2 \t\t\t\n      SWAP1 \t\t\t\n      POP \t\t\t\n      JUMP \t\t\t\n    tag 31\t\t\t\n      JUMPDEST \t\t\t\n      PUSH 0\t\t\t\n      PUSH 20\t\t\t\n      DUP3 \t\t\t\n      ADD \t\t\t\n      SWAP1 \t\t\t\n      POP \t\t\t\n      DUP2 \t\t\t\n      DUP2 \t\t\t\n      SUB \t\t\t\n      PUSH 0\t\t\t\n      DUP4 \t\t\t\n      ADD \t\t\t\n      MSTORE \t\t\t\n      PUSH [tag] 161\t\t\t\n      DUP2 \t\t\t\n      PUSH [tag] 71\t\t\t\n      JUMP \t\t\t\n    tag 161\t\t\t\n      JUMPDEST \t\t\t\n      SWAP1 \t\t\t\n      POP \t\t\t\n      SWAP2 \t\t\t\n      SWAP1 \t\t\t\n      POP \t\t\t\n      JUMP \t\t\t\n    tag 72\t\t\t\n      JUMPDEST \t\t\t\n      PUSH 416C726561647920636F6D706C65746564000000000000000000000000000000\t\t\t\n      PUSH 0\t\t\t\n      DUP3 \t\t\t\n      ADD \t\t\t\n      MSTORE \t\t\t\n      POP \t\t\t\n      JUMP \t\t\t\n    tag 73\t\t\t\n      JUMPDEST \t\t\t\n      PUSH 0\t\t\t\n      PUSH [tag] 164\t\t\t\n      PUSH 11\t\t\t\n      DUP4 \t\t\t\n      PUSH [tag] 58\t\t\t\n      JUMP \t\t\t\n    tag 164\t\t\t\n      JUMPDEST \t\t\t\n      SWAP2 \t\t\t\n      POP \t\t\t\n      PUSH [tag] 165\t\t\t\n      DUP3 \t\t\t\n      PUSH [tag] 72\t\t\t\n      JUMP \t\t\t\n    tag 165\t\t\t\n      JUMPDEST \t\t\t\n      PUSH 20\t\t\t\n      DUP3 \t\t\t\n      ADD \t\t\t\n      SWAP1 \t\t\t\n      POP \t\t\t\n      SWAP2 \t\t\t\n      SWAP1 \t\t\t\n      POP \t\t\t\n      JUMP \t\t\t\n    tag 34\t\t\t\n      JUMPDEST \t\t\t\n      PUSH 0\t\t\t\n      PUSH 20\t\t\t\n      DUP3 \t\t\t\n      ADD \t\t\t\n      SWAP1 \t\t\t\n      POP \t\t\t\n      DUP2 \t\t\t\n      DUP2 \t\t\t\n      SUB \t\t\t\n      PUSH 0\t\t\t\n      DUP4 \t\t\t\n      ADD \t\t\t\n      MSTORE \t\t\t\n      PUSH [tag] 167\t\t\t\n      DUP2 \t\t\t\n      PUSH [tag] 73\t\t\t\n      JUMP \t\t\t\n    tag 167\t\t\t\n      JUMPDEST \t\t\t\n      SWAP1 \t\t\t\n      POP \t\t\t\n      SWAP2 \t\t\t\n      SWAP1 \t\t\t\n      POP \t\t\t\n      JUMP \t\t\t\n    tag 74\t\t\t\n      JUMPDEST \t\t\t\n      PUSH 0\t\t\t\n      DUP2 \t\t\t\n      MLOAD \t\t\t\n      SWAP1 \t\t\t\n      POP \t\t\t\n      SWAP2 \t\t\t\n      SWAP1 \t\t\t\n      POP \t\t\t\n      JUMP \t\t\t\n    tag 75\t\t\t\n      JUMPDEST \t\t\t\n      DUP3 \t\t\t\n      DUP2 \t\t\t\n      DUP4 \t\t\t\n      MCOPY \t\t\t\n      PUSH 0\t\t\t\n      DUP4 \t\t\t\n      DUP4 \t\t\t\n      ADD \t\t\t\n      MSTORE \t\t\t\n      POP \t\t\t\n      POP \t\t\t\n      POP \t\t\t\n      JUMP \t\t\t\n    tag 76\t\t\t\n      JUMPDEST \t\t\t\n      PUSH 0\t\t\t\n      PUSH 1F\t\t\t\n      NOT \t\t\t\n      PUSH 1F\t\t\t\n      DUP4 \t\t\t\n      ADD \t\t\t\n      AND \t\t\t\n      SWAP1 \t\t\t\n      POP \t\t\t\n      SWAP2 \t\t\t\n      SWAP1 \t\t\t\n      POP \t\t\t\n      JUMP \t\t\t\n    tag 77\t\t\t\n      JUMPDEST \t\t\t\n      PUSH 0\t\t\t\n      PUSH [tag] 172\t\t\t\n      DUP3 \t\t\t\n      PUSH [tag] 74\t\t\t\n      JUMP \t\t\t\n    tag 172\t\t\t\n      JUMPDEST \t\t\t\n      PUSH [tag] 173\t\t\t\n      DUP2 \t\t\t\n      DUP6 \t\t\t\n      PUSH [tag] 58\t\t\t\n      JUMP \t\t\t\n    tag 173\t\t\t\n      JUMPDEST \t\t\t\n      SWAP4 \t\t\t\n      POP \t\t\t\n      PUSH [tag] 174\t\t\t\n      DUP2 \t\t\t\n      DUP6 \t\t\t\n      PUSH 20\t\t\t\n      DUP7 \t\t\t\n      ADD \t\t\t\n      PUSH [tag] 75\t\t\t\n      JUMP \t\t\t\n    tag 174\t\t\t\n      JUMPDEST \t\t\t\n      PUSH [tag] 175\t\t\t\n      DUP2 \t\t\t\n      PUSH [tag] 76\t\t\t\n      JUMP \t\t\t\n    tag 175\t\t\t\n      JUMPDEST \t\t\t\n      DUP5 \t\t\t\n      ADD \t\t\t\n      SWAP2 \t\t\t\n      POP \t\t\t\n      POP \t\t\t\n      SWAP3 \t\t\t\n      SWAP2 \t\t\t\n      POP \t\t\t\n      POP \t\t\t\n      JUMP \t\t\t\n    tag 42\t\t\t\n      JUMPDEST \t\t\t\n      PUSH 0\t\t\t\n      PUSH 60\t\t\t\n      DUP3 \t\t\t\n      ADD \t\t\t\n      SWAP1 \t\t\t\n      POP \t\t\t\n      PUSH [tag] 177\t\t\t\n      PUSH 0\t\t\t\n      DUP4 \t\t\t\n      ADD \t\t\t\n      DUP7 \t\t\t\n      PUSH [tag] 55\t\t\t\n      JUMP \t\t\t\n    tag 177\t\t\t\n      JUMPDEST \t\t\t\n      PUSH [tag] 178\t\t\t\n      PUSH 20\t\t\t\n      DUP4 \t\t\t\n      ADD \t\t\t\n      DUP6 \t\t\t\n      PUSH [tag] 55\t\t\t\n      JUMP \t\t\t\n    tag 178\t\t\t\n      JUMPDEST \t\t\t\n      DUP2 \t\t\t\n      DUP2 \t\t\t\n      SUB \t\t\t\n      PUSH 40\t\t\t\n      DUP4 \t\t\t\n      ADD \t\t\t\n      MSTORE \t\t\t\n      PUSH [tag] 179\t\t\t\n      DUP2 \t\t\t\n      DUP5 \t\t\t\n      PUSH [tag] 77\t\t\t\n      JUMP \t\t\t\n    tag 179\t\t\t\n      JUMPDEST \t\t\t\n      SWAP1 \t\t\t\n      POP \t\t\t\n      SWAP5 \t\t\t\n      SWAP4 \t\t\t\n      POP \t\t\t\n      POP \t\t\t\n      POP \t\t\t\n      POP \t\t\t\n      JUMP \t\t\t\n    .data\n      5CD285BFD21A7AD798FA6C32BC7752344A4A577D93322B39A23F6B8BF70C664C:\n        596f7520666f756e6420636c75657320627574206661696c656420746f207265636f766572207468652066756e64732e\n      6828DB3C17B791347803D4E9D1D6E69EAC6CE7C8FECBF35E0A94BA3E1E107164:\n        4361736520636c6f736564207769746820756e6b6e6f776e206f7574636f6d652e\n      83EF5A3501B198118229992CF05CBBEF4C71773A10D72262F1B7A77E4B2BA92E:\n        596f7520736f6c76656420746865206361736520616e64206578706f736564207468652061747461636b65722e\n      F0C046992FD40B888A5B2F254DE8187A1F179FEEA121D979AF4FCF7858F6B45C:\n        596f752061636375736564207468652077726f6e672077616c6c65742e204361736520756e7265736f6c7665642e\n"
}