{
	"compilerInput": "{\"language\":\"Solidity\",\"sources\":{\"qu.sol\":{\"content\":\"// SPDX-License-Identifier: MIT\\npragma solidity ^0.8.20;\\n\\n/// @title Base Detective - on-chain record of completed investigations\\n/// @notice Records only the *final* result after a user finishes the quiz.\\n/// @dev Designed for Farcaster Miniapp, single transaction per user completion.\\ncontract BaseDetective {\\n    struct Result {\\n        uint256 caseId;      // ID of the case (quest)\\n        uint256 score;       // Player's final score\\n        uint256 timestamp;   // When the case was completed\\n    }\\n\\n    mapping(address => Result) public playerResults;\\n    mapping(address => bool) public hasCompleted;\\n\\n    event CaseCompleted(address indexed player, uint256 caseId, uint256 score, uint256 timestamp);\\n\\n    /// @notice Record a player's final result (only once per completion)\\n    /// @param caseId The ID of the case or quest\\n    /// @param score The user's final score (0–100 or similar)\\n    function completeCase(uint256 caseId, uint256 score) external {\\n        require(score > 0, \\\"Invalid score\\\");\\n        require(score <= 100, \\\"Score too high\\\");\\n\\n        playerResults[msg.sender] = Result({\\n            caseId: caseId,\\n            score: score,\\n            timestamp: block.timestamp\\n        });\\n\\n        hasCompleted[msg.sender] = true;\\n\\n        emit CaseCompleted(msg.sender, caseId, score, block.timestamp);\\n    }\\n\\n    /// @notice Get player result\\n    /// @param player Address of the user\\n    function getResult(address player)\\n        external\\n        view\\n        returns (uint256 caseId, uint256 score, uint256 timestamp)\\n    {\\n        Result memory r = playerResults[player];\\n        return (r.caseId, r.score, r.timestamp);\\n    }\\n\\n    /// @notice Allow user to reset progress and replay (optional)\\n    function reset() external {\\n        delete playerResults[msg.sender];\\n        hasCompleted[msg.sender] = false;\\n    }\\n}\\n\"}},\"settings\":{\"optimizer\":{\"enabled\":false,\"runs\":200},\"outputSelection\":{\"*\":{\"\":[\"ast\"],\"*\":[\"abi\",\"metadata\",\"devdoc\",\"userdoc\",\"storageLayout\",\"evm.legacyAssembly\",\"evm.bytecode\",\"evm.deployedBytecode\",\"evm.methodIdentifiers\",\"evm.gasEstimates\",\"evm.assembly\"]}},\"remappings\":[]}}",
	"name": "BaseDetective",
	"bytecode": {
		"linkReferences": {},
		"object": "6080604052348015600e575f5ffd5b506106b18061001c5f395ff3fe608060405234801561000f575f5ffd5b5060043610610055575f3560e01c806314550a2f1461005957806331f2925014610075578063446a37e0146100a55780638668ea04146100d7578063d826f88f14610109575b5f5ffd5b610073600480360381019061006e9190610461565b610113565b005b61008f600480360381019061008a91906104f9565b6102b9565b60405161009c919061053e565b60405180910390f35b6100bf60048036038101906100ba91906104f9565b6102d6565b6040516100ce93929190610566565b60405180910390f35b6100f160048036038101906100ec91906104f9565b61035c565b60405161010093929190610566565b60405180910390f35b610111610381565b005b5f8111610155576040517f08c379a000000000000000000000000000000000000000000000000000000000815260040161014c906105f5565b60405180910390fd5b6064811115610199576040517f08c379a00000000000000000000000000000000000000000000000000000000081526004016101909061065d565b60405180910390fd5b6040518060600160405280838152602001828152602001428152505f5f3373ffffffffffffffffffffffffffffffffffffffff1673ffffffffffffffffffffffffffffffffffffffff1681526020019081526020015f205f820151815f015560208201518160010155604082015181600201559050506001805f3373ffffffffffffffffffffffffffffffffffffffff1673ffffffffffffffffffffffffffffffffffffffff1681526020019081526020015f205f6101000a81548160ff0219169083151502179055503373ffffffffffffffffffffffffffffffffffffffff167f68223dbb4330c48f7353ee5499b3cadb344b08e1e75b973bfd4b6329f5151b1a8383426040516102ad93929190610566565b60405180910390a25050565b6001602052805f5260405f205f915054906101000a900460ff1681565b5f5f5f5f5f5f8673ffffffffffffffffffffffffffffffffffffffff1673ffffffffffffffffffffffffffffffffffffffff1681526020019081526020015f206040518060600160405290815f8201548152602001600182015481526020016002820154815250509050805f015181602001518260400151935093509350509193909250565b5f602052805f5260405f205f91509050805f0154908060010154908060020154905083565b5f5f3373ffffffffffffffffffffffffffffffffffffffff1673ffffffffffffffffffffffffffffffffffffffff1681526020019081526020015f205f5f82015f9055600182015f9055600282015f905550505f60015f3373ffffffffffffffffffffffffffffffffffffffff1673ffffffffffffffffffffffffffffffffffffffff1681526020019081526020015f205f6101000a81548160ff021916908315150217905550565b5f5ffd5b5f819050919050565b6104408161042e565b811461044a575f5ffd5b50565b5f8135905061045b81610437565b92915050565b5f5f604083850312156104775761047661042a565b5b5f6104848582860161044d565b92505060206104958582860161044d565b9150509250929050565b5f73ffffffffffffffffffffffffffffffffffffffff82169050919050565b5f6104c88261049f565b9050919050565b6104d8816104be565b81146104e2575f5ffd5b50565b5f813590506104f3816104cf565b92915050565b5f6020828403121561050e5761050d61042a565b5b5f61051b848285016104e5565b91505092915050565b5f8115159050919050565b61053881610524565b82525050565b5f6020820190506105515f83018461052f565b92915050565b6105608161042e565b82525050565b5f6060820190506105795f830186610557565b6105866020830185610557565b6105936040830184610557565b949350505050565b5f82825260208201905092915050565b7f496e76616c69642073636f7265000000000000000000000000000000000000005f82015250565b5f6105df600d8361059b565b91506105ea826105ab565b602082019050919050565b5f6020820190508181035f83015261060c816105d3565b9050919050565b7f53636f726520746f6f20686967680000000000000000000000000000000000005f82015250565b5f610647600e8361059b565b915061065282610613565b602082019050919050565b5f6020820190508181035f8301526106748161063b565b905091905056fea26469706673582212204d7448fa7c50172d51ad34f1b6931127c0a231b41879475d41ee55b70bc36b6264736f6c634300081e0033",
		"opcodes": "PUSH1 0x80 PUSH1 0x40 MSTORE CALLVALUE DUP1 ISZERO PUSH1 0xE JUMPI PUSH0 PUSH0 REVERT JUMPDEST POP PUSH2 0x6B1 DUP1 PUSH2 0x1C PUSH0 CODECOPY PUSH0 RETURN INVALID PUSH1 0x80 PUSH1 0x40 MSTORE CALLVALUE DUP1 ISZERO PUSH2 0xF JUMPI PUSH0 PUSH0 REVERT JUMPDEST POP PUSH1 0x4 CALLDATASIZE LT PUSH2 0x55 JUMPI PUSH0 CALLDATALOAD PUSH1 0xE0 SHR DUP1 PUSH4 0x14550A2F EQ PUSH2 0x59 JUMPI DUP1 PUSH4 0x31F29250 EQ PUSH2 0x75 JUMPI DUP1 PUSH4 0x446A37E0 EQ PUSH2 0xA5 JUMPI DUP1 PUSH4 0x8668EA04 EQ PUSH2 0xD7 JUMPI DUP1 PUSH4 0xD826F88F EQ PUSH2 0x109 JUMPI JUMPDEST PUSH0 PUSH0 REVERT JUMPDEST PUSH2 0x73 PUSH1 0x4 DUP1 CALLDATASIZE SUB DUP2 ADD SWAP1 PUSH2 0x6E SWAP2 SWAP1 PUSH2 0x461 JUMP JUMPDEST PUSH2 0x113 JUMP JUMPDEST STOP JUMPDEST PUSH2 0x8F PUSH1 0x4 DUP1 CALLDATASIZE SUB DUP2 ADD SWAP1 PUSH2 0x8A SWAP2 SWAP1 PUSH2 0x4F9 JUMP JUMPDEST PUSH2 0x2B9 JUMP JUMPDEST PUSH1 0x40 MLOAD PUSH2 0x9C SWAP2 SWAP1 PUSH2 0x53E JUMP JUMPDEST PUSH1 0x40 MLOAD DUP1 SWAP2 SUB SWAP1 RETURN JUMPDEST PUSH2 0xBF PUSH1 0x4 DUP1 CALLDATASIZE SUB DUP2 ADD SWAP1 PUSH2 0xBA SWAP2 SWAP1 PUSH2 0x4F9 JUMP JUMPDEST PUSH2 0x2D6 JUMP JUMPDEST PUSH1 0x40 MLOAD PUSH2 0xCE SWAP4 SWAP3 SWAP2 SWAP1 PUSH2 0x566 JUMP JUMPDEST PUSH1 0x40 MLOAD DUP1 SWAP2 SUB SWAP1 RETURN JUMPDEST PUSH2 0xF1 PUSH1 0x4 DUP1 CALLDATASIZE SUB DUP2 ADD SWAP1 PUSH2 0xEC SWAP2 SWAP1 PUSH2 0x4F9 JUMP JUMPDEST PUSH2 0x35C JUMP JUMPDEST PUSH1 0x40 MLOAD PUSH2 0x100 SWAP4 SWAP3 SWAP2 SWAP1 PUSH2 0x566 JUMP JUMPDEST PUSH1 0x40 MLOAD DUP1 SWAP2 SUB SWAP1 RETURN JUMPDEST PUSH2 0x111 PUSH2 0x381 JUMP JUMPDEST STOP JUMPDEST PUSH0 DUP2 GT PUSH2 0x155 JUMPI PUSH1 0x40 MLOAD PUSH32 0x8C379A000000000000000000000000000000000000000000000000000000000 DUP2 MSTORE PUSH1 0x4 ADD PUSH2 0x14C SWAP1 PUSH2 0x5F5 JUMP JUMPDEST PUSH1 0x40 MLOAD DUP1 SWAP2 SUB SWAP1 REVERT JUMPDEST PUSH1 0x64 DUP2 GT ISZERO PUSH2 0x199 JUMPI PUSH1 0x40 MLOAD PUSH32 0x8C379A000000000000000000000000000000000000000000000000000000000 DUP2 MSTORE PUSH1 0x4 ADD PUSH2 0x190 SWAP1 PUSH2 0x65D JUMP JUMPDEST PUSH1 0x40 MLOAD DUP1 SWAP2 SUB SWAP1 REVERT JUMPDEST PUSH1 0x40 MLOAD DUP1 PUSH1 0x60 ADD PUSH1 0x40 MSTORE DUP1 DUP4 DUP2 MSTORE PUSH1 0x20 ADD DUP3 DUP2 MSTORE PUSH1 0x20 ADD TIMESTAMP DUP2 MSTORE POP PUSH0 PUSH0 CALLER PUSH20 0xFFFFFFFFFFFFFFFFFFFFFFFFFFFFFFFFFFFFFFFF AND PUSH20 0xFFFFFFFFFFFFFFFFFFFFFFFFFFFFFFFFFFFFFFFF AND DUP2 MSTORE PUSH1 0x20 ADD SWAP1 DUP2 MSTORE PUSH1 0x20 ADD PUSH0 KECCAK256 PUSH0 DUP3 ADD MLOAD DUP2 PUSH0 ADD SSTORE PUSH1 0x20 DUP3 ADD MLOAD DUP2 PUSH1 0x1 ADD SSTORE PUSH1 0x40 DUP3 ADD MLOAD DUP2 PUSH1 0x2 ADD SSTORE SWAP1 POP POP PUSH1 0x1 DUP1 PUSH0 CALLER PUSH20 0xFFFFFFFFFFFFFFFFFFFFFFFFFFFFFFFFFFFFFFFF AND PUSH20 0xFFFFFFFFFFFFFFFFFFFFFFFFFFFFFFFFFFFFFFFF AND DUP2 MSTORE PUSH1 0x20 ADD SWAP1 DUP2 MSTORE PUSH1 0x20 ADD PUSH0 KECCAK256 PUSH0 PUSH2 0x100 EXP DUP2 SLOAD DUP2 PUSH1 0xFF MUL NOT AND SWAP1 DUP4 ISZERO ISZERO MUL OR SWAP1 SSTORE POP CALLER PUSH20 0xFFFFFFFFFFFFFFFFFFFFFFFFFFFFFFFFFFFFFFFF AND PUSH32 0x68223DBB4330C48F7353EE5499B3CADB344B08E1E75B973BFD4B6329F5151B1A DUP4 DUP4 TIMESTAMP PUSH1 0x40 MLOAD PUSH2 0x2AD SWAP4 SWAP3 SWAP2 SWAP1 PUSH2 0x566 JUMP JUMPDEST PUSH1 0x40 MLOAD DUP1 SWAP2 SUB SWAP1 LOG2 POP POP JUMP JUMPDEST PUSH1 0x1 PUSH1 0x20 MSTORE DUP1 PUSH0 MSTORE PUSH1 0x40 PUSH0 KECCAK256 PUSH0 SWAP2 POP SLOAD SWAP1 PUSH2 0x100 EXP SWAP1 DIV PUSH1 0xFF AND DUP2 JUMP JUMPDEST PUSH0 PUSH0 PUSH0 PUSH0 PUSH0 PUSH0 DUP7 PUSH20 0xFFFFFFFFFFFFFFFFFFFFFFFFFFFFFFFFFFFFFFFF AND PUSH20 0xFFFFFFFFFFFFFFFFFFFFFFFFFFFFFFFFFFFFFFFF AND DUP2 MSTORE PUSH1 0x20 ADD SWAP1 DUP2 MSTORE PUSH1 0x20 ADD PUSH0 KECCAK256 PUSH1 0x40 MLOAD DUP1 PUSH1 0x60 ADD PUSH1 0x40 MSTORE SWAP1 DUP2 PUSH0 DUP3 ADD SLOAD DUP2 MSTORE PUSH1 0x20 ADD PUSH1 0x1 DUP3 ADD SLOAD DUP2 MSTORE PUSH1 0x20 ADD PUSH1 0x2 DUP3 ADD SLOAD DUP2 MSTORE POP POP SWAP1 POP DUP1 PUSH0 ADD MLOAD DUP2 PUSH1 0x20 ADD MLOAD DUP3 PUSH1 0x40 ADD MLOAD SWAP4 POP SWAP4 POP SWAP4 POP POP SWAP2 SWAP4 SWAP1 SWAP3 POP JUMP JUMPDEST PUSH0 PUSH1 0x20 MSTORE DUP1 PUSH0 MSTORE PUSH1 0x40 PUSH0 KECCAK256 PUSH0 SWAP2 POP SWAP1 POP DUP1 PUSH0 ADD SLOAD SWAP1 DUP1 PUSH1 0x1 ADD SLOAD SWAP1 DUP1 PUSH1 0x2 ADD SLOAD SWAP1 POP DUP4 JUMP JUMPDEST PUSH0 PUSH0 CALLER PUSH20 0xFFFFFFFFFFFFFFFFFFFFFFFFFFFFFFFFFFFFFFFF AND PUSH20 0xFFFFFFFFFFFFFFFFFFFFFFFFFFFFFFFFFFFFFFFF AND DUP2 MSTORE PUSH1 0x20 ADD SWAP1 DUP2 MSTORE PUSH1 0x20 ADD PUSH0 KECCAK256 PUSH0 PUSH0 DUP3 ADD PUSH0 SWAP1 SSTORE PUSH1 0x1 DUP3 ADD PUSH0 SWAP1 SSTORE PUSH1 0x2 DUP3 ADD PUSH0 SWAP1 SSTORE POP POP PUSH0 PUSH1 0x1 PUSH0 CALLER PUSH20 0xFFFFFFFFFFFFFFFFFFFFFFFFFFFFFFFFFFFFFFFF AND PUSH20 0xFFFFFFFFFFFFFFFFFFFFFFFFFFFFFFFFFFFFFFFF AND DUP2 MSTORE PUSH1 0x20 ADD SWAP1 DUP2 MSTORE PUSH1 0x20 ADD PUSH0 KECCAK256 PUSH0 PUSH2 0x100 EXP DUP2 SLOAD DUP2 PUSH1 0xFF MUL NOT AND SWAP1 DUP4 ISZERO ISZERO MUL OR SWAP1 SSTORE POP JUMP JUMPDEST PUSH0 PUSH0 REVERT JUMPDEST PUSH0 DUP2 SWAP1 POP SWAP2 SWAP1 POP JUMP JUMPDEST PUSH2 0x440 DUP2 PUSH2 0x42E JUMP JUMPDEST DUP2 EQ PUSH2 0x44A JUMPI PUSH0 PUSH0 REVERT JUMPDEST POP JUMP JUMPDEST PUSH0 DUP2 CALLDATALOAD SWAP1 POP PUSH2 0x45B DUP2 PUSH2 0x437 JUMP JUMPDEST SWAP3 SWAP2 POP POP JUMP JUMPDEST PUSH0 PUSH0 PUSH1 0x40 DUP4 DUP6 SUB SLT ISZERO PUSH2 0x477 JUMPI PUSH2 0x476 PUSH2 0x42A JUMP JUMPDEST JUMPDEST PUSH0 PUSH2 0x484 DUP6 DUP3 DUP7 ADD PUSH2 0x44D JUMP JUMPDEST SWAP3 POP POP PUSH1 0x20 PUSH2 0x495 DUP6 DUP3 DUP7 ADD PUSH2 0x44D JUMP JUMPDEST SWAP2 POP POP SWAP3 POP SWAP3 SWAP1 POP JUMP JUMPDEST PUSH0 PUSH20 0xFFFFFFFFFFFFFFFFFFFFFFFFFFFFFFFFFFFFFFFF DUP3 AND SWAP1 POP SWAP2 SWAP1 POP JUMP JUMPDEST PUSH0 PUSH2 0x4C8 DUP3 PUSH2 0x49F JUMP JUMPDEST SWAP1 POP SWAP2 SWAP1 POP JUMP JUMPDEST PUSH2 0x4D8 DUP2 PUSH2 0x4BE JUMP JUMPDEST DUP2 EQ PUSH2 0x4E2 JUMPI PUSH0 PUSH0 REVERT JUMPDEST POP JUMP JUMPDEST PUSH0 DUP2 CALLDATALOAD SWAP1 POP PUSH2 0x4F3 DUP2 PUSH2 0x4CF JUMP JUMPDEST SWAP3 SWAP2 POP POP JUMP JUMPDEST PUSH0 PUSH1 0x20 DUP3 DUP5 SUB SLT ISZERO PUSH2 0x50E JUMPI PUSH2 0x50D PUSH2 0x42A JUMP JUMPDEST JUMPDEST PUSH0 PUSH2 0x51B DUP5 DUP3 DUP6 ADD PUSH2 0x4E5 JUMP JUMPDEST SWAP2 POP POP SWAP3 SWAP2 POP POP JUMP JUMPDEST PUSH0 DUP2 ISZERO ISZERO SWAP1 POP SWAP2 SWAP1 POP JUMP JUMPDEST PUSH2 0x538 DUP2 PUSH2 0x524 JUMP JUMPDEST DUP3 MSTORE POP POP JUMP JUMPDEST PUSH0 PUSH1 0x20 DUP3 ADD SWAP1 POP PUSH2 0x551 PUSH0 DUP4 ADD DUP5 PUSH2 0x52F JUMP JUMPDEST SWAP3 SWAP2 POP POP JUMP JUMPDEST PUSH2 0x560 DUP2 PUSH2 0x42E JUMP JUMPDEST DUP3 MSTORE POP POP JUMP JUMPDEST PUSH0 PUSH1 0x60 DUP3 ADD SWAP1 POP PUSH2 0x579 PUSH0 DUP4 ADD DUP7 PUSH2 0x557 JUMP JUMPDEST PUSH2 0x586 PUSH1 0x20 DUP4 ADD DUP6 PUSH2 0x557 JUMP JUMPDEST PUSH2 0x593 PUSH1 0x40 DUP4 ADD DUP5 PUSH2 0x557 JUMP JUMPDEST SWAP5 SWAP4 POP POP POP POP JUMP JUMPDEST PUSH0 DUP3 DUP3 MSTORE PUSH1 0x20 DUP3 ADD SWAP1 POP SWAP3 SWAP2 POP POP JUMP JUMPDEST PUSH32 0x496E76616C69642073636F726500000000000000000000000000000000000000 PUSH0 DUP3 ADD MSTORE POP JUMP JUMPDEST PUSH0 PUSH2 0x5DF PUSH1 0xD DUP4 PUSH2 0x59B JUMP JUMPDEST SWAP2 POP PUSH2 0x5EA DUP3 PUSH2 0x5AB JUMP JUMPDEST PUSH1 0x20 DUP3 ADD SWAP1 POP SWAP2 SWAP1 POP JUMP JUMPDEST PUSH0 PUSH1 0x20 DUP3 ADD SWAP1 POP DUP2 DUP2 SUB PUSH0 DUP4 ADD MSTORE PUSH2 0x60C DUP2 PUSH2 0x5D3 JUMP JUMPDEST SWAP1 POP SWAP2 SWAP1 POP JUMP JUMPDEST PUSH32 0x53636F726520746F6F2068696768000000000000000000000000000000000000 PUSH0 DUP3 ADD MSTORE POP JUMP JUMPDEST PUSH0 PUSH2 0x647 PUSH1 0xE DUP4 PUSH2 0x59B JUMP JUMPDEST SWAP2 POP PUSH2 0x652 DUP3 PUSH2 0x613 JUMP JUMPDEST PUSH1 0x20 DUP3 ADD SWAP1 POP SWAP2 SWAP1 POP JUMP JUMPDEST PUSH0 PUSH1 0x20 DUP3 ADD SWAP1 POP DUP2 DUP2 SUB PUSH0 DUP4 ADD MSTORE PUSH2 0x674 DUP2 PUSH2 0x63B JUMP JUMPDEST SWAP1 POP SWAP2 SWAP1 POP JUMP INVALID LOG2 PUSH5 0x6970667358 0x22 SLT KECCAK256 0x4D PUSH21 0x48FA7C50172D51AD34F1B6931127C0A231B4187947 TSTORE COINBASE RETURNCONTRACT 0x55 0xB7 SIGNEXTEND 0xC3 PUSH12 0x6264736F6C634300081E0033 "
	},
	"abi": [
		{
			"anonymous": false,
			"inputs": [
				{
					"indexed": true,
					"internalType": "address",
					"name": "player",
					"type": "address"
				},
				{
					"indexed": false,
					"internalType": "uint256",
					"name": "caseId",
					"type": "uint256"
				},
				{
					"indexed": false,
					"internalType": "uint256",
					"name": "score",
					"type": "uint256"
				},
				{
					"indexed": false,
					"internalType": "uint256",
					"name": "timestamp",
					"type": "uint256"
				}
			],
			"name": "CaseCompleted",
			"type": "event"
		},
		{
			"inputs": [
				{
					"internalType": "uint256",
					"name": "caseId",
					"type": "uint256"
				},
				{
					"internalType": "uint256",
					"name": "score",
					"type": "uint256"
				}
			],
			"name": "completeCase",
			"outputs": [],
			"stateMutability": "nonpayable",
			"type": "function"
		},
		{
			"inputs": [],
			"name": "reset",
			"outputs": [],
			"stateMutability": "nonpayable",
			"type": "function"
		},
		{
			"inputs": [
				{
					"internalType": "address",
					"name": "player",
					"type": "address"
				}
			],
			"name": "getResult",
			"outputs": [
				{
					"internalType": "uint256",
					"name": "caseId",
					"type": "uint256"
				},
				{
					"internalType": "uint256",
					"name": "score",
					"type": "uint256"
				},
				{
					"internalType": "uint256",
					"name": "timestamp",
					"type": "uint256"
				}
			],
			"stateMutability": "view",
			"type": "function"
		},
		{
			"inputs": [
				{
					"internalType": "address",
					"name": "",
					"type": "address"
				}
			],
			"name": "hasCompleted",
			"outputs": [
				{
					"internalType": "bool",
					"name": "",
					"type": "bool"
				}
			],
			"stateMutability": "view",
			"type": "function"
		},
		{
			"inputs": [
				{
					"internalType": "address",
					"name": "",
					"type": "address"
				}
			],
			"name": "playerResults",
			"outputs": [
				{
					"internalType": "uint256",
					"name": "caseId",
					"type": "uint256"
				},
				{
					"internalType": "uint256",
					"name": "score",
					"type": "uint256"
				},
				{
					"internalType": "uint256",
					"name": "timestamp",
					"type": "uint256"
				}
			],
			"stateMutability": "view",
			"type": "function"
		}
	],
	"storageLayout": {
		"storage": [
			{
				"astId": 14,
				"contract": "qu.sol:BaseDetective",
				"label": "playerResults",
				"offset": 0,
				"slot": "0",
				"type": "t_mapping(t_address,t_struct(Result)9_storage)"
			},
			{
				"astId": 18,
				"contract": "qu.sol:BaseDetective",
				"label": "hasCompleted",
				"offset": 0,
				"slot": "1",
				"type": "t_mapping(t_address,t_bool)"
			}
		],
		"types": {
			"t_address": {
				"encoding": "inplace",
				"label": "address",
				"numberOfBytes": "20"
			},
			"t_bool": {
				"encoding": "inplace",
				"label": "bool",
				"numberOfBytes": "1"
			},
			"t_mapping(t_address,t_bool)": {
				"encoding": "mapping",
				"key": "t_address",
				"label": "mapping(address => bool)",
				"numberOfBytes": "32",
				"value": "t_bool"
			},
			"t_mapping(t_address,t_struct(Result)9_storage)": {
				"encoding": "mapping",
				"key": "t_address",
				"label": "mapping(address => struct BaseDetective.Result)",
				"numberOfBytes": "32",
				"value": "t_struct(Result)9_storage"
			},
			"t_struct(Result)9_storage": {
				"encoding": "inplace",
				"label": "struct BaseDetective.Result",
				"members": [
					{
						"astId": 4,
						"contract": "qu.sol:BaseDetective",
						"label": "caseId",
						"offset": 0,
						"slot": "0",
						"type": "t_uint256"
					},
					{
						"astId": 6,
						"contract": "qu.sol:BaseDetective",
						"label": "score",
						"offset": 0,
						"slot": "1",
						"type": "t_uint256"
					},
					{
						"astId": 8,
						"contract": "qu.sol:BaseDetective",
						"label": "timestamp",
						"offset": 0,
						"slot": "2",
						"type": "t_uint256"
					}
				],
				"numberOfBytes": "96"
			},
			"t_uint256": {
				"encoding": "inplace",
				"label": "uint256",
				"numberOfBytes": "32"
			}
		}
	},
	"web3Deploy": "var basedetectiveContract = new web3.eth.Contract([{\"anonymous\":false,\"inputs\":[{\"indexed\":true,\"internalType\":\"address\",\"name\":\"player\",\"type\":\"address\"},{\"indexed\":false,\"internalType\":\"uint256\",\"name\":\"caseId\",\"type\":\"uint256\"},{\"indexed\":false,\"internalType\":\"uint256\",\"name\":\"score\",\"type\":\"uint256\"},{\"indexed\":false,\"internalType\":\"uint256\",\"name\":\"timestamp\",\"type\":\"uint256\"}],\"name\":\"CaseCompleted\",\"type\":\"event\"},{\"inputs\":[{\"internalType\":\"uint256\",\"name\":\"caseId\",\"type\":\"uint256\"},{\"internalType\":\"uint256\",\"name\":\"score\",\"type\":\"uint256\"}],\"name\":\"completeCase\",\"outputs\":[],\"stateMutability\":\"nonpayable\",\"type\":\"function\"},{\"inputs\":[{\"internalType\":\"address\",\"name\":\"player\",\"type\":\"address\"}],\"name\":\"getResult\",\"outputs\":[{\"internalType\":\"uint256\",\"name\":\"caseId\",\"type\":\"uint256\"},{\"internalType\":\"uint256\",\"name\":\"score\",\"type\":\"uint256\"},{\"internalType\":\"uint256\",\"name\":\"timestamp\",\"type\":\"uint256\"}],\"stateMutability\":\"view\",\"type\":\"function\"},{\"inputs\":[{\"internalType\":\"address\",\"name\":\"\",\"type\":\"address\"}],\"name\":\"hasCompleted\",\"outputs\":[{\"internalType\":\"bool\",\"name\":\"\",\"type\":\"bool\"}],\"stateMutability\":\"view\",\"type\":\"function\"},{\"inputs\":[{\"internalType\":\"address\",\"name\":\"\",\"type\":\"address\"}],\"name\":\"playerResults\",\"outputs\":[{\"internalType\":\"uint256\",\"name\":\"caseId\",\"type\":\"uint256\"},{\"internalType\":\"uint256\",\"name\":\"score\",\"type\":\"uint256\"},{\"internalType\":\"uint256\",\"name\":\"timestamp\",\"type\":\"uint256\"}],\"stateMutability\":\"view\",\"type\":\"function\"},{\"inputs\":[],\"name\":\"reset\",\"outputs\":[],\"stateMutability\":\"nonpayable\",\"type\":\"function\"}]);\nvar basedetective = basedetectiveContract.deploy({\n     data: '0x6080604052348015600e575f5ffd5b506106b18061001c5f395ff3fe608060405234801561000f575f5ffd5b5060043610610055575f3560e01c806314550a2f1461005957806331f2925014610075578063446a37e0146100a55780638668ea04146100d7578063d826f88f14610109575b5f5ffd5b610073600480360381019061006e9190610461565b610113565b005b61008f600480360381019061008a91906104f9565b6102b9565b60405161009c919061053e565b60405180910390f35b6100bf60048036038101906100ba91906104f9565b6102d6565b6040516100ce93929190610566565b60405180910390f35b6100f160048036038101906100ec91906104f9565b61035c565b60405161010093929190610566565b60405180910390f35b610111610381565b005b5f8111610155576040517f08c379a000000000000000000000000000000000000000000000000000000000815260040161014c906105f5565b60405180910390fd5b6064811115610199576040517f08c379a00000000000000000000000000000000000000000000000000000000081526004016101909061065d565b60405180910390fd5b6040518060600160405280838152602001828152602001428152505f5f3373ffffffffffffffffffffffffffffffffffffffff1673ffffffffffffffffffffffffffffffffffffffff1681526020019081526020015f205f820151815f015560208201518160010155604082015181600201559050506001805f3373ffffffffffffffffffffffffffffffffffffffff1673ffffffffffffffffffffffffffffffffffffffff1681526020019081526020015f205f6101000a81548160ff0219169083151502179055503373ffffffffffffffffffffffffffffffffffffffff167f68223dbb4330c48f7353ee5499b3cadb344b08e1e75b973bfd4b6329f5151b1a8383426040516102ad93929190610566565b60405180910390a25050565b6001602052805f5260405f205f915054906101000a900460ff1681565b5f5f5f5f5f5f8673ffffffffffffffffffffffffffffffffffffffff1673ffffffffffffffffffffffffffffffffffffffff1681526020019081526020015f206040518060600160405290815f8201548152602001600182015481526020016002820154815250509050805f015181602001518260400151935093509350509193909250565b5f602052805f5260405f205f91509050805f0154908060010154908060020154905083565b5f5f3373ffffffffffffffffffffffffffffffffffffffff1673ffffffffffffffffffffffffffffffffffffffff1681526020019081526020015f205f5f82015f9055600182015f9055600282015f905550505f60015f3373ffffffffffffffffffffffffffffffffffffffff1673ffffffffffffffffffffffffffffffffffffffff1681526020019081526020015f205f6101000a81548160ff021916908315150217905550565b5f5ffd5b5f819050919050565b6104408161042e565b811461044a575f5ffd5b50565b5f8135905061045b81610437565b92915050565b5f5f604083850312156104775761047661042a565b5b5f6104848582860161044d565b92505060206104958582860161044d565b9150509250929050565b5f73ffffffffffffffffffffffffffffffffffffffff82169050919050565b5f6104c88261049f565b9050919050565b6104d8816104be565b81146104e2575f5ffd5b50565b5f813590506104f3816104cf565b92915050565b5f6020828403121561050e5761050d61042a565b5b5f61051b848285016104e5565b91505092915050565b5f8115159050919050565b61053881610524565b82525050565b5f6020820190506105515f83018461052f565b92915050565b6105608161042e565b82525050565b5f6060820190506105795f830186610557565b6105866020830185610557565b6105936040830184610557565b949350505050565b5f82825260208201905092915050565b7f496e76616c69642073636f7265000000000000000000000000000000000000005f82015250565b5f6105df600d8361059b565b91506105ea826105ab565b602082019050919050565b5f6020820190508181035f83015261060c816105d3565b9050919050565b7f53636f726520746f6f20686967680000000000000000000000000000000000005f82015250565b5f610647600e8361059b565b915061065282610613565b602082019050919050565b5f6020820190508181035f8301526106748161063b565b905091905056fea26469706673582212204d7448fa7c50172d51ad34f1b6931127c0a231b41879475d41ee55b70bc36b6264736f6c634300081e0033', \n     arguments: [\n     ]\n}).send({\n     from: web3.eth.accounts[0], \n     gas: '4700000'\n   }, function (e, contract){\n    console.log(e, contract);\n    if (typeof contract.address !== 'undefined') {\n         console.log('Contract mined! address: ' + contract.address + ' transactionHash: ' + contract.transactionHash);\n    }\n })",
	"functionHashes": {
		"14550a2f": "completeCase(uint256,uint256)",
		"446a37e0": "getResult(address)",
		"31f29250": "hasCompleted(address)",
		"8668ea04": "playerResults(address)",
		"d826f88f": "reset()"
	},
	"gasEstimates": {
		"Creation": {
			"codeDepositCost": "342600",
			"executionCost": "378",
			"totalCost": "342978"
		},
		"External": {
			"completeCase(uint256,uint256)": "infinite",
			"getResult(address)": "infinite",
			"hasCompleted(address)": "2833",
			"playerResults(address)": "infinite",
			"reset()": "39697"
		}
	},
	"devdoc": {
		"details": "Designed for Farcaster Miniapp, single transaction per user completion.",
		"kind": "dev",
		"methods": {
			"completeCase(uint256,uint256)": {
				"params": {
					"caseId": "The ID of the case or quest",
					"score": "The user's final score (0–100 or similar)"
				}
			},
			"getResult(address)": {
				"params": {
					"player": "Address of the user"
				}
			}
		},
		"title": "Base Detective - on-chain record of completed investigations",
		"version": 1
	},
	"userdoc": {
		"kind": "user",
		"methods": {
			"completeCase(uint256,uint256)": {
				"notice": "Record a player's final result (only once per completion)"
			},
			"getResult(address)": {
				"notice": "Get player result"
			},
			"reset()": {
				"notice": "Allow user to reset progress and replay (optional)"
			}
		},
		"notice": "Records only the *final* result after a user finishes the quiz.",
		"version": 1
	},
	"Runtime Bytecode": {
		"immutableReferences": {},
		"linkReferences": {},
		"object": "608060405234801561000f575f5ffd5b5060043610610055575f3560e01c806314550a2f1461005957806331f2925014610075578063446a37e0146100a55780638668ea04146100d7578063d826f88f14610109575b5f5ffd5b610073600480360381019061006e9190610461565b610113565b005b61008f600480360381019061008a91906104f9565b6102b9565b60405161009c919061053e565b60405180910390f35b6100bf60048036038101906100ba91906104f9565b6102d6565b6040516100ce93929190610566565b60405180910390f35b6100f160048036038101906100ec91906104f9565b61035c565b60405161010093929190610566565b60405180910390f35b610111610381565b005b5f8111610155576040517f08c379a000000000000000000000000000000000000000000000000000000000815260040161014c906105f5565b60405180910390fd5b6064811115610199576040517f08c379a00000000000000000000000000000000000000000000000000000000081526004016101909061065d565b60405180910390fd5b6040518060600160405280838152602001828152602001428152505f5f3373ffffffffffffffffffffffffffffffffffffffff1673ffffffffffffffffffffffffffffffffffffffff1681526020019081526020015f205f820151815f015560208201518160010155604082015181600201559050506001805f3373ffffffffffffffffffffffffffffffffffffffff1673ffffffffffffffffffffffffffffffffffffffff1681526020019081526020015f205f6101000a81548160ff0219169083151502179055503373ffffffffffffffffffffffffffffffffffffffff167f68223dbb4330c48f7353ee5499b3cadb344b08e1e75b973bfd4b6329f5151b1a8383426040516102ad93929190610566565b60405180910390a25050565b6001602052805f5260405f205f915054906101000a900460ff1681565b5f5f5f5f5f5f8673ffffffffffffffffffffffffffffffffffffffff1673ffffffffffffffffffffffffffffffffffffffff1681526020019081526020015f206040518060600160405290815f8201548152602001600182015481526020016002820154815250509050805f015181602001518260400151935093509350509193909250565b5f602052805f5260405f205f91509050805f0154908060010154908060020154905083565b5f5f3373ffffffffffffffffffffffffffffffffffffffff1673ffffffffffffffffffffffffffffffffffffffff1681526020019081526020015f205f5f82015f9055600182015f9055600282015f905550505f60015f3373ffffffffffffffffffffffffffffffffffffffff1673ffffffffffffffffffffffffffffffffffffffff1681526020019081526020015f205f6101000a81548160ff021916908315150217905550565b5f5ffd5b5f819050919050565b6104408161042e565b811461044a575f5ffd5b50565b5f8135905061045b81610437565b92915050565b5f5f604083850312156104775761047661042a565b5b5f6104848582860161044d565b92505060206104958582860161044d565b9150509250929050565b5f73ffffffffffffffffffffffffffffffffffffffff82169050919050565b5f6104c88261049f565b9050919050565b6104d8816104be565b81146104e2575f5ffd5b50565b5f813590506104f3816104cf565b92915050565b5f6020828403121561050e5761050d61042a565b5b5f61051b848285016104e5565b91505092915050565b5f8115159050919050565b61053881610524565b82525050565b5f6020820190506105515f83018461052f565b92915050565b6105608161042e565b82525050565b5f6060820190506105795f830186610557565b6105866020830185610557565b6105936040830184610557565b949350505050565b5f82825260208201905092915050565b7f496e76616c69642073636f7265000000000000000000000000000000000000005f82015250565b5f6105df600d8361059b565b91506105ea826105ab565b602082019050919050565b5f6020820190508181035f83015261060c816105d3565b9050919050565b7f53636f726520746f6f20686967680000000000000000000000000000000000005f82015250565b5f610647600e8361059b565b915061065282610613565b602082019050919050565b5f6020820190508181035f8301526106748161063b565b905091905056fea26469706673582212204d7448fa7c50172d51ad34f1b6931127c0a231b41879475d41ee55b70bc36b6264736f6c634300081e0033",
		"opcodes": "PUSH1 0x80 PUSH1 0x40 MSTORE CALLVALUE DUP1 ISZERO PUSH2 0xF JUMPI PUSH0 PUSH0 REVERT JUMPDEST POP PUSH1 0x4 CALLDATASIZE LT PUSH2 0x55 JUMPI PUSH0 CALLDATALOAD PUSH1 0xE0 SHR DUP1 PUSH4 0x14550A2F EQ PUSH2 0x59 JUMPI DUP1 PUSH4 0x31F29250 EQ PUSH2 0x75 JUMPI DUP1 PUSH4 0x446A37E0 EQ PUSH2 0xA5 JUMPI DUP1 PUSH4 0x8668EA04 EQ PUSH2 0xD7 JUMPI DUP1 PUSH4 0xD826F88F EQ PUSH2 0x109 JUMPI JUMPDEST PUSH0 PUSH0 REVERT JUMPDEST PUSH2 0x73 PUSH1 0x4 DUP1 CALLDATASIZE SUB DUP2 ADD SWAP1 PUSH2 0x6E SWAP2 SWAP1 PUSH2 0x461 JUMP JUMPDEST PUSH2 0x113 JUMP JUMPDEST STOP JUMPDEST PUSH2 0x8F PUSH1 0x4 DUP1 CALLDATASIZE SUB DUP2 ADD SWAP1 PUSH2 0x8A SWAP2 SWAP1 PUSH2 0x4F9 JUMP JUMPDEST PUSH2 0x2B9 JUMP JUMPDEST PUSH1 0x40 MLOAD PUSH2 0x9C SWAP2 SWAP1 PUSH2 0x53E JUMP JUMPDEST PUSH1 0x40 MLOAD DUP1 SWAP2 SUB SWAP1 RETURN JUMPDEST PUSH2 0xBF PUSH1 0x4 DUP1 CALLDATASIZE SUB DUP2 ADD SWAP1 PUSH2 0xBA SWAP2 SWAP1 PUSH2 0x4F9 JUMP JUMPDEST PUSH2 0x2D6 JUMP JUMPDEST PUSH1 0x40 MLOAD PUSH2 0xCE SWAP4 SWAP3 SWAP2 SWAP1 PUSH2 0x566 JUMP JUMPDEST PUSH1 0x40 MLOAD DUP1 SWAP2 SUB SWAP1 RETURN JUMPDEST PUSH2 0xF1 PUSH1 0x4 DUP1 CALLDATASIZE SUB DUP2 ADD SWAP1 PUSH2 0xEC SWAP2 SWAP1 PUSH2 0x4F9 JUMP JUMPDEST PUSH2 0x35C JUMP JUMPDEST PUSH1 0x40 MLOAD PUSH2 0x100 SWAP4 SWAP3 SWAP2 SWAP1 PUSH2 0x566 JUMP JUMPDEST PUSH1 0x40 MLOAD DUP1 SWAP2 SUB SWAP1 RETURN JUMPDEST PUSH2 0x111 PUSH2 0x381 JUMP JUMPDEST STOP JUMPDEST PUSH0 DUP2 GT PUSH2 0x155 JUMPI PUSH1 0x40 MLOAD PUSH32 0x8C379A000000000000000000000000000000000000000000000000000000000 DUP2 MSTORE PUSH1 0x4 ADD PUSH2 0x14C SWAP1 PUSH2 0x5F5 JUMP JUMPDEST PUSH1 0x40 MLOAD DUP1 SWAP2 SUB SWAP1 REVERT JUMPDEST PUSH1 0x64 DUP2 GT ISZERO PUSH2 0x199 JUMPI PUSH1 0x40 MLOAD PUSH32 0x8C379A000000000000000000000000000000000000000000000000000000000 DUP2 MSTORE PUSH1 0x4 ADD PUSH2 0x190 SWAP1 PUSH2 0x65D JUMP JUMPDEST PUSH1 0x40 MLOAD DUP1 SWAP2 SUB SWAP1 REVERT JUMPDEST PUSH1 0x40 MLOAD DUP1 PUSH1 0x60 ADD PUSH1 0x40 MSTORE DUP1 DUP4 DUP2 MSTORE PUSH1 0x20 ADD DUP3 DUP2 MSTORE PUSH1 0x20 ADD TIMESTAMP DUP2 MSTORE POP PUSH0 PUSH0 CALLER PUSH20 0xFFFFFFFFFFFFFFFFFFFFFFFFFFFFFFFFFFFFFFFF AND PUSH20 0xFFFFFFFFFFFFFFFFFFFFFFFFFFFFFFFFFFFFFFFF AND DUP2 MSTORE PUSH1 0x20 ADD SWAP1 DUP2 MSTORE PUSH1 0x20 ADD PUSH0 KECCAK256 PUSH0 DUP3 ADD MLOAD DUP2 PUSH0 ADD SSTORE PUSH1 0x20 DUP3 ADD MLOAD DUP2 PUSH1 0x1 ADD SSTORE PUSH1 0x40 DUP3 ADD MLOAD DUP2 PUSH1 0x2 ADD SSTORE SWAP1 POP POP PUSH1 0x1 DUP1 PUSH0 CALLER PUSH20 0xFFFFFFFFFFFFFFFFFFFFFFFFFFFFFFFFFFFFFFFF AND PUSH20 0xFFFFFFFFFFFFFFFFFFFFFFFFFFFFFFFFFFFFFFFF AND DUP2 MSTORE PUSH1 0x20 ADD SWAP1 DUP2 MSTORE PUSH1 0x20 ADD PUSH0 KECCAK256 PUSH0 PUSH2 0x100 EXP DUP2 SLOAD DUP2 PUSH1 0xFF MUL NOT AND SWAP1 DUP4 ISZERO ISZERO MUL OR SWAP1 SSTORE POP CALLER PUSH20 0xFFFFFFFFFFFFFFFFFFFFFFFFFFFFFFFFFFFFFFFF AND PUSH32 0x68223DBB4330C48F7353EE5499B3CADB344B08E1E75B973BFD4B6329F5151B1A DUP4 DUP4 TIMESTAMP PUSH1 0x40 MLOAD PUSH2 0x2AD SWAP4 SWAP3 SWAP2 SWAP1 PUSH2 0x566 JUMP JUMPDEST PUSH1 0x40 MLOAD DUP1 SWAP2 SUB SWAP1 LOG2 POP POP JUMP JUMPDEST PUSH1 0x1 PUSH1 0x20 MSTORE DUP1 PUSH0 MSTORE PUSH1 0x40 PUSH0 KECCAK256 PUSH0 SWAP2 POP SLOAD SWAP1 PUSH2 0x100 EXP SWAP1 DIV PUSH1 0xFF AND DUP2 JUMP JUMPDEST PUSH0 PUSH0 PUSH0 PUSH0 PUSH0 PUSH0 DUP7 PUSH20 0xFFFFFFFFFFFFFFFFFFFFFFFFFFFFFFFFFFFFFFFF AND PUSH20 0xFFFFFFFFFFFFFFFFFFFFFFFFFFFFFFFFFFFFFFFF AND DUP2 MSTORE PUSH1 0x20 ADD SWAP1 DUP2 MSTORE PUSH1 0x20 ADD PUSH0 KECCAK256 PUSH1 0x40 MLOAD DUP1 PUSH1 0x60 ADD PUSH1 0x40 MSTORE SWAP1 DUP2 PUSH0 DUP3 ADD SLOAD DUP2 MSTORE PUSH1 0x20 ADD PUSH1 0x1 DUP3 ADD SLOAD DUP2 MSTORE PUSH1 0x20 ADD PUSH1 0x2 DUP3 ADD SLOAD DUP2 MSTORE POP POP SWAP1 POP DUP1 PUSH0 ADD MLOAD DUP2 PUSH1 0x20 ADD MLOAD DUP3 PUSH1 0x40 ADD MLOAD SWAP4 POP SWAP4 POP SWAP4 POP POP SWAP2 SWAP4 SWAP1 SWAP3 POP JUMP JUMPDEST PUSH0 PUSH1 0x20 MSTORE DUP1 PUSH0 MSTORE PUSH1 0x40 PUSH0 KECCAK256 PUSH0 SWAP2 POP SWAP1 POP DUP1 PUSH0 ADD SLOAD SWAP1 DUP1 PUSH1 0x1 ADD SLOAD SWAP1 DUP1 PUSH1 0x2 ADD SLOAD SWAP1 POP DUP4 JUMP JUMPDEST PUSH0 PUSH0 CALLER PUSH20 0xFFFFFFFFFFFFFFFFFFFFFFFFFFFFFFFFFFFFFFFF AND PUSH20 0xFFFFFFFFFFFFFFFFFFFFFFFFFFFFFFFFFFFFFFFF AND DUP2 MSTORE PUSH1 0x20 ADD SWAP1 DUP2 MSTORE PUSH1 0x20 ADD PUSH0 KECCAK256 PUSH0 PUSH0 DUP3 ADD PUSH0 SWAP1 SSTORE PUSH1 0x1 DUP3 ADD PUSH0 SWAP1 SSTORE PUSH1 0x2 DUP3 ADD PUSH0 SWAP1 SSTORE POP POP PUSH0 PUSH1 0x1 PUSH0 CALLER PUSH20 0xFFFFFFFFFFFFFFFFFFFFFFFFFFFFFFFFFFFFFFFF AND PUSH20 0xFFFFFFFFFFFFFFFFFFFFFFFFFFFFFFFFFFFFFFFF AND DUP2 MSTORE PUSH1 0x20 ADD SWAP1 DUP2 MSTORE PUSH1 0x20 ADD PUSH0 KECCAK256 PUSH0 PUSH2 0x100 EXP DUP2 SLOAD DUP2 PUSH1 0xFF MUL NOT AND SWAP1 DUP4 ISZERO ISZERO MUL OR SWAP1 SSTORE POP JUMP JUMPDEST PUSH0 PUSH0 REVERT JUMPDEST PUSH0 DUP2 SWAP1 POP SWAP2 SWAP1 POP JUMP JUMPDEST PUSH2 0x440 DUP2 PUSH2 0x42E JUMP JUMPDEST DUP2 EQ PUSH2 0x44A JUMPI PUSH0 PUSH0 REVERT JUMPDEST POP JUMP JUMPDEST PUSH0 DUP2 CALLDATALOAD SWAP1 POP PUSH2 0x45B DUP2 PUSH2 0x437 JUMP JUMPDEST SWAP3 SWAP2 POP POP JUMP JUMPDEST PUSH0 PUSH0 PUSH1 0x40 DUP4 DUP6 SUB SLT ISZERO PUSH2 0x477 JUMPI PUSH2 0x476 PUSH2 0x42A JUMP JUMPDEST JUMPDEST PUSH0 PUSH2 0x484 DUP6 DUP3 DUP7 ADD PUSH2 0x44D JUMP JUMPDEST SWAP3 POP POP PUSH1 0x20 PUSH2 0x495 DUP6 DUP3 DUP7 ADD PUSH2 0x44D JUMP JUMPDEST SWAP2 POP POP SWAP3 POP SWAP3 SWAP1 POP JUMP JUMPDEST PUSH0 PUSH20 0xFFFFFFFFFFFFFFFFFFFFFFFFFFFFFFFFFFFFFFFF DUP3 AND SWAP1 POP SWAP2 SWAP1 POP JUMP JUMPDEST PUSH0 PUSH2 0x4C8 DUP3 PUSH2 0x49F JUMP JUMPDEST SWAP1 POP SWAP2 SWAP1 POP JUMP JUMPDEST PUSH2 0x4D8 DUP2 PUSH2 0x4BE JUMP JUMPDEST DUP2 EQ PUSH2 0x4E2 JUMPI PUSH0 PUSH0 REVERT JUMPDEST POP JUMP JUMPDEST PUSH0 DUP2 CALLDATALOAD SWAP1 POP PUSH2 0x4F3 DUP2 PUSH2 0x4CF JUMP JUMPDEST SWAP3 SWAP2 POP POP JUMP JUMPDEST PUSH0 PUSH1 0x20 DUP3 DUP5 SUB SLT ISZERO PUSH2 0x50E JUMPI PUSH2 0x50D PUSH2 0x42A JUMP JUMPDEST JUMPDEST PUSH0 PUSH2 0x51B DUP5 DUP3 DUP6 ADD PUSH2 0x4E5 JUMP JUMPDEST SWAP2 POP POP SWAP3 SWAP2 POP POP JUMP JUMPDEST PUSH0 DUP2 ISZERO ISZERO SWAP1 POP SWAP2 SWAP1 POP JUMP JUMPDEST PUSH2 0x538 DUP2 PUSH2 0x524 JUMP JUMPDEST DUP3 MSTORE POP POP JUMP JUMPDEST PUSH0 PUSH1 0x20 DUP3 ADD SWAP1 POP PUSH2 0x551 PUSH0 DUP4 ADD DUP5 PUSH2 0x52F JUMP JUMPDEST SWAP3 SWAP2 POP POP JUMP JUMPDEST PUSH2 0x560 DUP2 PUSH2 0x42E JUMP JUMPDEST DUP3 MSTORE POP POP JUMP JUMPDEST PUSH0 PUSH1 0x60 DUP3 ADD SWAP1 POP PUSH2 0x579 PUSH0 DUP4 ADD DUP7 PUSH2 0x557 JUMP JUMPDEST PUSH2 0x586 PUSH1 0x20 DUP4 ADD DUP6 PUSH2 0x557 JUMP JUMPDEST PUSH2 0x593 PUSH1 0x40 DUP4 ADD DUP5 PUSH2 0x557 JUMP JUMPDEST SWAP5 SWAP4 POP POP POP POP JUMP JUMPDEST PUSH0 DUP3 DUP3 MSTORE PUSH1 0x20 DUP3 ADD SWAP1 POP SWAP3 SWAP2 POP POP JUMP JUMPDEST PUSH32 0x496E76616C69642073636F726500000000000000000000000000000000000000 PUSH0 DUP3 ADD MSTORE POP JUMP JUMPDEST PUSH0 PUSH2 0x5DF PUSH1 0xD DUP4 PUSH2 0x59B JUMP JUMPDEST SWAP2 POP PUSH2 0x5EA DUP3 PUSH2 0x5AB JUMP JUMPDEST PUSH1 0x20 DUP3 ADD SWAP1 POP SWAP2 SWAP1 POP JUMP JUMPDEST PUSH0 PUSH1 0x20 DUP3 ADD SWAP1 POP DUP2 DUP2 SUB PUSH0 DUP4 ADD MSTORE PUSH2 0x60C DUP2 PUSH2 0x5D3 JUMP JUMPDEST SWAP1 POP SWAP2 SWAP1 POP JUMP JUMPDEST PUSH32 0x53636F726520746F6F2068696768000000000000000000000000000000000000 PUSH0 DUP3 ADD MSTORE POP JUMP JUMPDEST PUSH0 PUSH2 0x647 PUSH1 0xE DUP4 PUSH2 0x59B JUMP JUMPDEST SWAP2 POP PUSH2 0x652 DUP3 PUSH2 0x613 JUMP JUMPDEST PUSH1 0x20 DUP3 ADD SWAP1 POP SWAP2 SWAP1 POP JUMP JUMPDEST PUSH0 PUSH1 0x20 DUP3 ADD SWAP1 POP DUP2 DUP2 SUB PUSH0 DUP4 ADD MSTORE PUSH2 0x674 DUP2 PUSH2 0x63B JUMP JUMPDEST SWAP1 POP SWAP2 SWAP1 POP JUMP INVALID LOG2 PUSH5 0x6970667358 0x22 SLT KECCAK256 0x4D PUSH21 0x48FA7C50172D51AD34F1B6931127C0A231B4187947 TSTORE COINBASE RETURNCONTRACT 0x55 0xB7 SIGNEXTEND 0xC3 PUSH12 0x6264736F6C634300081E0033 "
	},
	"Assembly": ".code\n  PUSH 80\t\t\tcontract BaseDetective {\\n    ...\n  PUSH 40\t\t\tcontract BaseDetective {\\n    ...\n  MSTORE \t\t\tcontract BaseDetective {\\n    ...\n  CALLVALUE \t\t\tcontract BaseDetective {\\n    ...\n  DUP1 \t\t\tcontract BaseDetective {\\n    ...\n  ISZERO \t\t\tcontract BaseDetective {\\n    ...\n  PUSH [tag] 1\t\t\tcontract BaseDetective {\\n    ...\n  JUMPI \t\t\tcontract BaseDetective {\\n    ...\n  PUSH 0\t\t\tcontract BaseDetective {\\n    ...\n  PUSH 0\t\t\tcontract BaseDetective {\\n    ...\n  REVERT \t\t\tcontract BaseDetective {\\n    ...\ntag 1\t\t\tcontract BaseDetective {\\n    ...\n  JUMPDEST \t\t\tcontract BaseDetective {\\n    ...\n  POP \t\t\tcontract BaseDetective {\\n    ...\n  PUSH #[$] 0000000000000000000000000000000000000000000000000000000000000000\t\t\tcontract BaseDetective {\\n    ...\n  DUP1 \t\t\tcontract BaseDetective {\\n    ...\n  PUSH [$] 0000000000000000000000000000000000000000000000000000000000000000\t\t\tcontract BaseDetective {\\n    ...\n  PUSH 0\t\t\tcontract BaseDetective {\\n    ...\n  CODECOPY \t\t\tcontract BaseDetective {\\n    ...\n  PUSH 0\t\t\tcontract BaseDetective {\\n    ...\n  RETURN \t\t\tcontract BaseDetective {\\n    ...\n.data\n  0:\n    .code\n      PUSH 80\t\t\tcontract BaseDetective {\\n    ...\n      PUSH 40\t\t\tcontract BaseDetective {\\n    ...\n      MSTORE \t\t\tcontract BaseDetective {\\n    ...\n      CALLVALUE \t\t\tcontract BaseDetective {\\n    ...\n      DUP1 \t\t\tcontract BaseDetective {\\n    ...\n      ISZERO \t\t\tcontract BaseDetective {\\n    ...\n      PUSH [tag] 1\t\t\tcontract BaseDetective {\\n    ...\n      JUMPI \t\t\tcontract BaseDetective {\\n    ...\n      PUSH 0\t\t\tcontract BaseDetective {\\n    ...\n      PUSH 0\t\t\tcontract BaseDetective {\\n    ...\n      REVERT \t\t\tcontract BaseDetective {\\n    ...\n    tag 1\t\t\tcontract BaseDetective {\\n    ...\n      JUMPDEST \t\t\tcontract BaseDetective {\\n    ...\n      POP \t\t\tcontract BaseDetective {\\n    ...\n      PUSH 4\t\t\tcontract BaseDetective {\\n    ...\n      CALLDATASIZE \t\t\tcontract BaseDetective {\\n    ...\n      LT \t\t\tcontract BaseDetective {\\n    ...\n      PUSH [tag] 2\t\t\tcontract BaseDetective {\\n    ...\n      JUMPI \t\t\tcontract BaseDetective {\\n    ...\n      PUSH 0\t\t\tcontract BaseDetective {\\n    ...\n      CALLDATALOAD \t\t\tcontract BaseDetective {\\n    ...\n      PUSH E0\t\t\tcontract BaseDetective {\\n    ...\n      SHR \t\t\tcontract BaseDetective {\\n    ...\n      DUP1 \t\t\tcontract BaseDetective {\\n    ...\n      PUSH 14550A2F\t\t\tcontract BaseDetective {\\n    ...\n      EQ \t\t\tcontract BaseDetective {\\n    ...\n      PUSH [tag] 3\t\t\tcontract BaseDetective {\\n    ...\n      JUMPI \t\t\tcontract BaseDetective {\\n    ...\n      DUP1 \t\t\tcontract BaseDetective {\\n    ...\n      PUSH 31F29250\t\t\tcontract BaseDetective {\\n    ...\n      EQ \t\t\tcontract BaseDetective {\\n    ...\n      PUSH [tag] 4\t\t\tcontract BaseDetective {\\n    ...\n      JUMPI \t\t\tcontract BaseDetective {\\n    ...\n      DUP1 \t\t\tcontract BaseDetective {\\n    ...\n      PUSH 446A37E0\t\t\tcontract BaseDetective {\\n    ...\n      EQ \t\t\tcontract BaseDetective {\\n    ...\n      PUSH [tag] 5\t\t\tcontract BaseDetective {\\n    ...\n      JUMPI \t\t\tcontract BaseDetective {\\n    ...\n      DUP1 \t\t\tcontract BaseDetective {\\n    ...\n      PUSH 8668EA04\t\t\tcontract BaseDetective {\\n    ...\n      EQ \t\t\tcontract BaseDetective {\\n    ...\n      PUSH [tag] 6\t\t\tcontract BaseDetective {\\n    ...\n      JUMPI \t\t\tcontract BaseDetective {\\n    ...\n      DUP1 \t\t\tcontract BaseDetective {\\n    ...\n      PUSH D826F88F\t\t\tcontract BaseDetective {\\n    ...\n      EQ \t\t\tcontract BaseDetective {\\n    ...\n      PUSH [tag] 7\t\t\tcontract BaseDetective {\\n    ...\n      JUMPI \t\t\tcontract BaseDetective {\\n    ...\n    tag 2\t\t\tcontract BaseDetective {\\n    ...\n      JUMPDEST \t\t\tcontract BaseDetective {\\n    ...\n      PUSH 0\t\t\tcontract BaseDetective {\\n    ...\n      PUSH 0\t\t\tcontract BaseDetective {\\n    ...\n      REVERT \t\t\tcontract BaseDetective {\\n    ...\n    tag 3\t\t\tnction completeCase(uint256 ca...\n      JUMPDEST \t\t\tnction completeCase(uint256 ca...\n      PUSH [tag] 8\t\t\tnction completeCase(uint256 ca...\n      PUSH 4\t\t\tnction completeCase(uint256 ca...\n      DUP1 \t\t\tnction completeCase(uint256 ca...\n      CALLDATASIZE \t\t\tnction completeCase(uint256 ca...\n      SUB \t\t\tnction completeCase(uint256 ca...\n      DUP2 \t\t\tnction completeCase(uint256 ca...\n      ADD \t\t\tnction completeCase(uint256 ca...\n      SWAP1 \t\t\tnction completeCase(uint256 ca...\n      PUSH [tag] 9\t\t\tnction completeCase(uint256 ca...\n      SWAP2 \t\t\tnction completeCase(uint256 ca...\n      SWAP1 \t\t\tnction completeCase(uint256 ca...\n      PUSH [tag] 10\t\t\tnction completeCase(uint256 ca...\n      JUMP \t\t\tnction completeCase(uint256 ca...\n    tag 9\t\t\tnction completeCase(uint256 ca...\n      JUMPDEST \t\t\tnction completeCase(uint256 ca...\n      PUSH [tag] 11\t\t\tnction completeCase(uint256 ca...\n      JUMP \t\t\tnction completeCase(uint256 ca...\n    tag 8\t\t\tnction completeCase(uint256 ca...\n      JUMPDEST \t\t\tnction completeCase(uint256 ca...\n      STOP \t\t\tnction completeCase(uint256 ca...\n    tag 4\t\t\tmapping(address => bool) publi...\n      JUMPDEST \t\t\tmapping(address => bool) publi...\n      PUSH [tag] 12\t\t\tmapping(address => bool) publi...\n      PUSH 4\t\t\tmapping(address => bool) publi...\n      DUP1 \t\t\tmapping(address => bool) publi...\n      CALLDATASIZE \t\t\tmapping(address => bool) publi...\n      SUB \t\t\tmapping(address => bool) publi...\n      DUP2 \t\t\tmapping(address => bool) publi...\n      ADD \t\t\tmapping(address => bool) publi...\n      SWAP1 \t\t\tmapping(address => bool) publi...\n      PUSH [tag] 13\t\t\tmapping(address => bool) publi...\n      SWAP2 \t\t\tmapping(address => bool) publi...\n      SWAP1 \t\t\tmapping(address => bool) publi...\n      PUSH [tag] 14\t\t\tmapping(address => bool) publi...\n      JUMP \t\t\tmapping(address => bool) publi...\n    tag 13\t\t\tmapping(address => bool) publi...\n      JUMPDEST \t\t\tmapping(address => bool) publi...\n      PUSH [tag] 15\t\t\tmapping(address => bool) publi...\n      JUMP \t\t\tmapping(address => bool) publi...\n    tag 12\t\t\tmapping(address => bool) publi...\n      JUMPDEST \t\t\tmapping(address => bool) publi...\n      PUSH 40\t\t\tmapping(address => bool) publi...\n      MLOAD \t\t\tmapping(address => bool) publi...\n      PUSH [tag] 16\t\t\tmapping(address => bool) publi...\n      SWAP2 \t\t\tmapping(address => bool) publi...\n      SWAP1 \t\t\tmapping(address => bool) publi...\n      PUSH [tag] 17\t\t\tmapping(address => bool) publi...\n      JUMP \t\t\tmapping(address => bool) publi...\n    tag 16\t\t\tmapping(address => bool) publi...\n      JUMPDEST \t\t\tmapping(address => bool) publi...\n      PUSH 40\t\t\tmapping(address => bool) publi...\n      MLOAD \t\t\tmapping(address => bool) publi...\n      DUP1 \t\t\tmapping(address => bool) publi...\n      SWAP2 \t\t\tmapping(address => bool) publi...\n      SUB \t\t\tmapping(address => bool) publi...\n      SWAP1 \t\t\tmapping(address => bool) publi...\n      RETURN \t\t\tmapping(address => bool) publi...\n    tag 5\t\t\tnction getResult(address playe...\n      JUMPDEST \t\t\tnction getResult(address playe...\n      PUSH [tag] 18\t\t\tnction getResult(address playe...\n      PUSH 4\t\t\tnction getResult(address playe...\n      DUP1 \t\t\tnction getResult(address playe...\n      CALLDATASIZE \t\t\tnction getResult(address playe...\n      SUB \t\t\tnction getResult(address playe...\n      DUP2 \t\t\tnction getResult(address playe...\n      ADD \t\t\tnction getResult(address playe...\n      SWAP1 \t\t\tnction getResult(address playe...\n      PUSH [tag] 19\t\t\tnction getResult(address playe...\n      SWAP2 \t\t\tnction getResult(address playe...\n      SWAP1 \t\t\tnction getResult(address playe...\n      PUSH [tag] 14\t\t\tnction getResult(address playe...\n      JUMP \t\t\tnction getResult(address playe...\n    tag 19\t\t\tnction getResult(address playe...\n      JUMPDEST \t\t\tnction getResult(address playe...\n      PUSH [tag] 20\t\t\tnction getResult(address playe...\n      JUMP \t\t\tnction getResult(address playe...\n    tag 18\t\t\tnction getResult(address playe...\n      JUMPDEST \t\t\tnction getResult(address playe...\n      PUSH 40\t\t\tnction getResult(address playe...\n      MLOAD \t\t\tnction getResult(address playe...\n      PUSH [tag] 21\t\t\tnction getResult(address playe...\n      SWAP4 \t\t\tnction getResult(address playe...\n      SWAP3 \t\t\tnction getResult(address playe...\n      SWAP2 \t\t\tnction getResult(address playe...\n      SWAP1 \t\t\tnction getResult(address playe...\n      PUSH [tag] 22\t\t\tnction getResult(address playe...\n      JUMP \t\t\tnction getResult(address playe...\n    tag 21\t\t\tnction getResult(address playe...\n      JUMPDEST \t\t\tnction getResult(address playe...\n      PUSH 40\t\t\tnction getResult(address playe...\n      MLOAD \t\t\tnction getResult(address playe...\n      DUP1 \t\t\tnction getResult(address playe...\n      SWAP2 \t\t\tnction getResult(address playe...\n      SUB \t\t\tnction getResult(address playe...\n      SWAP1 \t\t\tnction getResult(address playe...\n      RETURN \t\t\tnction getResult(address playe...\n    tag 6\t\t\tmapping(address => Result) pub...\n      JUMPDEST \t\t\tmapping(address => Result) pub...\n      PUSH [tag] 23\t\t\tmapping(address => Result) pub...\n      PUSH 4\t\t\tmapping(address => Result) pub...\n      DUP1 \t\t\tmapping(address => Result) pub...\n      CALLDATASIZE \t\t\tmapping(address => Result) pub...\n      SUB \t\t\tmapping(address => Result) pub...\n      DUP2 \t\t\tmapping(address => Result) pub...\n      ADD \t\t\tmapping(address => Result) pub...\n      SWAP1 \t\t\tmapping(address => Result) pub...\n      PUSH [tag] 24\t\t\tmapping(address => Result) pub...\n      SWAP2 \t\t\tmapping(address => Result) pub...\n      SWAP1 \t\t\tmapping(address => Result) pub...\n      PUSH [tag] 14\t\t\tmapping(address => Result) pub...\n      JUMP \t\t\tmapping(address => Result) pub...\n    tag 24\t\t\tmapping(address => Result) pub...\n      JUMPDEST \t\t\tmapping(address => Result) pub...\n      PUSH [tag] 25\t\t\tmapping(address => Result) pub...\n      JUMP \t\t\tmapping(address => Result) pub...\n    tag 23\t\t\tmapping(address => Result) pub...\n      JUMPDEST \t\t\tmapping(address => Result) pub...\n      PUSH 40\t\t\tmapping(address => Result) pub...\n      MLOAD \t\t\tmapping(address => Result) pub...\n      PUSH [tag] 26\t\t\tmapping(address => Result) pub...\n      SWAP4 \t\t\tmapping(address => Result) pub...\n      SWAP3 \t\t\tmapping(address => Result) pub...\n      SWAP2 \t\t\tmapping(address => Result) pub...\n      SWAP1 \t\t\tmapping(address => Result) pub...\n      PUSH [tag] 22\t\t\tmapping(address => Result) pub...\n      JUMP \t\t\tmapping(address => Result) pub...\n    tag 26\t\t\tmapping(address => Result) pub...\n      JUMPDEST \t\t\tmapping(address => Result) pub...\n      PUSH 40\t\t\tmapping(address => Result) pub...\n      MLOAD \t\t\tmapping(address => Result) pub...\n      DUP1 \t\t\tmapping(address => Result) pub...\n      SWAP2 \t\t\tmapping(address => Result) pub...\n      SUB \t\t\tmapping(address => Result) pub...\n      SWAP1 \t\t\tmapping(address => Result) pub...\n      RETURN \t\t\tmapping(address => Result) pub...\n    tag 7\t\t\tnction reset() external {\\n   ...\n      JUMPDEST \t\t\tnction reset() external {\\n   ...\n      PUSH [tag] 27\t\t\tnction reset() external {\\n   ...\n      PUSH [tag] 28\t\t\tnction reset() external {\\n   ...\n      JUMP \t\t\tnction reset() external {\\n   ...\n    tag 27\t\t\tnction reset() external {\\n   ...\n      JUMPDEST \t\t\tnction reset() external {\\n   ...\n      STOP \t\t\tnction reset() external {\\n   ...\n    tag 11\t\t\tnction completeCase(uint256 ca...\n      JUMPDEST \t\t\tnction completeCase(uint256 ca...\n      PUSH 0\t\t\t \n      DUP2 \t\t\tore >\n      GT \t\t\tore > 0, \n      PUSH [tag] 30\t\t\tquire(score > 0, \"Invalid scor...\n      JUMPI \t\t\tquire(score > 0, \"Invalid scor...\n      PUSH 40\t\t\tquire(score > 0, \"Invalid scor...\n      MLOAD \t\t\tquire(score > 0, \"Invalid scor...\n      PUSH 8C379A000000000000000000000000000000000000000000000000000000000\t\t\tquire(score > 0, \"Invalid scor...\n      DUP2 \t\t\tquire(score > 0, \"Invalid scor...\n      MSTORE \t\t\tquire(score > 0, \"Invalid scor...\n      PUSH 4\t\t\tquire(score > 0, \"Invalid scor...\n      ADD \t\t\tquire(score > 0, \"Invalid scor...\n      PUSH [tag] 31\t\t\tquire(score > 0, \"Invalid scor...\n      SWAP1 \t\t\tquire(score > 0, \"Invalid scor...\n      PUSH [tag] 32\t\t\tquire(score > 0, \"Invalid scor...\n      JUMP \t\t\tquire(score > 0, \"Invalid scor...\n    tag 31\t\t\tquire(score > 0, \"Invalid scor...\n      JUMPDEST \t\t\tquire(score > 0, \"Invalid scor...\n      PUSH 40\t\t\tquire(score > 0, \"Invalid scor...\n      MLOAD \t\t\tquire(score > 0, \"Invalid scor...\n      DUP1 \t\t\tquire(score > 0, \"Invalid scor...\n      SWAP2 \t\t\tquire(score > 0, \"Invalid scor...\n      SUB \t\t\tquire(score > 0, \"Invalid scor...\n      SWAP1 \t\t\tquire(score > 0, \"Invalid scor...\n      REVERT \t\t\tquire(score > 0, \"Invalid scor...\n    tag 30\t\t\tquire(score > 0, \"Invalid scor...\n      JUMPDEST \t\t\tquire(score > 0, \"Invalid scor...\n      PUSH 64\t\t\t0, \n      DUP2 \t\t\tore <\n      GT \t\t\tore <= 100, \n      ISZERO \t\t\tore <= 100, \n      PUSH [tag] 33\t\t\tquire(score <= 100, \"Score too...\n      JUMPI \t\t\tquire(score <= 100, \"Score too...\n      PUSH 40\t\t\tquire(score <= 100, \"Score too...\n      MLOAD \t\t\tquire(score <= 100, \"Score too...\n      PUSH 8C379A000000000000000000000000000000000000000000000000000000000\t\t\tquire(score <= 100, \"Score too...\n      DUP2 \t\t\tquire(score <= 100, \"Score too...\n      MSTORE \t\t\tquire(score <= 100, \"Score too...\n      PUSH 4\t\t\tquire(score <= 100, \"Score too...\n      ADD \t\t\tquire(score <= 100, \"Score too...\n      PUSH [tag] 34\t\t\tquire(score <= 100, \"Score too...\n      SWAP1 \t\t\tquire(score <= 100, \"Score too...\n      PUSH [tag] 35\t\t\tquire(score <= 100, \"Score too...\n      JUMP \t\t\tquire(score <= 100, \"Score too...\n    tag 34\t\t\tquire(score <= 100, \"Score too...\n      JUMPDEST \t\t\tquire(score <= 100, \"Score too...\n      PUSH 40\t\t\tquire(score <= 100, \"Score too...\n      MLOAD \t\t\tquire(score <= 100, \"Score too...\n      DUP1 \t\t\tquire(score <= 100, \"Score too...\n      SWAP2 \t\t\tquire(score <= 100, \"Score too...\n      SUB \t\t\tquire(score <= 100, \"Score too...\n      SWAP1 \t\t\tquire(score <= 100, \"Score too...\n      REVERT \t\t\tquire(score <= 100, \"Score too...\n    tag 33\t\t\tquire(score <= 100, \"Score too...\n      JUMPDEST \t\t\tquire(score <= 100, \"Score too...\n      PUSH 40\t\t\tsult({\\n            caseId: ca...\n      MLOAD \t\t\tsult({\\n            caseId: ca...\n      DUP1 \t\t\tsult({\\n            caseId: ca...\n      PUSH 60\t\t\tsult({\\n            caseId: ca...\n      ADD \t\t\tsult({\\n            caseId: ca...\n      PUSH 40\t\t\tsult({\\n            caseId: ca...\n      MSTORE \t\t\tsult({\\n            caseId: ca...\n      DUP1 \t\t\tsult({\\n            caseId: ca...\n      DUP4 \t\t\tseId,\\n\n      DUP2 \t\t\tsult({\\n            caseId: ca...\n      MSTORE \t\t\tsult({\\n            caseId: ca...\n      PUSH 20\t\t\tsult({\\n            caseId: ca...\n      ADD \t\t\tsult({\\n            caseId: ca...\n      DUP3 \t\t\tore,\\n\n      DUP2 \t\t\tsult({\\n            caseId: ca...\n      MSTORE \t\t\tsult({\\n            caseId: ca...\n      PUSH 20\t\t\tsult({\\n            caseId: ca...\n      ADD \t\t\tsult({\\n            caseId: ca...\n      TIMESTAMP \t\t\tock.timestamp\\n \n      DUP2 \t\t\tsult({\\n            caseId: ca...\n      MSTORE \t\t\tsult({\\n            caseId: ca...\n      POP \t\t\tsult({\\n            caseId: ca...\n      PUSH 0\t\t\tayerResults[m\n      PUSH 0\t\t\tayerResults[msg.sender] =\n      CALLER \t\t\tg.sender] \n      PUSH FFFFFFFFFFFFFFFFFFFFFFFFFFFFFFFFFFFFFFFF\t\t\tayerResults[msg.sender] =\n      AND \t\t\tayerResults[msg.sender] =\n      PUSH FFFFFFFFFFFFFFFFFFFFFFFFFFFFFFFFFFFFFFFF\t\t\tayerResults[msg.sender] =\n      AND \t\t\tayerResults[msg.sender] =\n      DUP2 \t\t\tayerResults[msg.sender] =\n      MSTORE \t\t\tayerResults[msg.sender] =\n      PUSH 20\t\t\tayerResults[msg.sender] =\n      ADD \t\t\tayerResults[msg.sender] =\n      SWAP1 \t\t\tayerResults[msg.sender] =\n      DUP2 \t\t\tayerResults[msg.sender] =\n      MSTORE \t\t\tayerResults[msg.sender] =\n      PUSH 20\t\t\tayerResults[msg.sender] =\n      ADD \t\t\tayerResults[msg.sender] =\n      PUSH 0\t\t\tayerResults[msg.sender] =\n      KECCAK256 \t\t\tayerResults[msg.sender] =\n      PUSH 0\t\t\tayerResults[msg.sender] = Resu...\n      DUP3 \t\t\tayerResults[msg.sender] = Resu...\n      ADD \t\t\tayerResults[msg.sender] = Resu...\n      MLOAD \t\t\tayerResults[msg.sender] = Resu...\n      DUP2 \t\t\tayerResults[msg.sender] = Resu...\n      PUSH 0\t\t\tayerResults[msg.sender] = Resu...\n      ADD \t\t\tayerResults[msg.sender] = Resu...\n      SSTORE \t\t\tayerResults[msg.sender] = Resu...\n      PUSH 20\t\t\tayerResults[msg.sender] = Resu...\n      DUP3 \t\t\tayerResults[msg.sender] = Resu...\n      ADD \t\t\tayerResults[msg.sender] = Resu...\n      MLOAD \t\t\tayerResults[msg.sender] = Resu...\n      DUP2 \t\t\tayerResults[msg.sender] = Resu...\n      PUSH 1\t\t\tayerResults[msg.sender] = Resu...\n      ADD \t\t\tayerResults[msg.sender] = Resu...\n      SSTORE \t\t\tayerResults[msg.sender] = Resu...\n      PUSH 40\t\t\tayerResults[msg.sender] = Resu...\n      DUP3 \t\t\tayerResults[msg.sender] = Resu...\n      ADD \t\t\tayerResults[msg.sender] = Resu...\n      MLOAD \t\t\tayerResults[msg.sender] = Resu...\n      DUP2 \t\t\tayerResults[msg.sender] = Resu...\n      PUSH 2\t\t\tayerResults[msg.sender] = Resu...\n      ADD \t\t\tayerResults[msg.sender] = Resu...\n      SSTORE \t\t\tayerResults[msg.sender] = Resu...\n      SWAP1 \t\t\tayerResults[msg.sender] = Resu...\n      POP \t\t\tayerResults[msg.sender] = Resu...\n      POP \t\t\tayerResults[msg.sender] = Resu...\n      PUSH 1\t\t\tue;\\n\n      DUP1 \t\t\tsCompleted[m\n      PUSH 0\t\t\tsCompleted[msg.sender] =\n      CALLER \t\t\tg.sender] \n      PUSH FFFFFFFFFFFFFFFFFFFFFFFFFFFFFFFFFFFFFFFF\t\t\tsCompleted[msg.sender] =\n      AND \t\t\tsCompleted[msg.sender] =\n      PUSH FFFFFFFFFFFFFFFFFFFFFFFFFFFFFFFFFFFFFFFF\t\t\tsCompleted[msg.sender] =\n      AND \t\t\tsCompleted[msg.sender] =\n      DUP2 \t\t\tsCompleted[msg.sender] =\n      MSTORE \t\t\tsCompleted[msg.sender] =\n      PUSH 20\t\t\tsCompleted[msg.sender] =\n      ADD \t\t\tsCompleted[msg.sender] =\n      SWAP1 \t\t\tsCompleted[msg.sender] =\n      DUP2 \t\t\tsCompleted[msg.sender] =\n      MSTORE \t\t\tsCompleted[msg.sender] =\n      PUSH 20\t\t\tsCompleted[msg.sender] =\n      ADD \t\t\tsCompleted[msg.sender] =\n      PUSH 0\t\t\tsCompleted[msg.sender] =\n      KECCAK256 \t\t\tsCompleted[msg.sender] =\n      PUSH 0\t\t\tsCompleted[msg.sender] =\n      PUSH 100\t\t\tsCompleted[msg.sender] = true;...\n      EXP \t\t\tsCompleted[msg.sender] = true;...\n      DUP2 \t\t\tsCompleted[msg.sender] = true;...\n      SLOAD \t\t\tsCompleted[msg.sender] = true;...\n      DUP2 \t\t\tsCompleted[msg.sender] = true;...\n      PUSH FF\t\t\tsCompleted[msg.sender] = true;...\n      MUL \t\t\tsCompleted[msg.sender] = true;...\n      NOT \t\t\tsCompleted[msg.sender] = true;...\n      AND \t\t\tsCompleted[msg.sender] = true;...\n      SWAP1 \t\t\tsCompleted[msg.sender] = true;...\n      DUP4 \t\t\tsCompleted[msg.sender] = true;...\n      ISZERO \t\t\tsCompleted[msg.sender] = true;...\n      ISZERO \t\t\tsCompleted[msg.sender] = true;...\n      MUL \t\t\tsCompleted[msg.sender] = true;...\n      OR \t\t\tsCompleted[msg.sender] = true;...\n      SWAP1 \t\t\tsCompleted[msg.sender] = true;...\n      SSTORE \t\t\tsCompleted[msg.sender] = true;...\n      POP \t\t\tsCompleted[msg.sender] = true;...\n      CALLER \t\t\tg.sender, \n      PUSH FFFFFFFFFFFFFFFFFFFFFFFFFFFFFFFFFFFFFFFF\t\t\tseCompleted(msg.sender, caseId...\n      AND \t\t\tseCompleted(msg.sender, caseId...\n      PUSH 68223DBB4330C48F7353EE5499B3CADB344B08E1E75B973BFD4B6329F5151B1A\t\t\tseCompleted(msg.sender, caseId...\n      DUP4 \t\t\tseId, \n      DUP4 \t\t\tore, \n      TIMESTAMP \t\t\tock.timestamp);\n      PUSH 40\t\t\tseCompleted(msg.sender, caseId...\n      MLOAD \t\t\tseCompleted(msg.sender, caseId...\n      PUSH [tag] 36\t\t\tseCompleted(msg.sender, caseId...\n      SWAP4 \t\t\tseCompleted(msg.sender, caseId...\n      SWAP3 \t\t\tseCompleted(msg.sender, caseId...\n      SWAP2 \t\t\tseCompleted(msg.sender, caseId...\n      SWAP1 \t\t\tseCompleted(msg.sender, caseId...\n      PUSH [tag] 22\t\t\tseCompleted(msg.sender, caseId...\n      JUMP \t\t\tseCompleted(msg.sender, caseId...\n    tag 36\t\t\tseCompleted(msg.sender, caseId...\n      JUMPDEST \t\t\tseCompleted(msg.sender, caseId...\n      PUSH 40\t\t\tseCompleted(msg.sender, caseId...\n      MLOAD \t\t\tseCompleted(msg.sender, caseId...\n      DUP1 \t\t\tseCompleted(msg.sender, caseId...\n      SWAP2 \t\t\tseCompleted(msg.sender, caseId...\n      SUB \t\t\tseCompleted(msg.sender, caseId...\n      SWAP1 \t\t\tseCompleted(msg.sender, caseId...\n      LOG2 \t\t\tseCompleted(msg.sender, caseId...\n      POP \t\t\tnction completeCase(uint256 ca...\n      POP \t\t\tnction completeCase(uint256 ca...\n      JUMP \t\t\tnction completeCase(uint256 ca...\n    tag 15\t\t\tmapping(address => bool) publi...\n      JUMPDEST \t\t\tmapping(address => bool) publi...\n      PUSH 1\t\t\tmapping(address => bool) publi...\n      PUSH 20\t\t\tmapping(address => bool) publi...\n      MSTORE \t\t\tmapping(address => bool) publi...\n      DUP1 \t\t\tmapping(address => bool) publi...\n      PUSH 0\t\t\tmapping(address => bool) publi...\n      MSTORE \t\t\tmapping(address => bool) publi...\n      PUSH 40\t\t\tmapping(address => bool) publi...\n      PUSH 0\t\t\tmapping(address => bool) publi...\n      KECCAK256 \t\t\tmapping(address => bool) publi...\n      PUSH 0\t\t\tmapping(address => bool) publi...\n      SWAP2 \t\t\tmapping(address => bool) publi...\n      POP \t\t\tmapping(address => bool) publi...\n      SLOAD \t\t\tmapping(address => bool) publi...\n      SWAP1 \t\t\tmapping(address => bool) publi...\n      PUSH 100\t\t\tmapping(address => bool) publi...\n      EXP \t\t\tmapping(address => bool) publi...\n      SWAP1 \t\t\tmapping(address => bool) publi...\n      DIV \t\t\tmapping(address => bool) publi...\n      PUSH FF\t\t\tmapping(address => bool) publi...\n      AND \t\t\tmapping(address => bool) publi...\n      DUP2 \t\t\tmapping(address => bool) publi...\n      JUMP \t\t\tmapping(address => bool) publi...\n    tag 20\t\t\tnction getResult(address playe...\n      JUMPDEST \t\t\tnction getResult(address playe...\n      PUSH 0\t\t\tnt256 caseId, \n      PUSH 0\t\t\tnt256 score, \n      PUSH 0\t\t\tnt256 timestamp)\\n\n      PUSH 0\t\t\tsult memory r =\n      PUSH 0\t\t\tayerResults[p\n      PUSH 0\t\t\tayerResults[player];\\n\n      DUP7 \t\t\tayer];\n      PUSH FFFFFFFFFFFFFFFFFFFFFFFFFFFFFFFFFFFFFFFF\t\t\tayerResults[player];\\n\n      AND \t\t\tayerResults[player];\\n\n      PUSH FFFFFFFFFFFFFFFFFFFFFFFFFFFFFFFFFFFFFFFF\t\t\tayerResults[player];\\n\n      AND \t\t\tayerResults[player];\\n\n      DUP2 \t\t\tayerResults[player];\\n\n      MSTORE \t\t\tayerResults[player];\\n\n      PUSH 20\t\t\tayerResults[player];\\n\n      ADD \t\t\tayerResults[player];\\n\n      SWAP1 \t\t\tayerResults[player];\\n\n      DUP2 \t\t\tayerResults[player];\\n\n      MSTORE \t\t\tayerResults[player];\\n\n      PUSH 20\t\t\tayerResults[player];\\n\n      ADD \t\t\tayerResults[player];\\n\n      PUSH 0\t\t\tayerResults[player];\\n\n      KECCAK256 \t\t\tayerResults[player];\\n\n      PUSH 40\t\t\tsult memory r = playerResults[...\n      MLOAD \t\t\tsult memory r = playerResults[...\n      DUP1 \t\t\tsult memory r = playerResults[...\n      PUSH 60\t\t\tsult memory r = playerResults[...\n      ADD \t\t\tsult memory r = playerResults[...\n      PUSH 40\t\t\tsult memory r = playerResults[...\n      MSTORE \t\t\tsult memory r = playerResults[...\n      SWAP1 \t\t\tsult memory r = playerResults[...\n      DUP2 \t\t\tsult memory r = playerResults[...\n      PUSH 0\t\t\tsult memory r = playerResults[...\n      DUP3 \t\t\tsult memory r = playerResults[...\n      ADD \t\t\tsult memory r = playerResults[...\n      SLOAD \t\t\tsult memory r = playerResults[...\n      DUP2 \t\t\tsult memory r = playerResults[...\n      MSTORE \t\t\tsult memory r = playerResults[...\n      PUSH 20\t\t\tsult memory r = playerResults[...\n      ADD \t\t\tsult memory r = playerResults[...\n      PUSH 1\t\t\tsult memory r = playerResults[...\n      DUP3 \t\t\tsult memory r = playerResults[...\n      ADD \t\t\tsult memory r = playerResults[...\n      SLOAD \t\t\tsult memory r = playerResults[...\n      DUP2 \t\t\tsult memory r = playerResults[...\n      MSTORE \t\t\tsult memory r = playerResults[...\n      PUSH 20\t\t\tsult memory r = playerResults[...\n      ADD \t\t\tsult memory r = playerResults[...\n      PUSH 2\t\t\tsult memory r = playerResults[...\n      DUP3 \t\t\tsult memory r = playerResults[...\n      ADD \t\t\tsult memory r = playerResults[...\n      SLOAD \t\t\tsult memory r = playerResults[...\n      DUP2 \t\t\tsult memory r = playerResults[...\n      MSTORE \t\t\tsult memory r = playerResults[...\n      POP \t\t\tsult memory r = playerResults[...\n      POP \t\t\tsult memory r = playerResults[...\n      SWAP1 \t\t\tsult memory r = playerResults[...\n      POP \t\t\tsult memory r = playerResults[...\n      DUP1 \t\t\tc\n      PUSH 0\t\t\tcaseId, \n      ADD \t\t\tcaseId, \n      MLOAD \t\t\tcaseId, \n      DUP2 \t\t\ts\n      PUSH 20\t\t\tscore, \n      ADD \t\t\tscore, \n      MLOAD \t\t\tscore, \n      DUP3 \t\t\tt\n      PUSH 40\t\t\ttimestamp);\n      ADD \t\t\ttimestamp);\n      MLOAD \t\t\ttimestamp);\n      SWAP4 \t\t\tturn (r.caseId, r.score, r.tim...\n      POP \t\t\tturn (r.caseId, r.score, r.tim...\n      SWAP4 \t\t\tturn (r.caseId, r.score, r.tim...\n      POP \t\t\tturn (r.caseId, r.score, r.tim...\n      SWAP4 \t\t\tturn (r.caseId, r.score, r.tim...\n      POP \t\t\tturn (r.caseId, r.score, r.tim...\n      POP \t\t\tturn (r.caseId, r.score, r.tim...\n      SWAP2 \t\t\tnction getResult(address playe...\n      SWAP4 \t\t\tnction getResult(address playe...\n      SWAP1 \t\t\tnction getResult(address playe...\n      SWAP3 \t\t\tnction getResult(address playe...\n      POP \t\t\tnction getResult(address playe...\n      JUMP \t\t\tnction getResult(address playe...\n    tag 25\t\t\tmapping(address => Result) pub...\n      JUMPDEST \t\t\tmapping(address => Result) pub...\n      PUSH 0\t\t\tmapping(address => Result) pub...\n      PUSH 20\t\t\tmapping(address => Result) pub...\n      MSTORE \t\t\tmapping(address => Result) pub...\n      DUP1 \t\t\tmapping(address => Result) pub...\n      PUSH 0\t\t\tmapping(address => Result) pub...\n      MSTORE \t\t\tmapping(address => Result) pub...\n      PUSH 40\t\t\tmapping(address => Result) pub...\n      PUSH 0\t\t\tmapping(address => Result) pub...\n      KECCAK256 \t\t\tmapping(address => Result) pub...\n      PUSH 0\t\t\tmapping(address => Result) pub...\n      SWAP2 \t\t\tmapping(address => Result) pub...\n      POP \t\t\tmapping(address => Result) pub...\n      SWAP1 \t\t\tmapping(address => Result) pub...\n      POP \t\t\tmapping(address => Result) pub...\n      DUP1 \t\t\tmapping(address => Result) pub...\n      PUSH 0\t\t\tmapping(address => Result) pub...\n      ADD \t\t\tmapping(address => Result) pub...\n      SLOAD \t\t\tmapping(address => Result) pub...\n      SWAP1 \t\t\tmapping(address => Result) pub...\n      DUP1 \t\t\tmapping(address => Result) pub...\n      PUSH 1\t\t\tmapping(address => Result) pub...\n      ADD \t\t\tmapping(address => Result) pub...\n      SLOAD \t\t\tmapping(address => Result) pub...\n      SWAP1 \t\t\tmapping(address => Result) pub...\n      DUP1 \t\t\tmapping(address => Result) pub...\n      PUSH 2\t\t\tmapping(address => Result) pub...\n      ADD \t\t\tmapping(address => Result) pub...\n      SLOAD \t\t\tmapping(address => Result) pub...\n      SWAP1 \t\t\tmapping(address => Result) pub...\n      POP \t\t\tmapping(address => Result) pub...\n      DUP4 \t\t\tmapping(address => Result) pub...\n      JUMP \t\t\tmapping(address => Result) pub...\n    tag 28\t\t\tnction reset() external {\\n   ...\n      JUMPDEST \t\t\tnction reset() external {\\n   ...\n      PUSH 0\t\t\tayerResults[m\n      PUSH 0\t\t\tayerResults[msg.sender];\\n\n      CALLER \t\t\tg.sender];\n      PUSH FFFFFFFFFFFFFFFFFFFFFFFFFFFFFFFFFFFFFFFF\t\t\tayerResults[msg.sender];\\n\n      AND \t\t\tayerResults[msg.sender];\\n\n      PUSH FFFFFFFFFFFFFFFFFFFFFFFFFFFFFFFFFFFFFFFF\t\t\tayerResults[msg.sender];\\n\n      AND \t\t\tayerResults[msg.sender];\\n\n      DUP2 \t\t\tayerResults[msg.sender];\\n\n      MSTORE \t\t\tayerResults[msg.sender];\\n\n      PUSH 20\t\t\tayerResults[msg.sender];\\n\n      ADD \t\t\tayerResults[msg.sender];\\n\n      SWAP1 \t\t\tayerResults[msg.sender];\\n\n      DUP2 \t\t\tayerResults[msg.sender];\\n\n      MSTORE \t\t\tayerResults[msg.sender];\\n\n      PUSH 20\t\t\tayerResults[msg.sender];\\n\n      ADD \t\t\tayerResults[msg.sender];\\n\n      PUSH 0\t\t\tayerResults[msg.sender];\\n\n      KECCAK256 \t\t\tayerResults[msg.sender];\\n\n      PUSH 0\t\t\tayerResults[msg.sender];\\n\n      PUSH 0\t\t\tlete playerResults[msg.sender]...\n      DUP3 \t\t\tlete playerResults[msg.sender]...\n      ADD \t\t\tlete playerResults[msg.sender]...\n      PUSH 0\t\t\tlete playerResults[msg.sender]...\n      SWAP1 \t\t\tlete playerResults[msg.sender]...\n      SSTORE \t\t\tlete playerResults[msg.sender]...\n      PUSH 1\t\t\tlete playerResults[msg.sender]...\n      DUP3 \t\t\tlete playerResults[msg.sender]...\n      ADD \t\t\tlete playerResults[msg.sender]...\n      PUSH 0\t\t\tlete playerResults[msg.sender]...\n      SWAP1 \t\t\tlete playerResults[msg.sender]...\n      SSTORE \t\t\tlete playerResults[msg.sender]...\n      PUSH 2\t\t\tlete playerResults[msg.sender]...\n      DUP3 \t\t\tlete playerResults[msg.sender]...\n      ADD \t\t\tlete playerResults[msg.sender]...\n      PUSH 0\t\t\tlete playerResults[msg.sender]...\n      SWAP1 \t\t\tlete playerResults[msg.sender]...\n      SSTORE \t\t\tlete playerResults[msg.sender]...\n      POP \t\t\tlete playerResults[msg.sender]...\n      POP \t\t\tlete playerResults[msg.sender]...\n      PUSH 0\t\t\tlse;\\n\n      PUSH 1\t\t\tsCompleted[m\n      PUSH 0\t\t\tsCompleted[msg.sender] =\n      CALLER \t\t\tg.sender] \n      PUSH FFFFFFFFFFFFFFFFFFFFFFFFFFFFFFFFFFFFFFFF\t\t\tsCompleted[msg.sender] =\n      AND \t\t\tsCompleted[msg.sender] =\n      PUSH FFFFFFFFFFFFFFFFFFFFFFFFFFFFFFFFFFFFFFFF\t\t\tsCompleted[msg.sender] =\n      AND \t\t\tsCompleted[msg.sender] =\n      DUP2 \t\t\tsCompleted[msg.sender] =\n      MSTORE \t\t\tsCompleted[msg.sender] =\n      PUSH 20\t\t\tsCompleted[msg.sender] =\n      ADD \t\t\tsCompleted[msg.sender] =\n      SWAP1 \t\t\tsCompleted[msg.sender] =\n      DUP2 \t\t\tsCompleted[msg.sender] =\n      MSTORE \t\t\tsCompleted[msg.sender] =\n      PUSH 20\t\t\tsCompleted[msg.sender] =\n      ADD \t\t\tsCompleted[msg.sender] =\n      PUSH 0\t\t\tsCompleted[msg.sender] =\n      KECCAK256 \t\t\tsCompleted[msg.sender] =\n      PUSH 0\t\t\tsCompleted[msg.sender] =\n      PUSH 100\t\t\tsCompleted[msg.sender] = false...\n      EXP \t\t\tsCompleted[msg.sender] = false...\n      DUP2 \t\t\tsCompleted[msg.sender] = false...\n      SLOAD \t\t\tsCompleted[msg.sender] = false...\n      DUP2 \t\t\tsCompleted[msg.sender] = false...\n      PUSH FF\t\t\tsCompleted[msg.sender] = false...\n      MUL \t\t\tsCompleted[msg.sender] = false...\n      NOT \t\t\tsCompleted[msg.sender] = false...\n      AND \t\t\tsCompleted[msg.sender] = false...\n      SWAP1 \t\t\tsCompleted[msg.sender] = false...\n      DUP4 \t\t\tsCompleted[msg.sender] = false...\n      ISZERO \t\t\tsCompleted[msg.sender] = false...\n      ISZERO \t\t\tsCompleted[msg.sender] = false...\n      MUL \t\t\tsCompleted[msg.sender] = false...\n      OR \t\t\tsCompleted[msg.sender] = false...\n      SWAP1 \t\t\tsCompleted[msg.sender] = false...\n      SSTORE \t\t\tsCompleted[msg.sender] = false...\n      POP \t\t\tsCompleted[msg.sender] = false...\n      JUMP \t\t\tnction reset() external {\\n   ...\n    tag 40\t\t\t-chain record of completed inv...\n      JUMPDEST \t\t\t-chain record of completed inv...\n      PUSH 0\t\t\th\n      PUSH 0\t\t\ts\n      REVERT \t\t\tfinishes the\n    tag 42\t\t\t      uint256 caseId;      // ...\n      JUMPDEST \t\t\t      uint256 caseId;      // ...\n      PUSH 0\t\t\the case\n      DUP2 \t\t\t56 sc\n      SWAP1 \t\t\t      uint256 sc\n      POP \t\t\t      uint256 sc\n      SWAP2 \t\t\t      uint256 caseId;      // ...\n      SWAP1 \t\t\t      uint256 caseId;      // ...\n      POP \t\t\t      uint256 caseId;      // ...\n      JUMP \t\t\t      uint256 caseId;      // ...\n    tag 43\t\t\t/ Player's final score\\n      ...\n      JUMPDEST \t\t\t/ Player's final score\\n      ...\n      PUSH [tag] 63\t\t\tcompleted\\n    }\\n\\n    map\n      DUP2 \t\t\t   ma\n      PUSH [tag] 42\t\t\tcompleted\\n    }\\n\\n    map\n      JUMP \t\t\tcompleted\\n    }\\n\\n    map\n    tag 63\t\t\tcompleted\\n    }\\n\\n    map\n      JUMPDEST \t\t\tcompleted\\n    }\\n\\n    map\n      DUP2 \t\t\tse wa\n      EQ \t\t\t case was completed\\n    }\\n\\n...\n      PUSH [tag] 64\t\t\t/ When the case was completed\\...\n      JUMPI \t\t\t/ When the case was completed\\...\n      PUSH 0\t\t\t \n      PUSH 0\t\t\t \n      REVERT \t\t\taddress => R\n    tag 64\t\t\t/ When the case was completed\\...\n      JUMPDEST \t\t\t/ When the case was completed\\...\n      POP \t\t\t/ Player's final score\\n      ...\n      JUMP \t\t\t/ Player's final score\\n      ...\n    tag 44\t\t\tplayerResults;\\n    mapping(ad...\n      JUMPDEST \t\t\tplayerResults;\\n    mapping(ad...\n      PUSH 0\t\t\tblic \n      DUP2 \t\t\tleted(\n      CALLDATALOAD \t\t\tvent CaseCompleted(a\n      SWAP1 \t\t\td;\\n\\n    event CaseCompleted(...\n      POP \t\t\td;\\n\\n    event CaseCompleted(...\n      PUSH [tag] 66\t\t\tdexed player, uint256 caseId, ...\n      DUP2 \t\t\td, ui\n      PUSH [tag] 43\t\t\tdexed player, uint256 caseId, ...\n      JUMP \t\t\tdexed player, uint256 caseId, ...\n    tag 66\t\t\tdexed player, uint256 caseId, ...\n      JUMPDEST \t\t\tdexed player, uint256 caseId, ...\n      SWAP3 \t\t\tplayerResults;\\n    mapping(ad...\n      SWAP2 \t\t\tplayerResults;\\n    mapping(ad...\n      POP \t\t\tplayerResults;\\n    mapping(ad...\n      POP \t\t\tplayerResults;\\n    mapping(ad...\n      JUMP \t\t\tplayerResults;\\n    mapping(ad...\n    tag 10\t\t\tuint256 timestamp);\\n\\n    ///...\n      JUMPDEST \t\t\tuint256 timestamp);\\n\\n    ///...\n      PUSH 0\t\t\t(only \n      PUSH 0\t\t\tce per\n      PUSH 40\t\t\tf \n      DUP4 \t\t\teId The I\n      DUP6 \t\t\tparam c\n      SUB \t\t\t// @param caseId The ID\n      SLT \t\t\t   /// @param caseId The ID of...\n      ISZERO \t\t\t)\\n    /// @param caseId The I...\n      PUSH [tag] 68\t\t\t)\\n    /// @param caseId The I...\n      JUMPI \t\t\t)\\n    /// @param caseId The I...\n      PUSH [tag] 69\t\t\tcase or quest\\n    /// @param ...\n      PUSH [tag] 40\t\t\tcase or quest\\n    /// @param ...\n      JUMP \t\t\tcase or quest\\n    /// @param ...\n    tag 69\t\t\tcase or quest\\n    /// @param ...\n      JUMPDEST \t\t\tcase or quest\\n    /// @param ...\n    tag 68\t\t\t)\\n    /// @param caseId The I...\n      JUMPDEST \t\t\t)\\n    /// @param caseId The I...\n      PUSH 0\t\t\ti\n      PUSH [tag] 70\t\t\t        require(score > 0, \"In...\n      DUP6 \t\t\t       \n      DUP3 \t\t\tscore\"\n      DUP7 \t\t\t, \"Invali\n      ADD \t\t\t > 0, \"Invalid score\")\n      PUSH [tag] 44\t\t\t        require(score > 0, \"In...\n      JUMP \t\t\t        require(score > 0, \"In...\n    tag 70\t\t\t        require(score > 0, \"In...\n      JUMPDEST \t\t\t        require(score > 0, \"In...\n      SWAP3 \t\t\txternal {\\n        require(sco...\n      POP \t\t\txternal {\\n        require(sco...\n      POP \t\t\tompleteCase(uint256 caseId, ui...\n      PUSH 20\t\t\t p\n      PUSH [tag] 71\t\t\t = Result({\\n            caseI...\n      DUP6 \t\t\t       \n      DUP3 \t\t\tId,\\n  \n      DUP7 \t\t\taseId: ca\n      ADD \t\t\t   caseId: caseId,\\n   \n      PUSH [tag] 44\t\t\t = Result({\\n            caseI...\n      JUMP \t\t\t = Result({\\n            caseI...\n    tag 71\t\t\t = Result({\\n            caseI...\n      JUMPDEST \t\t\t = Result({\\n            caseI...\n      SWAP2 \t\t\tsg.sender] = Result({\\n       ...\n      POP \t\t\tsg.sender] = Result({\\n       ...\n      POP \t\t\t, \"Score too high\");\\n\\n      ...\n      SWAP3 \t\t\tuint256 timestamp);\\n\\n    ///...\n      POP \t\t\tuint256 timestamp);\\n\\n    ///...\n      SWAP3 \t\t\tuint256 timestamp);\\n\\n    ///...\n      SWAP1 \t\t\tuint256 timestamp);\\n\\n    ///...\n      POP \t\t\tuint256 timestamp);\\n\\n    ///...\n      JUMP \t\t\tuint256 timestamp);\\n\\n    ///...\n    tag 45\t\t\t  timestamp: block.timestamp\\n...\n      JUMPDEST \t\t\t  timestamp: block.timestamp\\n...\n      PUSH 0\t\t\t});\\n\\n  \n      PUSH FFFFFFFFFFFFFFFFFFFFFFFFFFFFFFFFFFFFFFFF\t\t\ttrue;\\n\\n        emit CaseComp...\n      DUP3 \t\t\tder] \n      AND \t\t\t.sender] = true;\\n\\n        em...\n      SWAP1 \t\t\tmpleted[msg.sender] = true;\\n\\...\n      POP \t\t\tmpleted[msg.sender] = true;\\n\\...\n      SWAP2 \t\t\t  timestamp: block.timestamp\\n...\n      SWAP1 \t\t\t  timestamp: block.timestamp\\n...\n      POP \t\t\t  timestamp: block.timestamp\\n...\n      JUMP \t\t\t  timestamp: block.timestamp\\n...\n    tag 46\t\t\tcore, block.timestamp);\\n    }...\n      JUMPDEST \t\t\tcore, block.timestamp);\\n    }...\n      PUSH 0\t\t\t/ @noti\n      PUSH [tag] 74\t\t\t   /// @param player Add\n      DUP3 \t\t\ter Ad\n      PUSH [tag] 45\t\t\t   /// @param player Add\n      JUMP \t\t\t   /// @param player Add\n    tag 74\t\t\t   /// @param player Add\n      JUMPDEST \t\t\t   /// @param player Add\n      SWAP1 \t\t\ter result\\n    /// @param play...\n      POP \t\t\ter result\\n    /// @param play...\n      SWAP2 \t\t\tcore, block.timestamp);\\n    }...\n      SWAP1 \t\t\tcore, block.timestamp);\\n    }...\n      POP \t\t\tcore, block.timestamp);\\n    }...\n      JUMP \t\t\tcore, block.timestamp);\\n    }...\n    tag 47\t\t\tuser\\n    function getResult(a...\n      JUMPDEST \t\t\tuser\\n    function getResult(a...\n      PUSH [tag] 76\t\t\t\\n        returns (uint25\n      DUP2 \t\t\tuint2\n      PUSH [tag] 46\t\t\t\\n        returns (uint25\n      JUMP \t\t\t\\n        returns (uint25\n    tag 76\t\t\t\\n        returns (uint25\n      JUMPDEST \t\t\t\\n        returns (uint25\n      DUP2 \t\t\t   vi\n      EQ \t\t\t      view\\n        returns (u...\n      PUSH [tag] 77\t\t\txternal\\n        view\\n       ...\n      JUMPI \t\t\txternal\\n        view\\n       ...\n      PUSH 0\t\t\t5\n      PUSH 0\t\t\tn\n      REVERT \t\t\teId, uint256\n    tag 77\t\t\txternal\\n        view\\n       ...\n      JUMPDEST \t\t\txternal\\n        view\\n       ...\n      POP \t\t\tuser\\n    function getResult(a...\n      JUMP \t\t\tuser\\n    function getResult(a...\n    tag 48\t\t\t6 timestamp)\\n    {\\n        R...\n      JUMPDEST \t\t\t6 timestamp)\\n    {\\n        R...\n      PUSH 0\t\t\tlayer\n      DUP2 \t\t\tr.case\n      CALLDATALOAD \t\t\t     return (r.caseI\n      SWAP1 \t\t\tyer];\\n        return (r.caseI\n      POP \t\t\tyer];\\n        return (r.caseI\n      PUSH [tag] 79\t\t\te, r.timestamp);\\n    }\\n\\n   ...\n      DUP2 \t\t\t /// \n      PUSH [tag] 47\t\t\te, r.timestamp);\\n    }\\n\\n   ...\n      JUMP \t\t\te, r.timestamp);\\n    }\\n\\n   ...\n    tag 79\t\t\te, r.timestamp);\\n    }\\n\\n   ...\n      JUMPDEST \t\t\te, r.timestamp);\\n    }\\n\\n   ...\n      SWAP3 \t\t\t6 timestamp)\\n    {\\n        R...\n      SWAP2 \t\t\t6 timestamp)\\n    {\\n        R...\n      POP \t\t\t6 timestamp)\\n    {\\n        R...\n      POP \t\t\t6 timestamp)\\n    {\\n        R...\n      JUMP \t\t\t6 timestamp)\\n    {\\n        R...\n    tag 14\t\t\t user to reset progress and re...\n      JUMPDEST \t\t\t user to reset progress and re...\n      PUSH 0\t\t\treset(\n      PUSH 20\t\t\tsg\n      DUP3 \t\t\tyerResult\n      DUP5 \t\t\telete p\n      SUB \t\t\t   delete playerResults\n      SLT \t\t\t       delete playerResults[ms...\n      ISZERO \t\t\t{\\n        delete playerResult...\n      PUSH [tag] 81\t\t\t{\\n        delete playerResult...\n      JUMPI \t\t\t{\\n        delete playerResult...\n      PUSH [tag] 82\t\t\tder];\\n        hasCompleted[ms...\n      PUSH [tag] 40\t\t\tder];\\n        hasCompleted[ms...\n      JUMP \t\t\tder];\\n        hasCompleted[ms...\n    tag 82\t\t\tder];\\n        hasCompleted[ms...\n      JUMPDEST \t\t\tder];\\n        hasCompleted[ms...\n    tag 81\t\t\t{\\n        delete playerResult...\n      JUMPDEST \t\t\t{\\n        delete playerResult...\n      PUSH 0\t\t\t\n      PUSH [tag] 83\t\t\t\n      DUP5 \t\t\t\n      DUP3 \t\t\t\n      DUP6 \t\t\t\n      ADD \t\t\t\n      PUSH [tag] 48\t\t\t\n      JUMP \t\t\t\n    tag 83\t\t\t\n      JUMPDEST \t\t\t\n      SWAP2 \t\t\t\n      POP \t\t\t\n      POP \t\t\t\n      SWAP3 \t\t\t user to reset progress and re...\n      SWAP2 \t\t\t user to reset progress and re...\n      POP \t\t\t user to reset progress and re...\n      POP \t\t\t user to reset progress and re...\n      JUMP \t\t\t user to reset progress and re...\n    tag 49\t\t\t\n      JUMPDEST \t\t\t\n      PUSH 0\t\t\t\n      DUP2 \t\t\t\n      ISZERO \t\t\t\n      ISZERO \t\t\t\n      SWAP1 \t\t\t\n      POP \t\t\t\n      SWAP2 \t\t\t\n      SWAP1 \t\t\t\n      POP \t\t\t\n      JUMP \t\t\t\n    tag 50\t\t\t\n      JUMPDEST \t\t\t\n      PUSH [tag] 86\t\t\t\n      DUP2 \t\t\t\n      PUSH [tag] 49\t\t\t\n      JUMP \t\t\t\n    tag 86\t\t\t\n      JUMPDEST \t\t\t\n      DUP3 \t\t\t\n      MSTORE \t\t\t\n      POP \t\t\t\n      POP \t\t\t\n      JUMP \t\t\t\n    tag 17\t\t\t\n      JUMPDEST \t\t\t\n      PUSH 0\t\t\t\n      PUSH 20\t\t\t\n      DUP3 \t\t\t\n      ADD \t\t\t\n      SWAP1 \t\t\t\n      POP \t\t\t\n      PUSH [tag] 88\t\t\t\n      PUSH 0\t\t\t\n      DUP4 \t\t\t\n      ADD \t\t\t\n      DUP5 \t\t\t\n      PUSH [tag] 50\t\t\t\n      JUMP \t\t\t\n    tag 88\t\t\t\n      JUMPDEST \t\t\t\n      SWAP3 \t\t\t\n      SWAP2 \t\t\t\n      POP \t\t\t\n      POP \t\t\t\n      JUMP \t\t\t\n    tag 51\t\t\t\n      JUMPDEST \t\t\t\n      PUSH [tag] 90\t\t\t\n      DUP2 \t\t\t\n      PUSH [tag] 42\t\t\t\n      JUMP \t\t\t\n    tag 90\t\t\t\n      JUMPDEST \t\t\t\n      DUP3 \t\t\t\n      MSTORE \t\t\t\n      POP \t\t\t\n      POP \t\t\t\n      JUMP \t\t\t\n    tag 22\t\t\t\n      JUMPDEST \t\t\t\n      PUSH 0\t\t\t\n      PUSH 60\t\t\t\n      DUP3 \t\t\t\n      ADD \t\t\t\n      SWAP1 \t\t\t\n      POP \t\t\t\n      PUSH [tag] 92\t\t\t\n      PUSH 0\t\t\t\n      DUP4 \t\t\t\n      ADD \t\t\t\n      DUP7 \t\t\t\n      PUSH [tag] 51\t\t\t\n      JUMP \t\t\t\n    tag 92\t\t\t\n      JUMPDEST \t\t\t\n      PUSH [tag] 93\t\t\t\n      PUSH 20\t\t\t\n      DUP4 \t\t\t\n      ADD \t\t\t\n      DUP6 \t\t\t\n      PUSH [tag] 51\t\t\t\n      JUMP \t\t\t\n    tag 93\t\t\t\n      JUMPDEST \t\t\t\n      PUSH [tag] 94\t\t\t\n      PUSH 40\t\t\t\n      DUP4 \t\t\t\n      ADD \t\t\t\n      DUP5 \t\t\t\n      PUSH [tag] 51\t\t\t\n      JUMP \t\t\t\n    tag 94\t\t\t\n      JUMPDEST \t\t\t\n      SWAP5 \t\t\t\n      SWAP4 \t\t\t\n      POP \t\t\t\n      POP \t\t\t\n      POP \t\t\t\n      POP \t\t\t\n      JUMP \t\t\t\n    tag 52\t\t\t\n      JUMPDEST \t\t\t\n      PUSH 0\t\t\t\n      DUP3 \t\t\t\n      DUP3 \t\t\t\n      MSTORE \t\t\t\n      PUSH 20\t\t\t\n      DUP3 \t\t\t\n      ADD \t\t\t\n      SWAP1 \t\t\t\n      POP \t\t\t\n      SWAP3 \t\t\t\n      SWAP2 \t\t\t\n      POP \t\t\t\n      POP \t\t\t\n      JUMP \t\t\t\n    tag 53\t\t\t\n      JUMPDEST \t\t\t\n      PUSH 496E76616C69642073636F726500000000000000000000000000000000000000\t\t\t\n      PUSH 0\t\t\t\n      DUP3 \t\t\t\n      ADD \t\t\t\n      MSTORE \t\t\t\n      POP \t\t\t\n      JUMP \t\t\t\n    tag 54\t\t\t\n      JUMPDEST \t\t\t\n      PUSH 0\t\t\t\n      PUSH [tag] 98\t\t\t\n      PUSH D\t\t\t\n      DUP4 \t\t\t\n      PUSH [tag] 52\t\t\t\n      JUMP \t\t\t\n    tag 98\t\t\t\n      JUMPDEST \t\t\t\n      SWAP2 \t\t\t\n      POP \t\t\t\n      PUSH [tag] 99\t\t\t\n      DUP3 \t\t\t\n      PUSH [tag] 53\t\t\t\n      JUMP \t\t\t\n    tag 99\t\t\t\n      JUMPDEST \t\t\t\n      PUSH 20\t\t\t\n      DUP3 \t\t\t\n      ADD \t\t\t\n      SWAP1 \t\t\t\n      POP \t\t\t\n      SWAP2 \t\t\t\n      SWAP1 \t\t\t\n      POP \t\t\t\n      JUMP \t\t\t\n    tag 32\t\t\t\n      JUMPDEST \t\t\t\n      PUSH 0\t\t\t\n      PUSH 20\t\t\t\n      DUP3 \t\t\t\n      ADD \t\t\t\n      SWAP1 \t\t\t\n      POP \t\t\t\n      DUP2 \t\t\t\n      DUP2 \t\t\t\n      SUB \t\t\t\n      PUSH 0\t\t\t\n      DUP4 \t\t\t\n      ADD \t\t\t\n      MSTORE \t\t\t\n      PUSH [tag] 101\t\t\t\n      DUP2 \t\t\t\n      PUSH [tag] 54\t\t\t\n      JUMP \t\t\t\n    tag 101\t\t\t\n      JUMPDEST \t\t\t\n      SWAP1 \t\t\t\n      POP \t\t\t\n      SWAP2 \t\t\t\n      SWAP1 \t\t\t\n      POP \t\t\t\n      JUMP \t\t\t\n    tag 55\t\t\t\n      JUMPDEST \t\t\t\n      PUSH 53636F726520746F6F2068696768000000000000000000000000000000000000\t\t\t\n      PUSH 0\t\t\t\n      DUP3 \t\t\t\n      ADD \t\t\t\n      MSTORE \t\t\t\n      POP \t\t\t\n      JUMP \t\t\t\n    tag 56\t\t\t\n      JUMPDEST \t\t\t\n      PUSH 0\t\t\t\n      PUSH [tag] 104\t\t\t\n      PUSH E\t\t\t\n      DUP4 \t\t\t\n      PUSH [tag] 52\t\t\t\n      JUMP \t\t\t\n    tag 104\t\t\t\n      JUMPDEST \t\t\t\n      SWAP2 \t\t\t\n      POP \t\t\t\n      PUSH [tag] 105\t\t\t\n      DUP3 \t\t\t\n      PUSH [tag] 55\t\t\t\n      JUMP \t\t\t\n    tag 105\t\t\t\n      JUMPDEST \t\t\t\n      PUSH 20\t\t\t\n      DUP3 \t\t\t\n      ADD \t\t\t\n      SWAP1 \t\t\t\n      POP \t\t\t\n      SWAP2 \t\t\t\n      SWAP1 \t\t\t\n      POP \t\t\t\n      JUMP \t\t\t\n    tag 35\t\t\t\n      JUMPDEST \t\t\t\n      PUSH 0\t\t\t\n      PUSH 20\t\t\t\n      DUP3 \t\t\t\n      ADD \t\t\t\n      SWAP1 \t\t\t\n      POP \t\t\t\n      DUP2 \t\t\t\n      DUP2 \t\t\t\n      SUB \t\t\t\n      PUSH 0\t\t\t\n      DUP4 \t\t\t\n      ADD \t\t\t\n      MSTORE \t\t\t\n      PUSH [tag] 107\t\t\t\n      DUP2 \t\t\t\n      PUSH [tag] 56\t\t\t\n      JUMP \t\t\t\n    tag 107\t\t\t\n      JUMPDEST \t\t\t\n      SWAP1 \t\t\t\n      POP \t\t\t\n      SWAP2 \t\t\t\n      SWAP1 \t\t\t\n      POP \t\t\t\n      JUMP \t\t\t\n    .data\n"
}